{
  "_format": "hh-sol-artifact-1",
  "contractName": "PolyNftRegistry",
  "sourceName": "contracts/PolyNftRegistry.sol",
  "abi": [
    {
      "anonymous": false,
      "inputs": [
        {
          "indexed": true,
          "internalType": "address",
          "name": "previousOwner",
          "type": "address"
        },
        {
          "indexed": true,
          "internalType": "address",
          "name": "newOwner",
          "type": "address"
        }
      ],
      "name": "OwnershipTransferred",
      "type": "event"
    },
    {
      "inputs": [
        {
          "components": [
            {
              "internalType": "address",
              "name": "polyNftErc721",
              "type": "address"
            },
            {
              "internalType": "uint256",
              "name": "tokenId",
              "type": "uint256"
            },
            {
              "internalType": "uint256",
              "name": "fusionCost",
              "type": "uint256"
            },
            {
              "internalType": "uint256",
              "name": "timestamp",
              "type": "uint256"
            },
            {
              "internalType": "string",
              "name": "description",
              "type": "string"
            }
          ],
          "internalType": "struct PolyNftRegistry.OrderInfo",
          "name": "orderInfoArg",
          "type": "tuple"
        }
      ],
      "name": "deregister",
      "outputs": [],
      "stateMutability": "nonpayable",
      "type": "function"
    },
    {
      "inputs": [
        {
          "components": [
            {
              "internalType": "address",
              "name": "polyNftErc721",
              "type": "address"
            },
            {
              "internalType": "uint256",
              "name": "tokenId",
              "type": "uint256"
            },
            {
              "internalType": "uint256",
              "name": "fusionCost",
              "type": "uint256"
            },
            {
              "internalType": "uint256",
              "name": "timestamp",
              "type": "uint256"
            },
            {
              "internalType": "string",
              "name": "description",
              "type": "string"
            }
          ],
          "internalType": "struct PolyNftRegistry.OrderInfo[]",
          "name": "orderInfosArg",
          "type": "tuple[]"
        },
        {
          "internalType": "bytes",
          "name": "tokenURI",
          "type": "bytes"
        },
        {
          "internalType": "string",
          "name": "description",
          "type": "string"
        }
      ],
      "name": "fuse",
      "outputs": [],
      "stateMutability": "payable",
      "type": "function"
    },
    {
      "inputs": [
        {
          "internalType": "bytes32",
          "name": "",
          "type": "bytes32"
        }
      ],
      "name": "orderInfoHashMap",
      "outputs": [
        {
          "internalType": "address",
          "name": "",
          "type": "address"
        }
      ],
      "stateMutability": "view",
      "type": "function"
    },
    {
      "inputs": [
        {
          "internalType": "address",
          "name": "",
          "type": "address"
        },
        {
          "internalType": "uint256",
          "name": "",
          "type": "uint256"
        }
      ],
      "name": "orderMap",
      "outputs": [
        {
          "internalType": "address",
          "name": "polyNftErc721",
          "type": "address"
        },
        {
          "internalType": "uint256",
          "name": "tokenId",
          "type": "uint256"
        },
        {
          "internalType": "uint256",
          "name": "fusionCost",
          "type": "uint256"
        },
        {
          "internalType": "uint256",
          "name": "timestamp",
          "type": "uint256"
        },
        {
          "internalType": "string",
          "name": "description",
          "type": "string"
        }
      ],
      "stateMutability": "view",
      "type": "function"
    },
    {
      "inputs": [],
      "name": "owner",
      "outputs": [
        {
          "internalType": "address",
          "name": "",
          "type": "address"
        }
      ],
      "stateMutability": "view",
      "type": "function"
    },
    {
      "inputs": [
        {
          "internalType": "address",
          "name": "",
          "type": "address"
        },
        {
          "internalType": "uint256",
          "name": "",
          "type": "uint256"
        }
      ],
      "name": "polyNftErc721OrderMap",
      "outputs": [
        {
          "internalType": "address",
          "name": "polyNftErc721",
          "type": "address"
        },
        {
          "internalType": "uint256",
          "name": "tokenId",
          "type": "uint256"
        },
        {
          "internalType": "uint256",
          "name": "fusionCost",
          "type": "uint256"
        },
        {
          "internalType": "uint256",
          "name": "timestamp",
          "type": "uint256"
        },
        {
          "internalType": "string",
          "name": "description",
          "type": "string"
        }
      ],
      "stateMutability": "view",
      "type": "function"
    },
    {
      "inputs": [
        {
          "components": [
            {
              "internalType": "address",
              "name": "polyNftErc721",
              "type": "address"
            },
            {
              "internalType": "uint256",
              "name": "tokenId",
              "type": "uint256"
            },
            {
              "internalType": "uint256",
              "name": "fusionCost",
              "type": "uint256"
            },
            {
              "internalType": "uint256",
              "name": "timestamp",
              "type": "uint256"
            },
            {
              "internalType": "string",
              "name": "description",
              "type": "string"
            }
          ],
          "internalType": "struct PolyNftRegistry.OrderInfo",
          "name": "orderInfoArg",
          "type": "tuple"
        }
      ],
      "name": "register",
      "outputs": [],
      "stateMutability": "nonpayable",
      "type": "function"
    },
    {
      "inputs": [],
      "name": "renounceOwnership",
      "outputs": [],
      "stateMutability": "nonpayable",
      "type": "function"
    },
    {
      "inputs": [
        {
          "internalType": "address",
          "name": "newOwner",
          "type": "address"
        }
      ],
      "name": "transferOwnership",
      "outputs": [],
      "stateMutability": "nonpayable",
      "type": "function"
    }
  ],
  "bytecode": "0x608060405234801561001057600080fd5b5061002161001c610026565b61002a565b61007a565b3390565b600080546001600160a01b038381166001600160a01b0319831681178455604051919092169283917f8be0079c531659141344cd1fd0a4f28419497f9722a3daafe3b4186f6b6457e09190a35050565b6114e8806100896000396000f3fe6080604052600436106100865760003560e01c8063ae2372af11610059578063ae2372af1461011e578063bf1250b314610131578063f138324f14610151578063f2fde38b14610171578063f9e3c8941461019157610086565b80631c63758d1461008b5780632df7fb92146100ad578063715018a6146100e75780638da5cb5b146100fc575b600080fd5b34801561009757600080fd5b506100ab6100a6366004610e56565b6101b1565b005b3480156100b957600080fd5b506100cd6100c8366004610caa565b610372565b6040516100de959493929190610fd9565b60405180910390f35b3480156100f357600080fd5b506100ab610458565b34801561010857600080fd5b5061011161046c565b6040516100de9190610f0e565b6100ab61012c366004610cd5565b61047b565b34801561013d57600080fd5b506100cd61014c366004610caa565b610b20565b34801561015d57600080fd5b5061011161016c366004610d95565b610b3c565b34801561017d57600080fd5b506100ab61018c366004610c6b565b610b57565b34801561019d57600080fd5b506100ab6101ac366004610e56565b610b8e565b336101bf6020830183610c6b565b6001600160a01b0316636352211e83602001356040518263ffffffff1660e01b81526004016101ee9190611169565b60206040518083038186803b15801561020657600080fd5b505afa15801561021a573d6000803e3d6000fd5b505050506040513d601f19601f8201168201806040525081019061023e9190610c8e565b6001600160a01b03161461026d5760405162461bcd60e51b815260040161026490611149565b60405180910390fd5b61027a6020820182610c6b565b6001600160a01b03166323b872dd333084602001356040518463ffffffff1660e01b81526004016102ad93929190610f22565b600060405180830381600087803b1580156102c757600080fd5b505af11580156102db573d6000803e3d6000fd5b505033600090815260026020908152604082208054600181018255908352912084935060059091020190506103108282611405565b50600090506103226020830183610c6b565b82602001354260405160200161033a93929190610ee4565b60408051601f19818403018152918152815160209283012060009081526003909252902080546001600160a01b031916331790555050565b6002602052816000526040600020818154811061038e57600080fd5b6000918252602090912060059091020180546001820154600283015460038401546004850180546001600160a01b039095169750929550909390929091906103d590611370565b80601f016020809104026020016040519081016040528092919081815260200182805461040190611370565b801561044e5780601f106104235761010080835404028352916020019161044e565b820191906000526020600020905b81548152906001019060200180831161043157829003601f168201915b5050505050905085565b610460610b91565b61046a6000610bd0565b565b6000546001600160a01b031690565b84600a81111561049d5760405162461bcd60e51b8152600401610264906110d3565b6000808267ffffffffffffffff8111156104c757634e487b7160e01b600052604160045260246000fd5b6040519080825280602002602001820160405280156104fa57816020015b60608152602001906001900390816104e55790505b50905060008367ffffffffffffffff81111561052657634e487b7160e01b600052604160045260246000fd5b60405190808252806020026020018201604052801561054f578160200160208202803683370190505b50905060005b84811015610936578a8a8281811061057d57634e487b7160e01b600052603260045260246000fd5b905060200281019061058f9190611172565b61059d90604001358561119d565b93508a8a828181106105bf57634e487b7160e01b600052603260045260246000fd5b90506020028101906105d19190611172565b6105df906020810190610c6b565b6001600160a01b0316631f5caafb8c8c8481811061060d57634e487b7160e01b600052603260045260246000fd5b905060200281019061061f9190611172565b602001356040518263ffffffff1660e01b815260040161063f9190611169565b60006040518083038186803b15801561065757600080fd5b505afa15801561066b573d6000803e3d6000fd5b505050506040513d6000823e601f3d908101601f191682016040526106939190810190610dad565b8382815181106106b357634e487b7160e01b600052603260045260246000fd5b60200260200101819052508a8a828181106106de57634e487b7160e01b600052603260045260246000fd5b90506020028101906106f09190611172565b6020013582828151811061071457634e487b7160e01b600052603260045260246000fd5b602002602001018181525050600360008c8c8481811061074457634e487b7160e01b600052603260045260246000fd5b90506020028101906107569190611172565b610764906020810190610c6b565b8d8d8581811061078457634e487b7160e01b600052603260045260246000fd5b90506020028101906107969190611172565b60200135426040516020016107ad93929190610ee4565b60408051601f19818403018152918152815160209283012083529082019290925201600020546001600160a01b03166108fc620f42406107ef612710826111f4565b62ffffff168e8e8681811061081457634e487b7160e01b600052603260045260246000fd5b90506020028101906108269190611172565b6040013561083491906111d5565b61083e91906111b5565b6040518115909202916000818181858888f19350505050158015610866573d6000803e3d6000fd5b508015610926578a8a61087a600184611218565b81811061089757634e487b7160e01b600052603260045260246000fd5b90506020028101906108a99190611172565b6108b7906020810190610c6b565b6001600160a01b03168b8b838181106108e057634e487b7160e01b600052603260045260246000fd5b90506020028101906108f29190611172565b610900906020810190610c6b565b6001600160a01b0316146109265760405162461bcd60e51b8152600401610264906110f4565b61092f816113be565b9050610555565b50823410156109575760405162461bcd60e51b81526004016102649061106c565b60008a8a600081811061097a57634e487b7160e01b600052603260045260246000fd5b905060200281019061098c9190611172565b61099a906020810190610c6b565b90506000816001600160a01b031663b5a25e586040518163ffffffff1660e01b815260040160206040518083038186803b1580156109d757600080fd5b505afa1580156109eb573d6000803e3d6000fd5b505050506040513d601f19601f82011682018060405250810190610a0f9190610c8e565b905060606001600160a01b03821615610aa757604051634604763160e11b81526001600160a01b03831690638c08ec6290610a4e90889060040161100c565b600060405180830381600087803b158015610a6857600080fd5b505af1158015610a7c573d6000803e3d6000fd5b505050506040513d6000823e601f3d908101601f19168201604052610aa49190810190610dad565b90505b826001600160a01b03166387c84458338d8d858e8e8b6040518863ffffffff1660e01b8152600401610adf9796959493929190610f46565b600060405180830381600087803b158015610af957600080fd5b505af1158015610b0d573d6000803e3d6000fd5b5050505050505050505050505050505050565b6001602052816000526040600020818154811061038e57600080fd5b6003602052600090815260409020546001600160a01b031681565b610b5f610b91565b6001600160a01b038116610b855760405162461bcd60e51b81526004016102649061108d565b610b8e81610bd0565b50565b610b99610c20565b6001600160a01b0316610baa61046c565b6001600160a01b03161461046a5760405162461bcd60e51b815260040161026490611114565b600080546001600160a01b038381166001600160a01b0319831681178455604051919092169283917f8be0079c531659141344cd1fd0a4f28419497f9722a3daafe3b4186f6b6457e09190a35050565b3390565b60008083601f840112610c35578182fd5b50813567ffffffffffffffff811115610c4c578182fd5b602083019150836020828501011115610c6457600080fd5b9250929050565b600060208284031215610c7c578081fd5b8135610c878161149d565b9392505050565b600060208284031215610c9f578081fd5b8151610c878161149d565b60008060408385031215610cbc578081fd5b8235610cc78161149d565b946020939093013593505050565b60008060008060008060608789031215610ced578182fd5b863567ffffffffffffffff80821115610d04578384fd5b818901915089601f830112610d17578384fd5b813581811115610d25578485fd5b8a60208083028501011115610d38578485fd5b602092830198509650908801359080821115610d52578384fd5b610d5e8a838b01610c24565b90965094506040890135915080821115610d76578384fd5b50610d8389828a01610c24565b979a9699509497509295939492505050565b600060208284031215610da6578081fd5b5035919050565b600060208284031215610dbe578081fd5b815167ffffffffffffffff80821115610dd5578283fd5b818401915084601f830112610de8578283fd5b815181811115610dfa57610dfa6113ef565b604051601f8201601f19908116603f01168101908382118183101715610e2257610e226113ef565b81604052828152876020848701011115610e3a578586fd5b610e4b836020830160208801611340565b979650505050505050565b600060208284031215610e67578081fd5b813567ffffffffffffffff811115610e7d578182fd5b820160a08185031215610c87578182fd5b60008284528282602086013780602084860101526020601f19601f85011685010190509392505050565b60008151808452610ed0816020860160208601611340565b601f01601f19169290920160200192915050565b60609390931b6bffffffffffffffffffffffff191683526014830191909152603482015260540190565b6001600160a01b0391909116815260200190565b6001600160a01b039384168152919092166020820152604081019190915260600190565b6001600160a01b038816815260a06020808301829052600091610f6c908401898b610e8e565b8381036040850152610f7e8189610eb8565b90508381036060850152610f93818789610e8e565b84810360808601528551808252838701925090830190845b81811015610fc757835183529284019291840191600101610fab565b50909c9b505050505050505050505050565b600060018060a01b038716825285602083015284604083015283606083015260a06080830152610e4b60a0830184610eb8565b6000602080830181845280855180835260408601915060408482028701019250838701855b8281101561105f57603f1988860301845261104d858351610eb8565b94509285019290850190600101611031565b5092979650505050505050565b6020808252600790820152660504e525f4e45560cc1b604082015260600190565b60208082526026908201527f4f776e61626c653a206e6577206f776e657220697320746865207a65726f206160408201526564647265737360d01b606082015260800190565b602080825260079082015266504e525f544d4f60c81b604082015260600190565b602080825260069082015265504e525f4e5360d01b604082015260600190565b6020808252818101527f4f776e61626c653a2063616c6c6572206973206e6f7420746865206f776e6572604082015260600190565b602080825260069082015265504e525f4e4f60d01b604082015260600190565b90815260200190565b60008235609e19833603018112611187578182fd5b9190910192915050565b60009081526020902090565b600082198211156111b0576111b06113d9565b500190565b6000826111d057634e487b7160e01b81526012600452602481fd5b500490565b60008160001904831182151516156111ef576111ef6113d9565b500290565b600062ffffff83811690831681811015611210576112106113d9565b039392505050565b60008282101561122a5761122a6113d9565b500390565b5b818110156112445760008155600101611230565b5050565b67ffffffffffffffff831115611260576112606113ef565b61126a8154611370565b600080601f8611601f8411818117156112895761128686611191565b92505b80156112b8576020601f890104830160208910156112a45750825b6112b66020601f88010485018261122f565b505b5080600181146112e4576000945087156112d3578387013594505b6112dd88866113ab565b8655611336565b601f198816945082845b8681101561130e57888601358255602095860195600190920191016112ee565b508886101561132b57878501356000196008601f8c16021c191681555b506001600289020186555b5050505050505050565b60005b8381101561135b578181015183820152602001611343565b8381111561136a576000848401525b50505050565b60028104600182168061138457607f821691505b602082108114156113a557634e487b7160e01b600052602260045260246000fd5b50919050565b600019600883021c191660029091021790565b60006000198214156113d2576113d26113d9565b5060010190565b634e487b7160e01b600052601160045260246000fd5b634e487b7160e01b600052604160045260246000fd5b81356114108161149d565b81546001600160a01b0319166001600160a01b0391909116178155602082013560018201556040820135600282015560608201356003820155608082013536839003601e1901811261146157600080fd5b8201803567ffffffffffffffff81111561147a57600080fd5b60208201915080360382131561148f57600080fd5b61136a818360048601611248565b6001600160a01b0381168114610b8e57600080fdfea264697066735822122044b0572ab287e168b743fb0b6aa6cafd0388d8c0f0d06152c2aebc0eb9cf075664736f6c63430008010033",
  "linkReferences": {},
  "deployedLinkReferences": {}
}