{
  "_format": "hh-sol-artifact-1",
  "contractName": "PolyNftRegistry",
  "sourceName": "contracts/PolyNftRegistry.sol",
  "abi": [
    {
      "anonymous": false,
      "inputs": [
        {
          "indexed": true,
          "internalType": "address",
          "name": "previousOwner",
          "type": "address"
        },
        {
          "indexed": true,
          "internalType": "address",
          "name": "newOwner",
          "type": "address"
        }
      ],
      "name": "OwnershipTransferred",
      "type": "event"
    },
    {
      "inputs": [],
      "name": "FEE_RATIO",
      "outputs": [
        {
          "internalType": "uint24",
          "name": "",
          "type": "uint24"
        }
      ],
      "stateMutability": "view",
      "type": "function"
    },
    {
      "inputs": [],
      "name": "MAX_FUSION_AMOUNT",
      "outputs": [
        {
          "internalType": "uint24",
          "name": "",
          "type": "uint24"
        }
      ],
      "stateMutability": "view",
      "type": "function"
    },
    {
      "inputs": [
        {
          "components": [
            {
              "internalType": "address",
              "name": "polyNftErc721",
              "type": "address"
            },
            {
              "internalType": "uint256",
              "name": "tokenId",
              "type": "uint256"
            }
          ],
          "internalType": "struct PolyNftRegistry.DeRegisterInputParam",
          "name": "deRegisterInputArg",
          "type": "tuple"
        }
      ],
      "name": "deregister",
      "outputs": [],
      "stateMutability": "nonpayable",
      "type": "function"
    },
    {
      "inputs": [
        {
          "components": [
            {
              "internalType": "address",
              "name": "polyNftErc721",
              "type": "address"
            },
            {
              "internalType": "uint256",
              "name": "tokenId",
              "type": "uint256"
            },
            {
              "internalType": "uint256",
              "name": "fusionCost",
              "type": "uint256"
            },
            {
              "internalType": "uint256",
              "name": "timestamp",
              "type": "uint256"
            },
            {
              "internalType": "string",
              "name": "description",
              "type": "string"
            }
          ],
          "internalType": "struct PolyNftRegistry.OrderInfo[]",
          "name": "orderInfosArg",
          "type": "tuple[]"
        },
        {
          "internalType": "bytes",
          "name": "tokenURI",
          "type": "bytes"
        },
        {
          "internalType": "string",
          "name": "description",
          "type": "string"
        }
      ],
      "name": "fuse",
      "outputs": [],
      "stateMutability": "payable",
      "type": "function"
    },
    {
      "inputs": [
        {
          "internalType": "address",
          "name": "ownerArg",
          "type": "address"
        }
      ],
      "name": "getOrdersByOwner",
      "outputs": [
        {
          "components": [
            {
              "internalType": "address",
              "name": "polyNftErc721",
              "type": "address"
            },
            {
              "internalType": "uint256",
              "name": "tokenId",
              "type": "uint256"
            },
            {
              "internalType": "uint256",
              "name": "fusionCost",
              "type": "uint256"
            },
            {
              "internalType": "uint256",
              "name": "timestamp",
              "type": "uint256"
            },
            {
              "internalType": "string",
              "name": "description",
              "type": "string"
            }
          ],
          "internalType": "struct PolyNftRegistry.OrderInfo[]",
          "name": "",
          "type": "tuple[]"
        }
      ],
      "stateMutability": "view",
      "type": "function"
    },
    {
      "inputs": [
        {
          "internalType": "address",
          "name": "erc721",
          "type": "address"
        }
      ],
      "name": "getOrdersInfoByPolyNftErc721",
      "outputs": [
        {
          "components": [
            {
              "internalType": "uint256",
              "name": "tokenId",
              "type": "uint256"
            },
            {
              "internalType": "string",
              "name": "tokenURI",
              "type": "string"
            },
            {
              "internalType": "bytes",
              "name": "attribute",
              "type": "bytes"
            },
            {
              "internalType": "string",
              "name": "description",
              "type": "string"
            },
            {
              "internalType": "uint256[]",
              "name": "fusionSourceTokenIds",
              "type": "uint256[]"
            },
            {
              "internalType": "address",
              "name": "polyNftErc721",
              "type": "address"
            },
            {
              "internalType": "uint256",
              "name": "fusionCost",
              "type": "uint256"
            }
          ],
          "internalType": "struct PolyNftRegistry.GetOrderInfoReturnParam[]",
          "name": "",
          "type": "tuple[]"
        }
      ],
      "stateMutability": "view",
      "type": "function"
    },
    {
      "inputs": [
        {
          "internalType": "address",
          "name": "",
          "type": "address"
        },
        {
          "internalType": "uint256",
          "name": "",
          "type": "uint256"
        }
      ],
      "name": "orderMapByOwner",
      "outputs": [
        {
          "internalType": "address",
          "name": "polyNftErc721",
          "type": "address"
        },
        {
          "internalType": "uint256",
          "name": "tokenId",
          "type": "uint256"
        },
        {
          "internalType": "uint256",
          "name": "fusionCost",
          "type": "uint256"
        },
        {
          "internalType": "uint256",
          "name": "timestamp",
          "type": "uint256"
        },
        {
          "internalType": "string",
          "name": "description",
          "type": "string"
        }
      ],
      "stateMutability": "view",
      "type": "function"
    },
    {
      "inputs": [
        {
          "internalType": "address",
          "name": "",
          "type": "address"
        },
        {
          "internalType": "uint256",
          "name": "",
          "type": "uint256"
        }
      ],
      "name": "orderMapByPolyNftErc721",
      "outputs": [
        {
          "internalType": "address",
          "name": "polyNftErc721",
          "type": "address"
        },
        {
          "internalType": "uint256",
          "name": "tokenId",
          "type": "uint256"
        },
        {
          "internalType": "uint256",
          "name": "fusionCost",
          "type": "uint256"
        },
        {
          "internalType": "uint256",
          "name": "timestamp",
          "type": "uint256"
        },
        {
          "internalType": "string",
          "name": "description",
          "type": "string"
        }
      ],
      "stateMutability": "view",
      "type": "function"
    },
    {
      "inputs": [],
      "name": "owner",
      "outputs": [
        {
          "internalType": "address",
          "name": "",
          "type": "address"
        }
      ],
      "stateMutability": "view",
      "type": "function"
    },
    {
      "inputs": [
        {
          "internalType": "bytes32",
          "name": "",
          "type": "bytes32"
        }
      ],
      "name": "ownerMapByOrderHash",
      "outputs": [
        {
          "internalType": "address",
          "name": "",
          "type": "address"
        }
      ],
      "stateMutability": "view",
      "type": "function"
    },
    {
      "inputs": [
        {
          "components": [
            {
              "internalType": "address",
              "name": "polyNftErc721",
              "type": "address"
            },
            {
              "internalType": "uint256",
              "name": "tokenId",
              "type": "uint256"
            },
            {
              "internalType": "uint256",
              "name": "fusionCost",
              "type": "uint256"
            },
            {
              "internalType": "string",
              "name": "description",
              "type": "string"
            }
          ],
          "internalType": "struct PolyNftRegistry.RegisterInputParam",
          "name": "registerInputArg",
          "type": "tuple"
        }
      ],
      "name": "register",
      "outputs": [],
      "stateMutability": "nonpayable",
      "type": "function"
    },
    {
      "inputs": [],
      "name": "renounceOwnership",
      "outputs": [],
      "stateMutability": "nonpayable",
      "type": "function"
    },
    {
      "inputs": [
        {
          "internalType": "address",
          "name": "newOwner",
          "type": "address"
        }
      ],
      "name": "transferOwnership",
      "outputs": [],
      "stateMutability": "nonpayable",
      "type": "function"
    }
  ],
  "bytecode": "0x608060405234801561001057600080fd5b5061002161001c610026565b61002a565b61007a565b3390565b600080546001600160a01b038381166001600160a01b0319831681178455604051919092169283917f8be0079c531659141344cd1fd0a4f28419497f9722a3daafe3b4186f6b6457e09190a35050565b611dfe806100896000396000f3fe6080604052600436106100c25760003560e01c8063ae2372af1161007f578063f2fde38b11610059578063f2fde38b146101fc578063f6f109261461021c578063f99ddd731461023c578063fa447f6214610269576100c2565b8063ae2372af1461019a578063b83282da146101ad578063c3eccfe4146101cf576100c2565b80631a72d19b146100c75780631fd5f06e14610101578063552e7a5d1461012e5780635d3a556214610150578063715018a6146101705780638da5cb5b14610185575b600080fd5b3480156100d357600080fd5b506100e76100e2366004611517565b61027e565b6040516100f89594939291906118be565b60405180910390f35b34801561010d57600080fd5b5061012161011c3660046116a9565b610364565b6040516100f89190611818565b34801561013a57600080fd5b5061014e610149366004611726565b61037f565b005b34801561015c57600080fd5b506100e761016b366004611517565b61068c565b34801561017c57600080fd5b5061014e6106a8565b34801561019157600080fd5b506101216106bc565b61014e6101a8366004611542565b6106cb565b3480156101b957600080fd5b506101c2610d70565b6040516100f89190611bc7565b3480156101db57600080fd5b506101ef6101ea3660046114df565b610d76565b6040516100f8919061195c565b34801561020857600080fd5b5061014e6102173660046114df565b611155565b34801561022857600080fd5b5061014e61023736600461170f565b61118c565b34801561024857600080fd5b5061025c6102573660046114df565b61118f565b6040516100f89190611a3d565b34801561027557600080fd5b506101c26112cb565b6002602052816000526040600020818154811061029a57600080fd5b6000918252602090912060059091020180546001820154600283015460038401546004850180546001600160a01b039095169750929550909390929091906102e190611d37565b80601f016020809104026020016040519081016040528092919081815260200182805461030d90611d37565b801561035a5780601f1061032f5761010080835404028352916020019161035a565b820191906000526020600020905b81548152906001019060200180831161033d57829003601f168201915b5050505050905085565b6003602052600090815260409020546001600160a01b031681565b3361038d60208301836114df565b6001600160a01b0316636352211e83602001356040518263ffffffff1660e01b81526004016103bc9190611bd7565b60206040518083038186803b1580156103d457600080fd5b505afa1580156103e8573d6000803e3d6000fd5b505050506040513d601f19601f8201168201806040525081019061040c91906114fb565b6001600160a01b03161461043b5760405162461bcd60e51b815260040161043290611ba7565b60405180910390fd5b6040805160a081019091526000908061045760208501856114df565b6001600160a01b03168152602001836020013581526020018360400135815260200142815260200183806060019061048f9190611be0565b8080601f0160208091040260200160405190810160405280939291908181526020018383808284376000920191909152505050915250805160208201516040516323b872dd60e01b81529293506001600160a01b03909116916323b872dd916104fe913391309160040161182c565b600060405180830381600087803b15801561051857600080fd5b505af115801561052c573d6000803e3d6000fd5b505033600090815260026020818152604080842080546001808201835591865294839020885160059096020180546001600160a01b0319166001600160a01b0390961695909517855587830151908501558601519183019190915560608501516003830155608085015180518695509293506105b19260048501929190910190611363565b505081516001600160a01b0390811660009081526001602081815260408084208054808501825590855293829020875160059095020180546001600160a01b03191694909516939093178455808601519184019190915590840151600283015560608401516003830155608084015180518594506106359260048501920190611363565b505081516020808401516040516000945061065393924291016117ee565b60408051601f19818403018152918152815160209283012060009081526003909252902080546001600160a01b03191633179055505050565b6001602052816000526040600020818154811061029a57600080fd5b6106b06112d0565b6106ba600061130f565b565b6000546001600160a01b031690565b84600a8111156106ed5760405162461bcd60e51b815260040161043290611b31565b6000808267ffffffffffffffff81111561071757634e487b7160e01b600052604160045260246000fd5b60405190808252806020026020018201604052801561074a57816020015b60608152602001906001900390816107355790505b50905060008367ffffffffffffffff81111561077657634e487b7160e01b600052604160045260246000fd5b60405190808252806020026020018201604052801561079f578160200160208202803683370190505b50905060005b84811015610b86578a8a828181106107cd57634e487b7160e01b600052603260045260246000fd5b90506020028101906107df9190611c25565b6107ed906040013585611c75565b93508a8a8281811061080f57634e487b7160e01b600052603260045260246000fd5b90506020028101906108219190611c25565b61082f9060208101906114df565b6001600160a01b0316631f5caafb8c8c8481811061085d57634e487b7160e01b600052603260045260246000fd5b905060200281019061086f9190611c25565b602001356040518263ffffffff1660e01b815260040161088f9190611bd7565b60006040518083038186803b1580156108a757600080fd5b505afa1580156108bb573d6000803e3d6000fd5b505050506040513d6000823e601f3d908101601f191682016040526108e391908101906116c1565b83828151811061090357634e487b7160e01b600052603260045260246000fd5b60200260200101819052508a8a8281811061092e57634e487b7160e01b600052603260045260246000fd5b90506020028101906109409190611c25565b6020013582828151811061096457634e487b7160e01b600052603260045260246000fd5b602002602001018181525050600360008c8c8481811061099457634e487b7160e01b600052603260045260246000fd5b90506020028101906109a69190611c25565b6109b49060208101906114df565b8d8d858181106109d457634e487b7160e01b600052603260045260246000fd5b90506020028101906109e69190611c25565b60200135426040516020016109fd939291906117ee565b60408051601f19818403018152918152815160209283012083529082019290925201600020546001600160a01b03166108fc620f4240610a3f61271082611ccc565b62ffffff168e8e86818110610a6457634e487b7160e01b600052603260045260246000fd5b9050602002810190610a769190611c25565b60400135610a849190611cad565b610a8e9190611c8d565b6040518115909202916000818181858888f19350505050158015610ab6573d6000803e3d6000fd5b508015610b76578a8a610aca600184611cf0565b818110610ae757634e487b7160e01b600052603260045260246000fd5b9050602002810190610af99190611c25565b610b079060208101906114df565b6001600160a01b03168b8b83818110610b3057634e487b7160e01b600052603260045260246000fd5b9050602002810190610b429190611c25565b610b509060208101906114df565b6001600160a01b031614610b765760405162461bcd60e51b815260040161043290611b52565b610b7f81611d6c565b90506107a5565b5082341015610ba75760405162461bcd60e51b815260040161043290611aca565b60008a8a6000818110610bca57634e487b7160e01b600052603260045260246000fd5b9050602002810190610bdc9190611c25565b610bea9060208101906114df565b90506000816001600160a01b031663b5a25e586040518163ffffffff1660e01b815260040160206040518083038186803b158015610c2757600080fd5b505afa158015610c3b573d6000803e3d6000fd5b505050506040513d601f19601f82011682018060405250810190610c5f91906114fb565b905060606001600160a01b03821615610cf757604051634604763160e11b81526001600160a01b03831690638c08ec6290610c9e9088906004016118fc565b600060405180830381600087803b158015610cb857600080fd5b505af1158015610ccc573d6000803e3d6000fd5b505050506040513d6000823e601f3d908101601f19168201604052610cf491908101906116c1565b90505b826001600160a01b03166387c84458338d8d858e8e8b6040518863ffffffff1660e01b8152600401610d2f9796959493929190611850565b600060405180830381600087803b158015610d4957600080fd5b505af1158015610d5d573d6000803e3d6000fd5b5050505050505050505050505050505050565b61271081565b6001600160a01b0381166000908152600160205260408120546060918167ffffffffffffffff811115610db957634e487b7160e01b600052604160045260246000fd5b604051908082528060200260200182016040528015610df257816020015b610ddf6113e7565b815260200190600190039081610dd75790505b50905060005b8281101561114d576001600160a01b0385166000908152600160205260408120805483908110610e3857634e487b7160e01b600052603260045260246000fd5b90600052602060002090600502016040518060a00160405290816000820160009054906101000a90046001600160a01b03166001600160a01b03166001600160a01b03168152602001600182015481526020016002820154815260200160038201548152602001600482018054610eae90611d37565b80601f0160208091040260200160405190810160405280929190818152602001828054610eda90611d37565b8015610f275780601f10610efc57610100808354040283529160200191610f27565b820191906000526020600020905b815481529060010190602001808311610f0a57829003601f168201915b50505050508152505090506040518060e001604052808260200151815260200182600001516001600160a01b031663c87b56dd84602001516040518263ffffffff1660e01b8152600401610f7b9190611bd7565b60006040518083038186803b158015610f9357600080fd5b505afa158015610fa7573d6000803e3d6000fd5b505050506040513d6000823e601f3d908101601f19168201604052610fcf91908101906116c1565b815260200182600001516001600160a01b0316631f5caafb84602001516040518263ffffffff1660e01b81526004016110089190611bd7565b60006040518083038186803b15801561102057600080fd5b505afa158015611034573d6000803e3d6000fd5b505050506040513d6000823e601f3d908101601f1916820160405261105c91908101906116c1565b81526020018260800151815260200182600001516001600160a01b03166369d3921984602001516040518263ffffffff1660e01b815260040161109f9190611bd7565b60006040518083038186803b1580156110b757600080fd5b505afa1580156110cb573d6000803e3d6000fd5b505050506040513d6000823e601f3d908101601f191682016040526110f39190810190611602565b815282516001600160a01b03166020820152604080840151910152835184908490811061113057634e487b7160e01b600052603260045260246000fd5b6020026020010181905250508061114690611d6c565b9050610df8565b509392505050565b61115d6112d0565b6001600160a01b0381166111835760405162461bcd60e51b815260040161043290611aeb565b61118c8161130f565b50565b6001600160a01b0381166000908152600260209081526040808320805482518185028101850190935280835260609492939192909184015b828210156112c05760008481526020908190206040805160a0810182526005860290920180546001600160a01b031683526001810154938301939093526002830154908201526003820154606082015260048201805491929160808401919061122f90611d37565b80601f016020809104026020016040519081016040528092919081815260200182805461125b90611d37565b80156112a85780601f1061127d576101008083540402835291602001916112a8565b820191906000526020600020905b81548152906001019060200180831161128b57829003601f168201915b505050505081525050815260200190600101906111c7565b505050509050919050565b600a81565b6112d861135f565b6001600160a01b03166112e96106bc565b6001600160a01b0316146106ba5760405162461bcd60e51b815260040161043290611b72565b600080546001600160a01b038381166001600160a01b0319831681178455604051919092169283917f8be0079c531659141344cd1fd0a4f28419497f9722a3daafe3b4186f6b6457e09190a35050565b3390565b82805461136f90611d37565b90600052602060002090601f01602090048101928261139157600085556113d7565b82601f106113aa57805160ff19168380011785556113d7565b828001600101855582156113d7579182015b828111156113d75782518255916020019190600101906113bc565b506113e392915061142d565b5090565b6040518060e00160405280600081526020016060815260200160608152602001606081526020016060815260200160006001600160a01b03168152602001600081525090565b5b808211156113e3576000815560010161142e565b600067ffffffffffffffff83111561145c5761145c611d9d565b61146f601f8401601f1916602001611c44565b905082815283838301111561148357600080fd5b611491836020830184611d07565b9392505050565b60008083601f8401126114a9578182fd5b50813567ffffffffffffffff8111156114c0578182fd5b6020830191508360208285010111156114d857600080fd5b9250929050565b6000602082840312156114f0578081fd5b813561149181611db3565b60006020828403121561150c578081fd5b815161149181611db3565b60008060408385031215611529578081fd5b823561153481611db3565b946020939093013593505050565b6000806000806000806060878903121561155a578182fd5b863567ffffffffffffffff80821115611571578384fd5b818901915089601f830112611584578384fd5b813581811115611592578485fd5b8a602080830285010111156115a5578485fd5b6020928301985096509088013590808211156115bf578384fd5b6115cb8a838b01611498565b909650945060408901359150808211156115e3578384fd5b506115f089828a01611498565b979a9699509497509295939492505050565b60006020808385031215611614578182fd5b825167ffffffffffffffff8082111561162b578384fd5b818501915085601f83011261163e578384fd5b81518181111561165057611650611d9d565b8381029150611660848301611c44565b8181528481019084860184860187018a101561167a578788fd5b8795505b8386101561169c57805183526001959095019491860191860161167e565b5098975050505050505050565b6000602082840312156116ba578081fd5b5035919050565b6000602082840312156116d2578081fd5b815167ffffffffffffffff8111156116e8578182fd5b8201601f810184136116f8578182fd5b61170784825160208401611442565b949350505050565b600060408284031215611720578081fd5b50919050565b600060208284031215611737578081fd5b813567ffffffffffffffff81111561174d578182fd5b820160808185031215611491578182fd5b6000815180845260208085019450808401835b8381101561178d57815187529582019590820190600101611771565b509495945050505050565b60008284528282602086013780602084860101526020601f19601f85011685010190509392505050565b600081518084526117da816020860160208601611d07565b601f01601f19169290920160200192915050565b60609390931b6bffffffffffffffffffffffff191683526014830191909152603482015260540190565b6001600160a01b0391909116815260200190565b6001600160a01b039384168152919092166020820152604081019190915260600190565b6001600160a01b038816815260a060208201819052600090611875908301888a611798565b828103604084015261188781886117c2565b9050828103606084015261189c818688611798565b905082810360808401526118b0818561175e565b9a9950505050505050505050565b600060018060a01b038716825285602083015284604083015283606083015260a060808301526118f160a08301846117c2565b979650505050505050565b6000602080830181845280855180835260408601915060408482028701019250838701855b8281101561194f57603f1988860301845261193d8583516117c2565b94509285019290850190600101611921565b5092979650505050505050565b60208082528251828201819052600091906040908185019080840286018301878501865b83811015611a2f57603f19898403018552815160e08151855288820151818a8701526119ae828701826117c2565b91505087820151858203898701526119c682826117c2565b915050606080830151868303828801526119e083826117c2565b92505050608080830151868303828801526119fb838261175e565b60a0858101516001600160a01b03169089015260c09485015194909701939093525050509386019390860190600101611980565b509098975050505050505050565b60208082528251828201819052600091906040908185019080840286018301878501865b83811015611a2f57888303603f19018552815180516001600160a01b03168452878101518885015286810151878501526060808201519085015260809081015160a091850182905290611ab6818601836117c2565b968901969450505090860190600101611a61565b6020808252600790820152660504e525f4e45560cc1b604082015260600190565b60208082526026908201527f4f776e61626c653a206e6577206f776e657220697320746865207a65726f206160408201526564647265737360d01b606082015260800190565b602080825260079082015266504e525f544d4f60c81b604082015260600190565b602080825260069082015265504e525f4e5360d01b604082015260600190565b6020808252818101527f4f776e61626c653a2063616c6c6572206973206e6f7420746865206f776e6572604082015260600190565b602080825260069082015265504e525f4e4f60d01b604082015260600190565b62ffffff91909116815260200190565b90815260200190565b6000808335601e19843603018112611bf6578283fd5b83018035915067ffffffffffffffff821115611c10578283fd5b6020019150368190038213156114d857600080fd5b60008235609e19833603018112611c3a578182fd5b9190910192915050565b604051601f8201601f1916810167ffffffffffffffff81118282101715611c6d57611c6d611d9d565b604052919050565b60008219821115611c8857611c88611d87565b500190565b600082611ca857634e487b7160e01b81526012600452602481fd5b500490565b6000816000190483118215151615611cc757611cc7611d87565b500290565b600062ffffff83811690831681811015611ce857611ce8611d87565b039392505050565b600082821015611d0257611d02611d87565b500390565b60005b83811015611d22578181015183820152602001611d0a565b83811115611d31576000848401525b50505050565b600281046001821680611d4b57607f821691505b6020821081141561172057634e487b7160e01b600052602260045260246000fd5b6000600019821415611d8057611d80611d87565b5060010190565b634e487b7160e01b600052601160045260246000fd5b634e487b7160e01b600052604160045260246000fd5b6001600160a01b038116811461118c57600080fdfea2646970667358221220459037c359f9104f4e2215422fa0dd907560902cf5decc75756d58ca15b6cfd464736f6c63430008010033",
  "linkReferences": {},
  "deployedLinkReferences": {}
}