{
  "_format": "hh-sol-artifact-1",
  "contractName": "PolyNftErc721",
  "sourceName": "contracts/PolyNftErc721.sol",
  "abi": [
    {
      "inputs": [
        {
          "internalType": "string",
          "name": "nameArg",
          "type": "string"
        },
        {
          "internalType": "string",
          "name": "symbolArg",
          "type": "string"
        },
        {
          "internalType": "string",
          "name": "baseTokenURIArg",
          "type": "string"
        },
        {
          "internalType": "address",
          "name": "fusionImplementationArg",
          "type": "address"
        }
      ],
      "stateMutability": "nonpayable",
      "type": "constructor"
    },
    {
      "anonymous": false,
      "inputs": [
        {
          "indexed": true,
          "internalType": "address",
          "name": "owner",
          "type": "address"
        },
        {
          "indexed": true,
          "internalType": "address",
          "name": "approved",
          "type": "address"
        },
        {
          "indexed": true,
          "internalType": "uint256",
          "name": "tokenId",
          "type": "uint256"
        }
      ],
      "name": "Approval",
      "type": "event"
    },
    {
      "anonymous": false,
      "inputs": [
        {
          "indexed": true,
          "internalType": "address",
          "name": "owner",
          "type": "address"
        },
        {
          "indexed": true,
          "internalType": "address",
          "name": "operator",
          "type": "address"
        },
        {
          "indexed": false,
          "internalType": "bool",
          "name": "approved",
          "type": "bool"
        }
      ],
      "name": "ApprovalForAll",
      "type": "event"
    },
    {
      "anonymous": false,
      "inputs": [
        {
          "indexed": false,
          "internalType": "address",
          "name": "account",
          "type": "address"
        }
      ],
      "name": "Paused",
      "type": "event"
    },
    {
      "anonymous": false,
      "inputs": [
        {
          "indexed": true,
          "internalType": "bytes32",
          "name": "role",
          "type": "bytes32"
        },
        {
          "indexed": true,
          "internalType": "bytes32",
          "name": "previousAdminRole",
          "type": "bytes32"
        },
        {
          "indexed": true,
          "internalType": "bytes32",
          "name": "newAdminRole",
          "type": "bytes32"
        }
      ],
      "name": "RoleAdminChanged",
      "type": "event"
    },
    {
      "anonymous": false,
      "inputs": [
        {
          "indexed": true,
          "internalType": "bytes32",
          "name": "role",
          "type": "bytes32"
        },
        {
          "indexed": true,
          "internalType": "address",
          "name": "account",
          "type": "address"
        },
        {
          "indexed": true,
          "internalType": "address",
          "name": "sender",
          "type": "address"
        }
      ],
      "name": "RoleGranted",
      "type": "event"
    },
    {
      "anonymous": false,
      "inputs": [
        {
          "indexed": true,
          "internalType": "bytes32",
          "name": "role",
          "type": "bytes32"
        },
        {
          "indexed": true,
          "internalType": "address",
          "name": "account",
          "type": "address"
        },
        {
          "indexed": true,
          "internalType": "address",
          "name": "sender",
          "type": "address"
        }
      ],
      "name": "RoleRevoked",
      "type": "event"
    },
    {
      "anonymous": false,
      "inputs": [
        {
          "indexed": true,
          "internalType": "address",
          "name": "from",
          "type": "address"
        },
        {
          "indexed": true,
          "internalType": "address",
          "name": "to",
          "type": "address"
        },
        {
          "indexed": true,
          "internalType": "uint256",
          "name": "tokenId",
          "type": "uint256"
        }
      ],
      "name": "Transfer",
      "type": "event"
    },
    {
      "anonymous": false,
      "inputs": [
        {
          "indexed": false,
          "internalType": "address",
          "name": "account",
          "type": "address"
        }
      ],
      "name": "Unpaused",
      "type": "event"
    },
    {
      "inputs": [],
      "name": "DEFAULT_ADMIN_ROLE",
      "outputs": [
        {
          "internalType": "bytes32",
          "name": "",
          "type": "bytes32"
        }
      ],
      "stateMutability": "view",
      "type": "function"
    },
    {
      "inputs": [],
      "name": "MINTER_ROLE",
      "outputs": [
        {
          "internalType": "bytes32",
          "name": "",
          "type": "bytes32"
        }
      ],
      "stateMutability": "view",
      "type": "function"
    },
    {
      "inputs": [],
      "name": "PAUSER_ROLE",
      "outputs": [
        {
          "internalType": "bytes32",
          "name": "",
          "type": "bytes32"
        }
      ],
      "stateMutability": "view",
      "type": "function"
    },
    {
      "inputs": [
        {
          "internalType": "address",
          "name": "to",
          "type": "address"
        },
        {
          "internalType": "uint256",
          "name": "tokenId",
          "type": "uint256"
        }
      ],
      "name": "approve",
      "outputs": [],
      "stateMutability": "nonpayable",
      "type": "function"
    },
    {
      "inputs": [
        {
          "internalType": "uint256",
          "name": "",
          "type": "uint256"
        }
      ],
      "name": "attributeMap",
      "outputs": [
        {
          "internalType": "bytes",
          "name": "",
          "type": "bytes"
        }
      ],
      "stateMutability": "view",
      "type": "function"
    },
    {
      "inputs": [
        {
          "internalType": "address",
          "name": "owner",
          "type": "address"
        }
      ],
      "name": "balanceOf",
      "outputs": [
        {
          "internalType": "uint256",
          "name": "",
          "type": "uint256"
        }
      ],
      "stateMutability": "view",
      "type": "function"
    },
    {
      "inputs": [
        {
          "internalType": "uint256",
          "name": "tokenId",
          "type": "uint256"
        }
      ],
      "name": "burn",
      "outputs": [],
      "stateMutability": "nonpayable",
      "type": "function"
    },
    {
      "inputs": [
        {
          "internalType": "uint256",
          "name": "",
          "type": "uint256"
        }
      ],
      "name": "descriptionMap",
      "outputs": [
        {
          "internalType": "string",
          "name": "",
          "type": "string"
        }
      ],
      "stateMutability": "view",
      "type": "function"
    },
    {
      "inputs": [],
      "name": "factory",
      "outputs": [
        {
          "internalType": "address",
          "name": "",
          "type": "address"
        }
      ],
      "stateMutability": "view",
      "type": "function"
    },
    {
      "inputs": [],
      "name": "fusionImplementation",
      "outputs": [
        {
          "internalType": "address",
          "name": "",
          "type": "address"
        }
      ],
      "stateMutability": "view",
      "type": "function"
    },
    {
      "inputs": [
        {
          "internalType": "uint256",
          "name": "tokenId",
          "type": "uint256"
        }
      ],
      "name": "getApproved",
      "outputs": [
        {
          "internalType": "address",
          "name": "",
          "type": "address"
        }
      ],
      "stateMutability": "view",
      "type": "function"
    },
    {
      "inputs": [
        {
          "internalType": "bytes32",
          "name": "role",
          "type": "bytes32"
        }
      ],
      "name": "getRoleAdmin",
      "outputs": [
        {
          "internalType": "bytes32",
          "name": "",
          "type": "bytes32"
        }
      ],
      "stateMutability": "view",
      "type": "function"
    },
    {
      "inputs": [
        {
          "internalType": "bytes32",
          "name": "role",
          "type": "bytes32"
        },
        {
          "internalType": "uint256",
          "name": "index",
          "type": "uint256"
        }
      ],
      "name": "getRoleMember",
      "outputs": [
        {
          "internalType": "address",
          "name": "",
          "type": "address"
        }
      ],
      "stateMutability": "view",
      "type": "function"
    },
    {
      "inputs": [
        {
          "internalType": "bytes32",
          "name": "role",
          "type": "bytes32"
        }
      ],
      "name": "getRoleMemberCount",
      "outputs": [
        {
          "internalType": "uint256",
          "name": "",
          "type": "uint256"
        }
      ],
      "stateMutability": "view",
      "type": "function"
    },
    {
      "inputs": [
        {
          "internalType": "bytes32",
          "name": "role",
          "type": "bytes32"
        },
        {
          "internalType": "address",
          "name": "account",
          "type": "address"
        }
      ],
      "name": "grantRole",
      "outputs": [],
      "stateMutability": "nonpayable",
      "type": "function"
    },
    {
      "inputs": [
        {
          "internalType": "bytes32",
          "name": "role",
          "type": "bytes32"
        },
        {
          "internalType": "address",
          "name": "account",
          "type": "address"
        }
      ],
      "name": "hasRole",
      "outputs": [
        {
          "internalType": "bool",
          "name": "",
          "type": "bool"
        }
      ],
      "stateMutability": "view",
      "type": "function"
    },
    {
      "inputs": [
        {
          "internalType": "address",
          "name": "owner",
          "type": "address"
        },
        {
          "internalType": "address",
          "name": "operator",
          "type": "address"
        }
      ],
      "name": "isApprovedForAll",
      "outputs": [
        {
          "internalType": "bool",
          "name": "",
          "type": "bool"
        }
      ],
      "stateMutability": "view",
      "type": "function"
    },
    {
      "inputs": [
        {
          "internalType": "address",
          "name": "to",
          "type": "address"
        },
        {
          "internalType": "string",
          "name": "tokenURI",
          "type": "string"
        },
        {
          "internalType": "bytes",
          "name": "attribute",
          "type": "bytes"
        },
        {
          "internalType": "string",
          "name": "description",
          "type": "string"
        },
        {
          "internalType": "uint256[]",
          "name": "sourceTokenIds",
          "type": "uint256[]"
        }
      ],
      "name": "mint",
      "outputs": [],
      "stateMutability": "nonpayable",
      "type": "function"
    },
    {
      "inputs": [
        {
          "internalType": "address",
          "name": "to",
          "type": "address"
        }
      ],
      "name": "mint",
      "outputs": [
        {
          "internalType": "uint256",
          "name": "tokenId",
          "type": "uint256"
        }
      ],
      "stateMutability": "nonpayable",
      "type": "function"
    },
    {
      "inputs": [],
      "name": "name",
      "outputs": [
        {
          "internalType": "string",
          "name": "",
          "type": "string"
        }
      ],
      "stateMutability": "view",
      "type": "function"
    },
    {
      "inputs": [
        {
          "internalType": "uint256",
          "name": "tokenId",
          "type": "uint256"
        }
      ],
      "name": "ownerOf",
      "outputs": [
        {
          "internalType": "address",
          "name": "",
          "type": "address"
        }
      ],
      "stateMutability": "view",
      "type": "function"
    },
    {
      "inputs": [],
      "name": "pause",
      "outputs": [],
      "stateMutability": "nonpayable",
      "type": "function"
    },
    {
      "inputs": [],
      "name": "paused",
      "outputs": [
        {
          "internalType": "bool",
          "name": "",
          "type": "bool"
        }
      ],
      "stateMutability": "view",
      "type": "function"
    },
    {
      "inputs": [],
      "name": "registry",
      "outputs": [
        {
          "internalType": "address",
          "name": "",
          "type": "address"
        }
      ],
      "stateMutability": "view",
      "type": "function"
    },
    {
      "inputs": [
        {
          "internalType": "bytes32",
          "name": "role",
          "type": "bytes32"
        },
        {
          "internalType": "address",
          "name": "account",
          "type": "address"
        }
      ],
      "name": "renounceRole",
      "outputs": [],
      "stateMutability": "nonpayable",
      "type": "function"
    },
    {
      "inputs": [
        {
          "internalType": "bytes32",
          "name": "role",
          "type": "bytes32"
        },
        {
          "internalType": "address",
          "name": "account",
          "type": "address"
        }
      ],
      "name": "revokeRole",
      "outputs": [],
      "stateMutability": "nonpayable",
      "type": "function"
    },
    {
      "inputs": [
        {
          "internalType": "address",
          "name": "from",
          "type": "address"
        },
        {
          "internalType": "address",
          "name": "to",
          "type": "address"
        },
        {
          "internalType": "uint256",
          "name": "tokenId",
          "type": "uint256"
        }
      ],
      "name": "safeTransferFrom",
      "outputs": [],
      "stateMutability": "nonpayable",
      "type": "function"
    },
    {
      "inputs": [
        {
          "internalType": "address",
          "name": "from",
          "type": "address"
        },
        {
          "internalType": "address",
          "name": "to",
          "type": "address"
        },
        {
          "internalType": "uint256",
          "name": "tokenId",
          "type": "uint256"
        },
        {
          "internalType": "bytes",
          "name": "data",
          "type": "bytes"
        }
      ],
      "name": "safeTransferFrom",
      "outputs": [],
      "stateMutability": "nonpayable",
      "type": "function"
    },
    {
      "inputs": [
        {
          "internalType": "address",
          "name": "operator",
          "type": "address"
        },
        {
          "internalType": "bool",
          "name": "approved",
          "type": "bool"
        }
      ],
      "name": "setApprovalForAll",
      "outputs": [],
      "stateMutability": "nonpayable",
      "type": "function"
    },
    {
      "inputs": [
        {
          "internalType": "uint256",
          "name": "",
          "type": "uint256"
        },
        {
          "internalType": "uint256",
          "name": "",
          "type": "uint256"
        }
      ],
      "name": "sourceTokenIdMap",
      "outputs": [
        {
          "internalType": "uint256",
          "name": "",
          "type": "uint256"
        }
      ],
      "stateMutability": "view",
      "type": "function"
    },
    {
      "inputs": [
        {
          "internalType": "bytes4",
          "name": "interfaceId",
          "type": "bytes4"
        }
      ],
      "name": "supportsInterface",
      "outputs": [
        {
          "internalType": "bool",
          "name": "",
          "type": "bool"
        }
      ],
      "stateMutability": "view",
      "type": "function"
    },
    {
      "inputs": [],
      "name": "symbol",
      "outputs": [
        {
          "internalType": "string",
          "name": "",
          "type": "string"
        }
      ],
      "stateMutability": "view",
      "type": "function"
    },
    {
      "inputs": [
        {
          "internalType": "uint256",
          "name": "index",
          "type": "uint256"
        }
      ],
      "name": "tokenByIndex",
      "outputs": [
        {
          "internalType": "uint256",
          "name": "",
          "type": "uint256"
        }
      ],
      "stateMutability": "view",
      "type": "function"
    },
    {
      "inputs": [
        {
          "internalType": "address",
          "name": "owner",
          "type": "address"
        },
        {
          "internalType": "uint256",
          "name": "index",
          "type": "uint256"
        }
      ],
      "name": "tokenOfOwnerByIndex",
      "outputs": [
        {
          "internalType": "uint256",
          "name": "",
          "type": "uint256"
        }
      ],
      "stateMutability": "view",
      "type": "function"
    },
    {
      "inputs": [
        {
          "internalType": "uint256",
          "name": "tokenId",
          "type": "uint256"
        }
      ],
      "name": "tokenURI",
      "outputs": [
        {
          "internalType": "string",
          "name": "",
          "type": "string"
        }
      ],
      "stateMutability": "view",
      "type": "function"
    },
    {
      "inputs": [],
      "name": "totalSupply",
      "outputs": [
        {
          "internalType": "uint256",
          "name": "",
          "type": "uint256"
        }
      ],
      "stateMutability": "view",
      "type": "function"
    },
    {
      "inputs": [
        {
          "internalType": "address",
          "name": "from",
          "type": "address"
        },
        {
          "internalType": "address",
          "name": "to",
          "type": "address"
        },
        {
          "internalType": "uint256",
          "name": "tokenId",
          "type": "uint256"
        }
      ],
      "name": "transferFrom",
      "outputs": [],
      "stateMutability": "nonpayable",
      "type": "function"
    },
    {
      "inputs": [],
      "name": "unpause",
      "outputs": [],
      "stateMutability": "nonpayable",
      "type": "function"
    }
  ],
  "bytecode": "0x60806040523480156200001157600080fd5b5060405162002fbb38038062002fbb8339810160408190526200003491620004f3565b838383828281600290805190602001906200005192919062000360565b5080516200006790600390602084019062000360565b5050600c805460ff191690555080516200008990600e90602084019062000360565b50620000a060006200009a620001cf565b620001d3565b620000cf7f9f2df0fed2c77648de5860a4cc508cd0818c85b8b8a1ab4ceeef8d981c8956a66200009a620001cf565b620000fe7f65d7a28e3265b37a6474929f336521b332c1681b933f6cb9f3376673440d862a6200009a620001cf565b5050601180546001600160a01b038085166001600160a01b031992831617909255600f805490911633179081905560408051637b10399960e01b81529051919092169250637b10399991600480820192602092909190829003018186803b1580156200016957600080fd5b505afa1580156200017e573d6000803e3d6000fd5b505050506040513d601f19601f82011682018060405250810190620001a49190620004d6565b601080546001600160a01b0319166001600160a01b039290921691909117905550620005e692505050565b3390565b620001df8282620001e3565b5050565b620001fa82826200022660201b62000cf91760201c565b60008281526001602090815260409091206200022191839062000d7e620002b0821b17901c565b505050565b620002328282620002d0565b620001df576000828152602081815260408083206001600160a01b03851684529091529020805460ff191660011790556200026c620001cf565b6001600160a01b0316816001600160a01b0316837f2f8788117e7eff1d82e926ec794901d17c78024a50270940304540a733656f0d60405160405180910390a45050565b6000620002c7836001600160a01b038416620002f9565b90505b92915050565b6000918252602082815260408084206001600160a01b0393909316845291905290205460ff1690565b600062000307838362000348565b6200033f57508154600181810184556000848152602080822090930184905584548482528286019093526040902091909155620002ca565b506000620002ca565b60009081526001919091016020526040902054151590565b8280546200036e9062000593565b90600052602060002090601f016020900481019282620003925760008555620003dd565b82601f10620003ad57805160ff1916838001178555620003dd565b82800160010185558215620003dd579182015b82811115620003dd578251825591602001919060010190620003c0565b50620003eb929150620003ef565b5090565b5b80821115620003eb5760008155600101620003f0565b80516001600160a01b03811681146200041e57600080fd5b919050565b600082601f83011262000434578081fd5b81516001600160401b0380821115620004515762000451620005d0565b604051601f8301601f19908116603f011681019082821181831017156200047c576200047c620005d0565b8160405283815260209250868385880101111562000498578485fd5b8491505b83821015620004bb57858201830151818301840152908201906200049c565b83821115620004cc57848385830101525b9695505050505050565b600060208284031215620004e8578081fd5b620002c78262000406565b6000806000806080858703121562000509578283fd5b84516001600160401b038082111562000520578485fd5b6200052e8883890162000423565b9550602087015191508082111562000544578485fd5b620005528883890162000423565b9450604087015191508082111562000568578384fd5b50620005778782880162000423565b925050620005886060860162000406565b905092959194509250565b600281046001821680620005a857607f821691505b60208210811415620005ca57634e487b7160e01b600052602260045260246000fd5b50919050565b634e487b7160e01b600052604160045260246000fd5b6129c580620005f66000396000f3fe608060405234801561001057600080fd5b50600436106102325760003560e01c806370a0823111610130578063b6c08470116100b8578063ca15c8731161007c578063ca15c8731461047b578063d53913931461048e578063d547741f14610496578063e63ab1e9146104a9578063e985e9c5146104b157610232565b8063b6c0847014610427578063b88d4fde1461043a578063b9e99c491461044d578063c45a015514610460578063c87b56dd1461046857610232565b80639010d07c116100ff5780639010d07c146103de57806391d14854146103f157806395d89b4114610404578063a217fddf1461040c578063a22cb4651461041457610232565b806370a08231146103a85780637b103999146103bb5780637ce20fca146103c35780638456cb59146103d657610232565b80632f2ff15d116101be57806342966c681161018257806342966c68146103545780634f6ccce7146103675780635c975abb1461037a5780636352211e146103825780636a6278421461039557610232565b80632f2ff15d146103005780632f745c591461031357806336568abe146103265780633f4ba83a1461033957806342842e0e1461034157610232565b806318160ddd1161020557806318160ddd146102aa5780631e9f4c09146102bf57806323b872dd146102d25780632450d13b146102e5578063248a9ca3146102ed57610232565b806301ffc9a71461023757806306fdde0314610260578063081812fc14610275578063095ea7b314610295575b600080fd5b61024a610245366004612148565b6104c4565b6040516102579190612272565b60405180910390f35b6102686104d7565b6040516102579190612286565b6102886102833660046120ed565b610569565b6040516102579190612221565b6102a86102a33660046120c4565b610590565b005b6102b2610631565b604051610257919061227d565b6102a86102cd366004611f9f565b610637565b6102a86102e0366004611ec4565b6106cf565b610288610707565b6102b26102fb3660046120ed565b610716565b6102a861030e366004612105565b61072b565b6102b26103213660046120c4565b610747565b6102a8610334366004612105565b61079c565b6102a86107e2565b6102a861034f366004611ec4565b610834565b6102a86103623660046120ed565b61084f565b6102b26103753660046120ed565b610882565b61024a6108dd565b6102886103903660046120ed565b6108e6565b6102b26103a3366004611e78565b61091a565b6102b26103b6366004611e78565b61093d565b610288610981565b6102686103d13660046120ed565b610990565b6102a8610a2a565b6102886103ec366004612127565b610a7a565b61024a6103ff366004612105565b610a99565b610268610ac2565b6102b2610ad1565b6102a8610422366004611f65565b610ad6565b6102686104353660046120ed565b610ae8565b6102a8610448366004611eff565b610b01565b6102b261045b366004612127565b610b40565b610288610b71565b6102686104763660046120ed565b610b80565b6102b26104893660046120ed565b610c50565b6102b2610c67565b6102a86104a4366004612105565b610c8b565b6102b2610ca7565b61024a6104bf366004611e92565b610ccb565b60006104cf82610d93565b90505b919050565b6060600280546104e690612912565b80601f016020809104026020016040519081016040528092919081815260200182805461051290612912565b801561055f5780601f106105345761010080835404028352916020019161055f565b820191906000526020600020905b81548152906001019060200180831161054257829003601f168201915b5050505050905090565b600061057482610db8565b506000908152600660205260409020546001600160a01b031690565b600061059b826108e6565b9050806001600160a01b0316836001600160a01b031614156105d85760405162461bcd60e51b81526004016105cf90612664565b60405180910390fd5b806001600160a01b03166105ea610ddd565b6001600160a01b031614806106065750610606816104bf610ddd565b6106225760405162461bcd60e51b81526004016105cf906126a5565b61062c8383610de1565b505050565b600a5490565b60006106428661091a565b60008181526012602090815260409091208751929350610666929091880190611d23565b506000818152601360209081526040909120855161068692870190611d23565b50600081815260146020908152604090912084516106a692860190611d23565b50600081815260156020908152604090912083516106c692850190611da7565b50505050505050565b6106e06106da610ddd565b82610e4f565b6106fc5760405162461bcd60e51b81526004016105cf90612347565b61062c838383610eae565b6011546001600160a01b031681565b60009081526020819052604090206001015490565b61073482610716565b61073d81610feb565b61062c8383610ffc565b60006107528361093d565b82106107705760405162461bcd60e51b81526004016105cf90612394565b506001600160a01b03821660009081526008602090815260408083208484529091529020545b92915050565b6107a4610ddd565b6001600160a01b0316816001600160a01b0316146107d45760405162461bcd60e51b81526004016105cf90612801565b6107de828261101e565b5050565b61080e7f65d7a28e3265b37a6474929f336521b332c1681b933f6cb9f3376673440d862a6103ff610ddd565b61082a5760405162461bcd60e51b81526004016105cf906127a3565b610832611040565b565b61062c83838360405180602001604052806000815250610b01565b61085a6106da610ddd565b6108765760405162461bcd60e51b81526004016105cf90612347565b61087f81611092565b50565b600061088c610631565b82106108aa5760405162461bcd60e51b81526004016105cf90612702565b600a82815481106108cb57634e487b7160e01b600052603260045260246000fd5b90600052602060002001549050919050565b600c5460ff1690565b6000806108f28361113f565b90506001600160a01b0381166104cf5760405162461bcd60e51b81526004016105cf9061262d565b600080610927600d61115a565b9050610933838261115e565b6104cf600d611253565b60006001600160a01b0382166109655760405162461bcd60e51b81526004016105cf906125af565b506001600160a01b031660009081526005602052604090205490565b6010546001600160a01b031681565b601360205260009081526040902080546109a990612912565b80601f01602080910402602001604051908101604052809291908181526020018280546109d590612912565b8015610a225780601f106109f757610100808354040283529160200191610a22565b820191906000526020600020905b815481529060010190602001808311610a0557829003601f168201915b505050505081565b610a567f65d7a28e3265b37a6474929f336521b332c1681b933f6cb9f3376673440d862a6103ff610ddd565b610a725760405162461bcd60e51b81526004016105cf906124ad565b61083261125c565b6000828152600160205260408120610a92908361129a565b9392505050565b6000918252602082815260408084206001600160a01b0393909316845291905290205460ff1690565b6060600380546104e690612912565b600081565b6107de610ae1610ddd565b83836112a6565b601460205260009081526040902080546109a990612912565b610b12610b0c610ddd565b83610e4f565b610b2e5760405162461bcd60e51b81526004016105cf90612347565b610b3a84848484611349565b50505050565b60156020528160005260406000208181548110610b5c57600080fd5b90600052602060002001600091509150505481565b600f546001600160a01b031681565b600081815260126020526040812080546060929190610b9e90612912565b905011610bb257610bad61137c565b6104cf565b60008281526012602052604090208054610bcb90612912565b80601f0160208091040260200160405190810160405280929190818152602001828054610bf790612912565b8015610c445780601f10610c1957610100808354040283529160200191610c44565b820191906000526020600020905b815481529060010190602001808311610c2757829003601f168201915b50505050509050919050565b60008181526001602052604081206104cf9061138b565b7f9f2df0fed2c77648de5860a4cc508cd0818c85b8b8a1ab4ceeef8d981c8956a681565b610c9482610716565b610c9d81610feb565b61062c838361101e565b7f65d7a28e3265b37a6474929f336521b332c1681b933f6cb9f3376673440d862a81565b6001600160a01b03918216600090815260076020908152604080832093909416825291909152205460ff1690565b610d038282610a99565b6107de576000828152602081815260408083206001600160a01b03851684529091529020805460ff19166001179055610d3a610ddd565b6001600160a01b0316816001600160a01b0316837f2f8788117e7eff1d82e926ec794901d17c78024a50270940304540a733656f0d60405160405180910390a45050565b6000610a92836001600160a01b038416611396565b60006001600160e01b0319821663780e9d6360e01b14806104cf57506104cf826113e0565b610dc181611420565b61087f5760405162461bcd60e51b81526004016105cf9061262d565b3390565b600081815260066020526040902080546001600160a01b0319166001600160a01b0384169081179091558190610e16826108e6565b6001600160a01b03167f8c5be1e5ebec7d5bd14f71427d1e84f3dd0314c0f7b2291e5b200ac8c7c3b92560405160405180910390a45050565b600080610e5b836108e6565b9050806001600160a01b0316846001600160a01b03161480610e825750610e828185610ccb565b80610ea65750836001600160a01b0316610e9b84610569565b6001600160a01b0316145b949350505050565b826001600160a01b0316610ec1826108e6565b6001600160a01b031614610ee75760405162461bcd60e51b81526004016105cf90612431565b6001600160a01b038216610f0d5760405162461bcd60e51b81526004016105cf9061250a565b610f1a838383600161143d565b826001600160a01b0316610f2d826108e6565b6001600160a01b031614610f535760405162461bcd60e51b81526004016105cf90612431565b600081815260066020908152604080832080546001600160a01b03199081169091556001600160a01b0387811680865260058552838620805460001901905590871680865283862080546001019055868652600490945282852080549092168417909155905184937fddf252ad1be2c89b69c2b068fc378daa952ba7f163c4a11628f55a4df523b3ef91a461062c8383836001610b3a565b61087f81610ff7610ddd565b611449565b6110068282610cf9565b600082815260016020526040902061062c9082610d7e565b61102882826114a2565b600082815260016020526040902061062c9082611525565b61104861153a565b600c805460ff191690557f5db9ee0a495bf2e6ff9c91a7834c1ba4fdd244a5e8aa4e537bd38aeae4b073aa61107b610ddd565b6040516110889190612221565b60405180910390a1565b600061109d826108e6565b90506110ad81600084600161143d565b6110b6826108e6565b600083815260066020908152604080832080546001600160a01b03199081169091556001600160a01b0385168085526005845282852080546000190190558785526004909352818420805490911690555192935084927fddf252ad1be2c89b69c2b068fc378daa952ba7f163c4a11628f55a4df523b3ef908390a46107de816000846001610b3a565b6000908152600460205260409020546001600160a01b031690565b5490565b6001600160a01b0382166111845760405162461bcd60e51b81526004016105cf906125f8565b61118d81611420565b156111aa5760405162461bcd60e51b81526004016105cf90612476565b6111b860008383600161143d565b6111c181611420565b156111de5760405162461bcd60e51b81526004016105cf90612476565b6001600160a01b038216600081815260056020908152604080832080546001019055848352600490915280822080546001600160a01b0319168417905551839291907fddf252ad1be2c89b69c2b068fc378daa952ba7f163c4a11628f55a4df523b3ef908290a46107de600083836001610b3a565b80546001019055565b61126461155e565b600c805460ff191660011790557f62e78cea01bee320cd4e420270b5ea74000d11b0c9f74754ebdbfc544b05a25861107b610ddd565b6000610a928383611583565b816001600160a01b0316836001600160a01b031614156112d85760405162461bcd60e51b81526004016105cf9061254e565b6001600160a01b0383811660008181526007602090815260408083209487168084529490915290819020805460ff1916851515179055517f17307eab39ab6107e8899845ad3d59bd9653f200f220920489ca2b5937696c319061133c908590612272565b60405180910390a3505050565b611354848484610eae565b611360848484846115bb565b610b3a5760405162461bcd60e51b81526004016105cf906123df565b6060600e80546104e690612912565b60006104cf8261115a565b60006113a283836116d6565b6113d857508154600181810184556000848152602080822090930184905584548482528286019093526040902091909155610796565b506000610796565b60006001600160e01b031982166380ac58cd60e01b148061141157506001600160e01b03198216635b5e139f60e01b145b806104cf57506104cf826116ee565b60008061142c8361113f565b6001600160a01b0316141592915050565b610b3a84848484611713565b6114538282610a99565b6107de5761146081611744565b61146b836020611756565b60405160200161147c9291906121ac565b60408051601f198184030181529082905262461bcd60e51b82526105cf91600401612286565b6114ac8282610a99565b156107de576000828152602081815260408083206001600160a01b03851684529091529020805460ff191690556114e1610ddd565b6001600160a01b0316816001600160a01b0316837ff6391f5c32d9c69d2a47ea670b442974b53935d1edc7fd64eb21e047a839171b60405160405180910390a45050565b6000610a92836001600160a01b038416611908565b6115426108dd565b6108325760405162461bcd60e51b81526004016105cf90612319565b6115666108dd565b156108325760405162461bcd60e51b81526004016105cf90612585565b60008260000182815481106115a857634e487b7160e01b600052603260045260246000fd5b9060005260206000200154905092915050565b60006115cf846001600160a01b0316611a25565b156116cb57836001600160a01b031663150b7a026115eb610ddd565b8786866040518563ffffffff1660e01b815260040161160d9493929190612235565b602060405180830381600087803b15801561162757600080fd5b505af1925050508015611657575060408051601f3d908101601f1916820190925261165491810190612164565b60015b6116b1573d808015611685576040519150601f19603f3d011682016040523d82523d6000602084013e61168a565b606091505b5080516116a95760405162461bcd60e51b81526004016105cf906123df565b805181602001fd5b6001600160e01b031916630a85bd0160e11b149050610ea6565b506001949350505050565b60009081526001919091016020526040902054151590565b60006001600160e01b03198216635a05180f60e01b14806104cf57506104cf82611a34565b61171f84848484611a59565b6117276108dd565b15610b3a5760405162461bcd60e51b81526004016105cf906122ce565b60606104cf6001600160a01b03831660145b60606000611765836002612899565b611770906002612881565b67ffffffffffffffff81111561179657634e487b7160e01b600052604160045260246000fd5b6040519080825280601f01601f1916602001820160405280156117c0576020820181803683370190505b509050600360fc1b816000815181106117e957634e487b7160e01b600052603260045260246000fd5b60200101906001600160f81b031916908160001a905350600f60fb1b8160018151811061182657634e487b7160e01b600052603260045260246000fd5b60200101906001600160f81b031916908160001a905350600061184a846002612899565b611855906001612881565b90505b60018111156118e9576f181899199a1a9b1b9c1cb0b131b232b360811b85600f166010811061189757634e487b7160e01b600052603260045260246000fd5b1a60f81b8282815181106118bb57634e487b7160e01b600052603260045260246000fd5b60200101906001600160f81b031916908160001a90535060049490941c936118e2816128fb565b9050611858565b508315610a925760405162461bcd60e51b81526004016105cf90612299565b60008181526001830160205260408120548015611a1b57600061192c6001836128b8565b8554909150600090611940906001906128b8565b90508181146119c157600086600001828154811061196e57634e487b7160e01b600052603260045260246000fd5b906000526020600020015490508087600001848154811061199f57634e487b7160e01b600052603260045260246000fd5b6000918252602080832090910192909255918252600188019052604090208390555b85548690806119e057634e487b7160e01b600052603160045260246000fd5b600190038181906000526020600020016000905590558560010160008681526020019081526020016000206000905560019350505050610796565b6000915050610796565b6001600160a01b03163b151590565b60006001600160e01b03198216637965db0b60e01b14806104cf57506104cf82611b0c565b611a6584848484610b3a565b6001811115611a865760405162461bcd60e51b81526004016105cf9061274e565b816001600160a01b038516611aa357611a9e81611b25565b611ac6565b836001600160a01b0316856001600160a01b031614611ac657611ac68582611b69565b6001600160a01b038416611ae257611add81611c06565b611b05565b846001600160a01b0316846001600160a01b031614611b0557611b058482611cdf565b5050505050565b6001600160e01b031981166301ffc9a760e01b14919050565b600a80546000838152600b60205260408120829055600182018355919091527fc65a7bb8d6351c1cf70c95a316cc6a92839c986682d98bc35f958f4883f9d2a80155565b60006001611b768461093d565b611b8091906128b8565b600083815260096020526040902054909150808214611bd3576001600160a01b03841660009081526008602090815260408083208584528252808320548484528184208190558352600990915290208190555b5060009182526009602090815260408084208490556001600160a01b039094168352600881528383209183525290812055565b600a54600090611c18906001906128b8565b6000838152600b6020526040812054600a8054939450909284908110611c4e57634e487b7160e01b600052603260045260246000fd5b9060005260206000200154905080600a8381548110611c7d57634e487b7160e01b600052603260045260246000fd5b6000918252602080832090910192909255828152600b9091526040808220849055858252812055600a805480611cc357634e487b7160e01b600052603160045260246000fd5b6001900381819060005260206000200160009055905550505050565b6000611cea8361093d565b6001600160a01b039093166000908152600860209081526040808320868452825280832085905593825260099052919091209190915550565b828054611d2f90612912565b90600052602060002090601f016020900481019282611d515760008555611d97565b82601f10611d6a57805160ff1916838001178555611d97565b82800160010185558215611d97579182015b82811115611d97578251825591602001919060010190611d7c565b50611da3929150611de1565b5090565b828054828255906000526020600020908101928215611d975791602002820182811115611d97578251825591602001919060010190611d7c565b5b80821115611da35760008155600101611de2565b80356001600160a01b03811681146104d257600080fd5b600082601f830112611e1d578081fd5b813567ffffffffffffffff811115611e3757611e37612963565b611e4a601f8201601f1916602001612850565b818152846020838601011115611e5e578283fd5b816020850160208301379081016020019190915292915050565b600060208284031215611e89578081fd5b610a9282611df6565b60008060408385031215611ea4578081fd5b611ead83611df6565b9150611ebb60208401611df6565b90509250929050565b600080600060608486031215611ed8578081fd5b611ee184611df6565b9250611eef60208501611df6565b9150604084013590509250925092565b60008060008060808587031215611f14578081fd5b611f1d85611df6565b9350611f2b60208601611df6565b925060408501359150606085013567ffffffffffffffff811115611f4d578182fd5b611f5987828801611e0d565b91505092959194509250565b60008060408385031215611f77578182fd5b611f8083611df6565b915060208301358015158114611f94578182fd5b809150509250929050565b600080600080600060a08688031215611fb6578081fd5b611fbf86611df6565b945060208087013567ffffffffffffffff80821115611fdc578384fd5b611fe88a838b01611e0d565b96506040890135915080821115611ffd578384fd5b6120098a838b01611e0d565b9550606089013591508082111561201e578384fd5b61202a8a838b01611e0d565b9450608089013591508082111561203f578384fd5b818901915089601f830112612052578384fd5b81358181111561206457612064612963565b8381029150612074848301612850565b8181528481019084860184860187018e101561208e578788fd5b8795505b838610156120b0578035835260019590950194918601918601612092565b508096505050505050509295509295909350565b600080604083850312156120d6578182fd5b6120df83611df6565b946020939093013593505050565b6000602082840312156120fe578081fd5b5035919050565b60008060408385031215612117578182fd5b82359150611ebb60208401611df6565b60008060408385031215612139578182fd5b50508035926020909101359150565b600060208284031215612159578081fd5b8135610a9281612979565b600060208284031215612175578081fd5b8151610a9281612979565b600081518084526121988160208601602086016128cf565b601f01601f19169290920160200192915050565b60007f416363657373436f6e74726f6c3a206163636f756e7420000000000000000000825283516121e48160178501602088016128cf565b7001034b99036b4b9b9b4b733903937b6329607d1b60179184019182015283516122158160288401602088016128cf565b01602801949350505050565b6001600160a01b0391909116815260200190565b6001600160a01b038581168252841660208201526040810183905260806060820181905260009061226890830184612180565b9695505050505050565b901515815260200190565b90815260200190565b600060208252610a926020830184612180565b6020808252818101527f537472696e67733a20686578206c656e67746820696e73756666696369656e74604082015260600190565b6020808252602b908201527f4552433732315061757361626c653a20746f6b656e207472616e73666572207760408201526a1a1a5b19481c185d5cd95960aa1b606082015260800190565b60208082526014908201527314185d5cd8589b194e881b9bdd081c185d5cd95960621b604082015260600190565b6020808252602d908201527f4552433732313a2063616c6c6572206973206e6f7420746f6b656e206f776e6560408201526c1c881bdc88185c1c1c9bdd9959609a1b606082015260800190565b6020808252602b908201527f455243373231456e756d657261626c653a206f776e657220696e646578206f7560408201526a74206f6620626f756e647360a81b606082015260800190565b60208082526032908201527f4552433732313a207472616e7366657220746f206e6f6e20455243373231526560408201527131b2b4bb32b91034b6b83632b6b2b73a32b960711b606082015260800190565b60208082526025908201527f4552433732313a207472616e736665722066726f6d20696e636f72726563742060408201526437bbb732b960d91b606082015260800190565b6020808252601c908201527f4552433732313a20746f6b656e20616c7265616479206d696e74656400000000604082015260600190565b6020808252603e908201527f4552433732315072657365744d696e7465725061757365724175746f49643a2060408201527f6d75737420686176652070617573657220726f6c6520746f2070617573650000606082015260800190565b60208082526024908201527f4552433732313a207472616e7366657220746f20746865207a65726f206164646040820152637265737360e01b606082015260800190565b60208082526019908201527f4552433732313a20617070726f766520746f2063616c6c657200000000000000604082015260600190565b60208082526010908201526f14185d5cd8589b194e881c185d5cd95960821b604082015260600190565b60208082526029908201527f4552433732313a2061646472657373207a65726f206973206e6f7420612076616040820152683634b21037bbb732b960b91b606082015260800190565b6020808252818101527f4552433732313a206d696e7420746f20746865207a65726f2061646472657373604082015260600190565b60208082526018908201527f4552433732313a20696e76616c696420746f6b656e2049440000000000000000604082015260600190565b60208082526021908201527f4552433732313a20617070726f76616c20746f2063757272656e74206f776e656040820152603960f91b606082015260800190565b6020808252603d908201527f4552433732313a20617070726f76652063616c6c6572206973206e6f7420746f60408201527f6b656e206f776e6572206f7220617070726f76656420666f7220616c6c000000606082015260800190565b6020808252602c908201527f455243373231456e756d657261626c653a20676c6f62616c20696e646578206f60408201526b7574206f6620626f756e647360a01b606082015260800190565b60208082526035908201527f455243373231456e756d657261626c653a20636f6e7365637574697665207472604082015274185b9cd9995c9cc81b9bdd081cdd5c1c1bdc9d1959605a1b606082015260800190565b602080825260409082018190527f4552433732315072657365744d696e7465725061757365724175746f49643a20908201527f6d75737420686176652070617573657220726f6c6520746f20756e7061757365606082015260800190565b6020808252602f908201527f416363657373436f6e74726f6c3a2063616e206f6e6c792072656e6f756e636560408201526e103937b632b9903337b91039b2b63360891b606082015260800190565b604051601f8201601f1916810167ffffffffffffffff8111828210171561287957612879612963565b604052919050565b600082198211156128945761289461294d565b500190565b60008160001904831182151516156128b3576128b361294d565b500290565b6000828210156128ca576128ca61294d565b500390565b60005b838110156128ea5781810151838201526020016128d2565b83811115610b3a5750506000910152565b60008161290a5761290a61294d565b506000190190565b60028104600182168061292657607f821691505b6020821081141561294757634e487b7160e01b600052602260045260246000fd5b50919050565b634e487b7160e01b600052601160045260246000fd5b634e487b7160e01b600052604160045260246000fd5b6001600160e01b03198116811461087f57600080fdfea2646970667358221220bfe310d35878e3aa5baa5add6893f05aae7440ffe1c2fc3f371ec7a377d44a0264736f6c63430008010033",
  "linkReferences": {},
  "deployedLinkReferences": {}
}