{
  "_format": "hh-sol-artifact-1",
  "contractName": "PolyNftRegistry",
  "sourceName": "contracts/PolyNftRegistry.sol",
  "abi": [
    {
      "anonymous": false,
      "inputs": [
        {
          "indexed": true,
          "internalType": "address",
          "name": "previousOwner",
          "type": "address"
        },
        {
          "indexed": true,
          "internalType": "address",
          "name": "newOwner",
          "type": "address"
        }
      ],
      "name": "OwnershipTransferred",
      "type": "event"
    },
    {
      "inputs": [],
      "name": "FEE_RATIO",
      "outputs": [
        {
          "internalType": "uint24",
          "name": "",
          "type": "uint24"
        }
      ],
      "stateMutability": "view",
      "type": "function"
    },
    {
      "inputs": [],
      "name": "MAX_FUSION_AMOUNT",
      "outputs": [
        {
          "internalType": "uint24",
          "name": "",
          "type": "uint24"
        }
      ],
      "stateMutability": "view",
      "type": "function"
    },
    {
      "inputs": [
        {
          "components": [
            {
              "internalType": "address",
              "name": "polyNftErc721",
              "type": "address"
            },
            {
              "internalType": "uint256",
              "name": "tokenId",
              "type": "uint256"
            },
            {
              "internalType": "uint256",
              "name": "fusionCost",
              "type": "uint256"
            },
            {
              "internalType": "uint256",
              "name": "timestamp",
              "type": "uint256"
            },
            {
              "internalType": "string",
              "name": "description",
              "type": "string"
            }
          ],
          "internalType": "struct PolyNftRegistry.OrderInfo",
          "name": "orderInfoArg",
          "type": "tuple"
        }
      ],
      "name": "deregister",
      "outputs": [],
      "stateMutability": "nonpayable",
      "type": "function"
    },
    {
      "inputs": [
        {
          "components": [
            {
              "internalType": "address",
              "name": "polyNftErc721",
              "type": "address"
            },
            {
              "internalType": "uint256",
              "name": "tokenId",
              "type": "uint256"
            },
            {
              "internalType": "uint256",
              "name": "fusionCost",
              "type": "uint256"
            },
            {
              "internalType": "uint256",
              "name": "timestamp",
              "type": "uint256"
            },
            {
              "internalType": "string",
              "name": "description",
              "type": "string"
            }
          ],
          "internalType": "struct PolyNftRegistry.OrderInfo[]",
          "name": "orderInfosArg",
          "type": "tuple[]"
        },
        {
          "internalType": "bytes",
          "name": "tokenURI",
          "type": "bytes"
        },
        {
          "internalType": "string",
          "name": "description",
          "type": "string"
        }
      ],
      "name": "fuse",
      "outputs": [],
      "stateMutability": "payable",
      "type": "function"
    },
    {
      "inputs": [
        {
          "internalType": "address",
          "name": "ownerArg",
          "type": "address"
        }
      ],
      "name": "getOrdersByOwner",
      "outputs": [
        {
          "components": [
            {
              "internalType": "address",
              "name": "polyNftErc721",
              "type": "address"
            },
            {
              "internalType": "uint256",
              "name": "tokenId",
              "type": "uint256"
            },
            {
              "internalType": "uint256",
              "name": "fusionCost",
              "type": "uint256"
            },
            {
              "internalType": "uint256",
              "name": "timestamp",
              "type": "uint256"
            },
            {
              "internalType": "string",
              "name": "description",
              "type": "string"
            }
          ],
          "internalType": "struct PolyNftRegistry.OrderInfo[]",
          "name": "",
          "type": "tuple[]"
        }
      ],
      "stateMutability": "view",
      "type": "function"
    },
    {
      "inputs": [
        {
          "internalType": "address",
          "name": "erc721",
          "type": "address"
        }
      ],
      "name": "getOrdersByPolyNftErc721",
      "outputs": [
        {
          "components": [
            {
              "internalType": "address",
              "name": "polyNftErc721",
              "type": "address"
            },
            {
              "internalType": "uint256",
              "name": "tokenId",
              "type": "uint256"
            },
            {
              "internalType": "uint256",
              "name": "fusionCost",
              "type": "uint256"
            },
            {
              "internalType": "uint256",
              "name": "timestamp",
              "type": "uint256"
            },
            {
              "internalType": "string",
              "name": "description",
              "type": "string"
            }
          ],
          "internalType": "struct PolyNftRegistry.OrderInfo[]",
          "name": "",
          "type": "tuple[]"
        }
      ],
      "stateMutability": "view",
      "type": "function"
    },
    {
      "inputs": [
        {
          "internalType": "address",
          "name": "",
          "type": "address"
        },
        {
          "internalType": "uint256",
          "name": "",
          "type": "uint256"
        }
      ],
      "name": "orderMapByOwner",
      "outputs": [
        {
          "internalType": "address",
          "name": "polyNftErc721",
          "type": "address"
        },
        {
          "internalType": "uint256",
          "name": "tokenId",
          "type": "uint256"
        },
        {
          "internalType": "uint256",
          "name": "fusionCost",
          "type": "uint256"
        },
        {
          "internalType": "uint256",
          "name": "timestamp",
          "type": "uint256"
        },
        {
          "internalType": "string",
          "name": "description",
          "type": "string"
        }
      ],
      "stateMutability": "view",
      "type": "function"
    },
    {
      "inputs": [
        {
          "internalType": "address",
          "name": "",
          "type": "address"
        },
        {
          "internalType": "uint256",
          "name": "",
          "type": "uint256"
        }
      ],
      "name": "orderMapByPolyNftErc721",
      "outputs": [
        {
          "internalType": "address",
          "name": "polyNftErc721",
          "type": "address"
        },
        {
          "internalType": "uint256",
          "name": "tokenId",
          "type": "uint256"
        },
        {
          "internalType": "uint256",
          "name": "fusionCost",
          "type": "uint256"
        },
        {
          "internalType": "uint256",
          "name": "timestamp",
          "type": "uint256"
        },
        {
          "internalType": "string",
          "name": "description",
          "type": "string"
        }
      ],
      "stateMutability": "view",
      "type": "function"
    },
    {
      "inputs": [],
      "name": "owner",
      "outputs": [
        {
          "internalType": "address",
          "name": "",
          "type": "address"
        }
      ],
      "stateMutability": "view",
      "type": "function"
    },
    {
      "inputs": [
        {
          "internalType": "bytes32",
          "name": "",
          "type": "bytes32"
        }
      ],
      "name": "ownerMapByOrderHash",
      "outputs": [
        {
          "internalType": "address",
          "name": "",
          "type": "address"
        }
      ],
      "stateMutability": "view",
      "type": "function"
    },
    {
      "inputs": [
        {
          "components": [
            {
              "internalType": "address",
              "name": "polyNftErc721",
              "type": "address"
            },
            {
              "internalType": "uint256",
              "name": "tokenId",
              "type": "uint256"
            },
            {
              "internalType": "uint256",
              "name": "fusionCost",
              "type": "uint256"
            },
            {
              "internalType": "uint256",
              "name": "timestamp",
              "type": "uint256"
            },
            {
              "internalType": "string",
              "name": "description",
              "type": "string"
            }
          ],
          "internalType": "struct PolyNftRegistry.OrderInfo",
          "name": "orderInfoArg",
          "type": "tuple"
        }
      ],
      "name": "register",
      "outputs": [],
      "stateMutability": "nonpayable",
      "type": "function"
    },
    {
      "inputs": [],
      "name": "renounceOwnership",
      "outputs": [],
      "stateMutability": "nonpayable",
      "type": "function"
    },
    {
      "inputs": [
        {
          "internalType": "address",
          "name": "newOwner",
          "type": "address"
        }
      ],
      "name": "transferOwnership",
      "outputs": [],
      "stateMutability": "nonpayable",
      "type": "function"
    }
  ],
  "bytecode": "0x608060405234801561001057600080fd5b5061002161001c610026565b61002a565b61007a565b3390565b600080546001600160a01b038381166001600160a01b0319831681178455604051919092169283917f8be0079c531659141344cd1fd0a4f28419497f9722a3daafe3b4186f6b6457e09190a35050565b611919806100896000396000f3fe6080604052600436106100c25760003560e01c80638da5cb5b1161007f578063f2fde38b11610059578063f2fde38b146101fc578063f99ddd731461021c578063f9e3c8941461023c578063fa447f621461025c576100c2565b80638da5cb5b146101b2578063ae2372af146101c7578063b83282da146101da576100c2565b80631a72d19b146100c75780631c63758d146101015780631fd5f06e146101235780635d3a556214610150578063715018a614610170578063816c71f314610185575b600080fd5b3480156100d357600080fd5b506100e76100e2366004611030565b610271565b6040516100f895949392919061135f565b60405180910390f35b34801561010d57600080fd5b5061012161011c3660046111dc565b610357565b005b34801561012f57600080fd5b5061014361013e36600461111b565b610566565b6040516100f89190611294565b34801561015c57600080fd5b506100e761016b366004611030565b610581565b34801561017c57600080fd5b5061012161059d565b34801561019157600080fd5b506101a56101a0366004610ff1565b6105b1565b6040516100f891906113f2565b3480156101be57600080fd5b506101436106ed565b6101216101d536600461105b565b6106fc565b3480156101e657600080fd5b506101ef610da1565b6040516100f8919061158a565b34801561020857600080fd5b50610121610217366004610ff1565b610da7565b34801561022857600080fd5b506101a5610237366004610ff1565b610de1565b34801561024857600080fd5b506101216102573660046111dc565b610dde565b34801561026857600080fd5b506101ef610f12565b6002602052816000526040600020818154811061028d57600080fd5b6000918252602090912060059091020180546001820154600283015460038401546004850180546001600160a01b039095169750929550909390929091906102d4906117a1565b80601f0160208091040260200160405190810160405280929190818152602001828054610300906117a1565b801561034d5780601f106103225761010080835404028352916020019161034d565b820191906000526020600020905b81548152906001019060200180831161033057829003601f168201915b5050505050905085565b336103656020830183610ff1565b6001600160a01b0316636352211e83602001356040518263ffffffff1660e01b8152600401610394919061159a565b60206040518083038186803b1580156103ac57600080fd5b505afa1580156103c0573d6000803e3d6000fd5b505050506040513d601f19601f820116820180604052508101906103e49190611014565b6001600160a01b0316146104135760405162461bcd60e51b815260040161040a9061156a565b60405180910390fd5b6104206020820182610ff1565b6001600160a01b03166323b872dd333084602001356040518463ffffffff1660e01b8152600401610453939291906112a8565b600060405180830381600087803b15801561046d57600080fd5b505af1158015610481573d6000803e3d6000fd5b505033600090815260026020908152604082208054600181018255908352912084935060059091020190506104b68282611836565b506001905060006104ca6020840184610ff1565b6001600160a01b03168152602080820192909252604001600090812080546001810182559082529190208291600502016105048282611836565b50600090506105166020830183610ff1565b82602001354260405160200161052e9392919061126a565b60408051601f19818403018152918152815160209283012060009081526003909252902080546001600160a01b031916331790555050565b6003602052600090815260409020546001600160a01b031681565b6001602052816000526040600020818154811061028d57600080fd5b6105a5610f17565b6105af6000610f56565b565b6001600160a01b0381166000908152600160209081526040808320805482518185028101850190935280835260609492939192909184015b828210156106e25760008481526020908190206040805160a0810182526005860290920180546001600160a01b0316835260018101549383019390935260028301549082015260038201546060820152600482018054919291608084019190610651906117a1565b80601f016020809104026020016040519081016040528092919081815260200182805461067d906117a1565b80156106ca5780601f1061069f576101008083540402835291602001916106ca565b820191906000526020600020905b8154815290600101906020018083116106ad57829003601f168201915b505050505081525050815260200190600101906105e9565b505050509050919050565b6000546001600160a01b031690565b84600a81111561071e5760405162461bcd60e51b815260040161040a906114f4565b6000808267ffffffffffffffff81111561074857634e487b7160e01b600052604160045260246000fd5b60405190808252806020026020018201604052801561077b57816020015b60608152602001906001900390816107665790505b50905060008367ffffffffffffffff8111156107a757634e487b7160e01b600052604160045260246000fd5b6040519080825280602002602001820160405280156107d0578160200160208202803683370190505b50905060005b84811015610bb7578a8a828181106107fe57634e487b7160e01b600052603260045260246000fd5b905060200281019061081091906115a3565b61081e9060400135856115ce565b93508a8a8281811061084057634e487b7160e01b600052603260045260246000fd5b905060200281019061085291906115a3565b610860906020810190610ff1565b6001600160a01b0316631f5caafb8c8c8481811061088e57634e487b7160e01b600052603260045260246000fd5b90506020028101906108a091906115a3565b602001356040518263ffffffff1660e01b81526004016108c0919061159a565b60006040518083038186803b1580156108d857600080fd5b505afa1580156108ec573d6000803e3d6000fd5b505050506040513d6000823e601f3d908101601f191682016040526109149190810190611133565b83828151811061093457634e487b7160e01b600052603260045260246000fd5b60200260200101819052508a8a8281811061095f57634e487b7160e01b600052603260045260246000fd5b905060200281019061097191906115a3565b6020013582828151811061099557634e487b7160e01b600052603260045260246000fd5b602002602001018181525050600360008c8c848181106109c557634e487b7160e01b600052603260045260246000fd5b90506020028101906109d791906115a3565b6109e5906020810190610ff1565b8d8d85818110610a0557634e487b7160e01b600052603260045260246000fd5b9050602002810190610a1791906115a3565b6020013542604051602001610a2e9392919061126a565b60408051601f19818403018152918152815160209283012083529082019290925201600020546001600160a01b03166108fc620f4240610a7061271082611625565b62ffffff168e8e86818110610a9557634e487b7160e01b600052603260045260246000fd5b9050602002810190610aa791906115a3565b60400135610ab59190611606565b610abf91906115e6565b6040518115909202916000818181858888f19350505050158015610ae7573d6000803e3d6000fd5b508015610ba7578a8a610afb600184611649565b818110610b1857634e487b7160e01b600052603260045260246000fd5b9050602002810190610b2a91906115a3565b610b38906020810190610ff1565b6001600160a01b03168b8b83818110610b6157634e487b7160e01b600052603260045260246000fd5b9050602002810190610b7391906115a3565b610b81906020810190610ff1565b6001600160a01b031614610ba75760405162461bcd60e51b815260040161040a90611515565b610bb0816117ef565b90506107d6565b5082341015610bd85760405162461bcd60e51b815260040161040a9061148d565b60008a8a6000818110610bfb57634e487b7160e01b600052603260045260246000fd5b9050602002810190610c0d91906115a3565b610c1b906020810190610ff1565b90506000816001600160a01b031663b5a25e586040518163ffffffff1660e01b815260040160206040518083038186803b158015610c5857600080fd5b505afa158015610c6c573d6000803e3d6000fd5b505050506040513d601f19601f82011682018060405250810190610c909190611014565b905060606001600160a01b03821615610d2857604051634604763160e11b81526001600160a01b03831690638c08ec6290610ccf908890600401611392565b600060405180830381600087803b158015610ce957600080fd5b505af1158015610cfd573d6000803e3d6000fd5b505050506040513d6000823e601f3d908101601f19168201604052610d259190810190611133565b90505b826001600160a01b03166387c84458338d8d858e8e8b6040518863ffffffff1660e01b8152600401610d6097969594939291906112cc565b600060405180830381600087803b158015610d7a57600080fd5b505af1158015610d8e573d6000803e3d6000fd5b5050505050505050505050505050505050565b61271081565b610daf610f17565b6001600160a01b038116610dd55760405162461bcd60e51b815260040161040a906114ae565b610dde81610f56565b50565b6001600160a01b0381166000908152600260209081526040808320805482518185028101850190935280835260609492939192909184015b828210156106e25760008481526020908190206040805160a0810182526005860290920180546001600160a01b0316835260018101549383019390935260028301549082015260038201546060820152600482018054919291608084019190610e81906117a1565b80601f0160208091040260200160405190810160405280929190818152602001828054610ead906117a1565b8015610efa5780601f10610ecf57610100808354040283529160200191610efa565b820191906000526020600020905b815481529060010190602001808311610edd57829003601f168201915b50505050508152505081526020019060010190610e19565b600a81565b610f1f610fa6565b6001600160a01b0316610f306106ed565b6001600160a01b0316146105af5760405162461bcd60e51b815260040161040a90611535565b600080546001600160a01b038381166001600160a01b0319831681178455604051919092169283917f8be0079c531659141344cd1fd0a4f28419497f9722a3daafe3b4186f6b6457e09190a35050565b3390565b60008083601f840112610fbb578182fd5b50813567ffffffffffffffff811115610fd2578182fd5b602083019150836020828501011115610fea57600080fd5b9250929050565b600060208284031215611002578081fd5b813561100d816118ce565b9392505050565b600060208284031215611025578081fd5b815161100d816118ce565b60008060408385031215611042578081fd5b823561104d816118ce565b946020939093013593505050565b60008060008060008060608789031215611073578182fd5b863567ffffffffffffffff8082111561108a578384fd5b818901915089601f83011261109d578384fd5b8135818111156110ab578485fd5b8a602080830285010111156110be578485fd5b6020928301985096509088013590808211156110d8578384fd5b6110e48a838b01610faa565b909650945060408901359150808211156110fc578384fd5b5061110989828a01610faa565b979a9699509497509295939492505050565b60006020828403121561112c578081fd5b5035919050565b600060208284031215611144578081fd5b815167ffffffffffffffff8082111561115b578283fd5b818401915084601f83011261116e578283fd5b81518181111561118057611180611820565b604051601f8201601f19908116603f011681019083821181831017156111a8576111a8611820565b816040528281528760208487010111156111c0578586fd5b6111d1836020830160208801611771565b979650505050505050565b6000602082840312156111ed578081fd5b813567ffffffffffffffff811115611203578182fd5b820160a0818503121561100d578182fd5b60008284528282602086013780602084860101526020601f19601f85011685010190509392505050565b60008151808452611256816020860160208601611771565b601f01601f19169290920160200192915050565b60609390931b6bffffffffffffffffffffffff191683526014830191909152603482015260540190565b6001600160a01b0391909116815260200190565b6001600160a01b039384168152919092166020820152604081019190915260600190565b6001600160a01b038816815260a060208083018290526000916112f2908401898b611214565b8381036040850152611304818961123e565b90508381036060850152611319818789611214565b84810360808601528551808252838701925090830190845b8181101561134d57835183529284019291840191600101611331565b50909c9b505050505050505050505050565b600060018060a01b038716825285602083015284604083015283606083015260a060808301526111d160a083018461123e565b6000602080830181845280855180835260408601915060408482028701019250838701855b828110156113e557603f198886030184526113d385835161123e565b945092850192908501906001016113b7565b5092979650505050505050565b60208082528251828201819052600091906040908185019080840286018301878501865b8381101561147f57888303603f19018552815180516001600160a01b03168452878101518885015286810151878501526060808201519085015260809081015160a09185018290529061146b8186018361123e565b968901969450505090860190600101611416565b509098975050505050505050565b6020808252600790820152660504e525f4e45560cc1b604082015260600190565b60208082526026908201527f4f776e61626c653a206e6577206f776e657220697320746865207a65726f206160408201526564647265737360d01b606082015260800190565b602080825260079082015266504e525f544d4f60c81b604082015260600190565b602080825260069082015265504e525f4e5360d01b604082015260600190565b6020808252818101527f4f776e61626c653a2063616c6c6572206973206e6f7420746865206f776e6572604082015260600190565b602080825260069082015265504e525f4e4f60d01b604082015260600190565b62ffffff91909116815260200190565b90815260200190565b60008235609e198336030181126115b8578182fd5b9190910192915050565b60009081526020902090565b600082198211156115e1576115e161180a565b500190565b60008261160157634e487b7160e01b81526012600452602481fd5b500490565b60008160001904831182151516156116205761162061180a565b500290565b600062ffffff838116908316818110156116415761164161180a565b039392505050565b60008282101561165b5761165b61180a565b500390565b5b818110156116755760008155600101611661565b5050565b67ffffffffffffffff83111561169157611691611820565b61169b81546117a1565b600080601f8611601f8411818117156116ba576116b7866115c2565b92505b80156116e9576020601f890104830160208910156116d55750825b6116e76020601f880104850182611660565b505b50806001811461171557600094508715611704578387013594505b61170e88866117dc565b8655611767565b601f198816945082845b8681101561173f578886013582556020958601956001909201910161171f565b508886101561175c57878501356000196008601f8c16021c191681555b506001600289020186555b5050505050505050565b60005b8381101561178c578181015183820152602001611774565b8381111561179b576000848401525b50505050565b6002810460018216806117b557607f821691505b602082108114156117d657634e487b7160e01b600052602260045260246000fd5b50919050565b600019600883021c191660029091021790565b60006000198214156118035761180361180a565b5060010190565b634e487b7160e01b600052601160045260246000fd5b634e487b7160e01b600052604160045260246000fd5b8135611841816118ce565b81546001600160a01b0319166001600160a01b0391909116178155602082013560018201556040820135600282015560608201356003820155608082013536839003601e1901811261189257600080fd5b8201803567ffffffffffffffff8111156118ab57600080fd5b6020820191508036038213156118c057600080fd5b61179b818360048601611679565b6001600160a01b0381168114610dde57600080fdfea2646970667358221220bf0c53e2d0484e1898d6082be71c9bd39dea7fadbc31961ea28c42b2dcdbba8a64736f6c63430008010033",
  "linkReferences": {},
  "deployedLinkReferences": {}
}