{
  "_format": "hh-sol-artifact-1",
  "contractName": "PolyNftRegistry",
  "sourceName": "contracts/PolyNftRegistry.sol",
  "abi": [
    {
      "anonymous": false,
      "inputs": [
        {
          "indexed": true,
          "internalType": "address",
          "name": "previousOwner",
          "type": "address"
        },
        {
          "indexed": true,
          "internalType": "address",
          "name": "newOwner",
          "type": "address"
        }
      ],
      "name": "OwnershipTransferred",
      "type": "event"
    },
    {
      "inputs": [
        {
          "components": [
            {
              "internalType": "address",
              "name": "polyNftErc721",
              "type": "address"
            },
            {
              "internalType": "uint256",
              "name": "tokenId",
              "type": "uint256"
            },
            {
              "internalType": "uint256",
              "name": "fusionCost",
              "type": "uint256"
            },
            {
              "internalType": "uint256",
              "name": "timestamp",
              "type": "uint256"
            },
            {
              "internalType": "string",
              "name": "description",
              "type": "string"
            }
          ],
          "internalType": "struct PolyNftRegistry.OrderInfo",
          "name": "orderInfoArg",
          "type": "tuple"
        }
      ],
      "name": "deregister",
      "outputs": [],
      "stateMutability": "nonpayable",
      "type": "function"
    },
    {
      "inputs": [
        {
          "components": [
            {
              "internalType": "address",
              "name": "polyNftErc721",
              "type": "address"
            },
            {
              "internalType": "uint256",
              "name": "tokenId",
              "type": "uint256"
            },
            {
              "internalType": "uint256",
              "name": "fusionCost",
              "type": "uint256"
            },
            {
              "internalType": "uint256",
              "name": "timestamp",
              "type": "uint256"
            },
            {
              "internalType": "string",
              "name": "description",
              "type": "string"
            }
          ],
          "internalType": "struct PolyNftRegistry.OrderInfo[]",
          "name": "orderInfosArg",
          "type": "tuple[]"
        },
        {
          "internalType": "bytes",
          "name": "tokenURI",
          "type": "bytes"
        },
        {
          "internalType": "string",
          "name": "description",
          "type": "string"
        }
      ],
      "name": "fuse",
      "outputs": [],
      "stateMutability": "payable",
      "type": "function"
    },
    {
      "inputs": [
        {
          "internalType": "bytes32",
          "name": "",
          "type": "bytes32"
        }
      ],
      "name": "orderInfoHashMap",
      "outputs": [
        {
          "internalType": "address",
          "name": "",
          "type": "address"
        }
      ],
      "stateMutability": "view",
      "type": "function"
    },
    {
      "inputs": [
        {
          "internalType": "address",
          "name": "",
          "type": "address"
        },
        {
          "internalType": "uint256",
          "name": "",
          "type": "uint256"
        }
      ],
      "name": "orderMap",
      "outputs": [
        {
          "internalType": "address",
          "name": "polyNftErc721",
          "type": "address"
        },
        {
          "internalType": "uint256",
          "name": "tokenId",
          "type": "uint256"
        },
        {
          "internalType": "uint256",
          "name": "fusionCost",
          "type": "uint256"
        },
        {
          "internalType": "uint256",
          "name": "timestamp",
          "type": "uint256"
        },
        {
          "internalType": "string",
          "name": "description",
          "type": "string"
        }
      ],
      "stateMutability": "view",
      "type": "function"
    },
    {
      "inputs": [],
      "name": "owner",
      "outputs": [
        {
          "internalType": "address",
          "name": "",
          "type": "address"
        }
      ],
      "stateMutability": "view",
      "type": "function"
    },
    {
      "inputs": [
        {
          "internalType": "address",
          "name": "",
          "type": "address"
        },
        {
          "internalType": "uint256",
          "name": "",
          "type": "uint256"
        }
      ],
      "name": "polyNftErc721OrderMap",
      "outputs": [
        {
          "internalType": "address",
          "name": "polyNftErc721",
          "type": "address"
        },
        {
          "internalType": "uint256",
          "name": "tokenId",
          "type": "uint256"
        },
        {
          "internalType": "uint256",
          "name": "fusionCost",
          "type": "uint256"
        },
        {
          "internalType": "uint256",
          "name": "timestamp",
          "type": "uint256"
        },
        {
          "internalType": "string",
          "name": "description",
          "type": "string"
        }
      ],
      "stateMutability": "view",
      "type": "function"
    },
    {
      "inputs": [
        {
          "components": [
            {
              "internalType": "address",
              "name": "polyNftErc721",
              "type": "address"
            },
            {
              "internalType": "uint256",
              "name": "tokenId",
              "type": "uint256"
            },
            {
              "internalType": "uint256",
              "name": "fusionCost",
              "type": "uint256"
            },
            {
              "internalType": "uint256",
              "name": "timestamp",
              "type": "uint256"
            },
            {
              "internalType": "string",
              "name": "description",
              "type": "string"
            }
          ],
          "internalType": "struct PolyNftRegistry.OrderInfo",
          "name": "orderInfoArg",
          "type": "tuple"
        }
      ],
      "name": "register",
      "outputs": [],
      "stateMutability": "nonpayable",
      "type": "function"
    },
    {
      "inputs": [],
      "name": "renounceOwnership",
      "outputs": [],
      "stateMutability": "nonpayable",
      "type": "function"
    },
    {
      "inputs": [
        {
          "internalType": "address",
          "name": "newOwner",
          "type": "address"
        }
      ],
      "name": "transferOwnership",
      "outputs": [],
      "stateMutability": "nonpayable",
      "type": "function"
    }
  ],
  "bytecode": "0x608060405234801561001057600080fd5b5061002161001c610026565b61002a565b61007a565b3390565b600080546001600160a01b038381166001600160a01b0319831681178455604051919092169283917f8be0079c531659141344cd1fd0a4f28419497f9722a3daafe3b4186f6b6457e09190a35050565b611536806100896000396000f3fe6080604052600436106100865760003560e01c8063ae2372af11610059578063ae2372af1461011e578063bf1250b314610131578063f138324f14610151578063f2fde38b14610171578063f9e3c8941461019157610086565b80631c63758d1461008b5780632df7fb92146100ad578063715018a6146100e75780638da5cb5b146100fc575b600080fd5b34801561009757600080fd5b506100ab6100a6366004610ea4565b6101b1565b005b3480156100b957600080fd5b506100cd6100c8366004610cf8565b6103c0565b6040516100de959493929190611027565b60405180910390f35b3480156100f357600080fd5b506100ab6104a6565b34801561010857600080fd5b506101116104ba565b6040516100de9190610f5c565b6100ab61012c366004610d23565b6104c9565b34801561013d57600080fd5b506100cd61014c366004610cf8565b610b6e565b34801561015d57600080fd5b5061011161016c366004610de3565b610b8a565b34801561017d57600080fd5b506100ab61018c366004610cb9565b610ba5565b34801561019d57600080fd5b506100ab6101ac366004610ea4565b610bdc565b336101bf6020830183610cb9565b6001600160a01b0316636352211e83602001356040518263ffffffff1660e01b81526004016101ee91906111b7565b60206040518083038186803b15801561020657600080fd5b505afa15801561021a573d6000803e3d6000fd5b505050506040513d601f19601f8201168201806040525081019061023e9190610cdc565b6001600160a01b03161461026d5760405162461bcd60e51b815260040161026490611197565b60405180910390fd5b61027a6020820182610cb9565b6001600160a01b03166323b872dd333084602001356040518463ffffffff1660e01b81526004016102ad93929190610f70565b600060405180830381600087803b1580156102c757600080fd5b505af11580156102db573d6000803e3d6000fd5b505033600090815260026020908152604082208054600181018255908352912084935060059091020190506103108282611453565b506001905060006103246020840184610cb9565b6001600160a01b031681526020808201929092526040016000908120805460018101825590825291902082916005020161035e8282611453565b50600090506103706020830183610cb9565b82602001354260405160200161038893929190610f32565b60408051601f19818403018152918152815160209283012060009081526003909252902080546001600160a01b031916331790555050565b600260205281600052604060002081815481106103dc57600080fd5b6000918252602090912060059091020180546001820154600283015460038401546004850180546001600160a01b03909516975092955090939092909190610423906113be565b80601f016020809104026020016040519081016040528092919081815260200182805461044f906113be565b801561049c5780601f106104715761010080835404028352916020019161049c565b820191906000526020600020905b81548152906001019060200180831161047f57829003601f168201915b5050505050905085565b6104ae610bdf565b6104b86000610c1e565b565b6000546001600160a01b031690565b84600a8111156104eb5760405162461bcd60e51b815260040161026490611121565b6000808267ffffffffffffffff81111561051557634e487b7160e01b600052604160045260246000fd5b60405190808252806020026020018201604052801561054857816020015b60608152602001906001900390816105335790505b50905060008367ffffffffffffffff81111561057457634e487b7160e01b600052604160045260246000fd5b60405190808252806020026020018201604052801561059d578160200160208202803683370190505b50905060005b84811015610984578a8a828181106105cb57634e487b7160e01b600052603260045260246000fd5b90506020028101906105dd91906111c0565b6105eb9060400135856111eb565b93508a8a8281811061060d57634e487b7160e01b600052603260045260246000fd5b905060200281019061061f91906111c0565b61062d906020810190610cb9565b6001600160a01b0316631f5caafb8c8c8481811061065b57634e487b7160e01b600052603260045260246000fd5b905060200281019061066d91906111c0565b602001356040518263ffffffff1660e01b815260040161068d91906111b7565b60006040518083038186803b1580156106a557600080fd5b505afa1580156106b9573d6000803e3d6000fd5b505050506040513d6000823e601f3d908101601f191682016040526106e19190810190610dfb565b83828151811061070157634e487b7160e01b600052603260045260246000fd5b60200260200101819052508a8a8281811061072c57634e487b7160e01b600052603260045260246000fd5b905060200281019061073e91906111c0565b6020013582828151811061076257634e487b7160e01b600052603260045260246000fd5b602002602001018181525050600360008c8c8481811061079257634e487b7160e01b600052603260045260246000fd5b90506020028101906107a491906111c0565b6107b2906020810190610cb9565b8d8d858181106107d257634e487b7160e01b600052603260045260246000fd5b90506020028101906107e491906111c0565b60200135426040516020016107fb93929190610f32565b60408051601f19818403018152918152815160209283012083529082019290925201600020546001600160a01b03166108fc620f424061083d61271082611242565b62ffffff168e8e8681811061086257634e487b7160e01b600052603260045260246000fd5b905060200281019061087491906111c0565b604001356108829190611223565b61088c9190611203565b6040518115909202916000818181858888f193505050501580156108b4573d6000803e3d6000fd5b508015610974578a8a6108c8600184611266565b8181106108e557634e487b7160e01b600052603260045260246000fd5b90506020028101906108f791906111c0565b610905906020810190610cb9565b6001600160a01b03168b8b8381811061092e57634e487b7160e01b600052603260045260246000fd5b905060200281019061094091906111c0565b61094e906020810190610cb9565b6001600160a01b0316146109745760405162461bcd60e51b815260040161026490611142565b61097d8161140c565b90506105a3565b50823410156109a55760405162461bcd60e51b8152600401610264906110ba565b60008a8a60008181106109c857634e487b7160e01b600052603260045260246000fd5b90506020028101906109da91906111c0565b6109e8906020810190610cb9565b90506000816001600160a01b031663b5a25e586040518163ffffffff1660e01b815260040160206040518083038186803b158015610a2557600080fd5b505afa158015610a39573d6000803e3d6000fd5b505050506040513d601f19601f82011682018060405250810190610a5d9190610cdc565b905060606001600160a01b03821615610af557604051634604763160e11b81526001600160a01b03831690638c08ec6290610a9c90889060040161105a565b600060405180830381600087803b158015610ab657600080fd5b505af1158015610aca573d6000803e3d6000fd5b505050506040513d6000823e601f3d908101601f19168201604052610af29190810190610dfb565b90505b826001600160a01b03166387c84458338d8d858e8e8b6040518863ffffffff1660e01b8152600401610b2d9796959493929190610f94565b600060405180830381600087803b158015610b4757600080fd5b505af1158015610b5b573d6000803e3d6000fd5b5050505050505050505050505050505050565b600160205281600052604060002081815481106103dc57600080fd5b6003602052600090815260409020546001600160a01b031681565b610bad610bdf565b6001600160a01b038116610bd35760405162461bcd60e51b8152600401610264906110db565b610bdc81610c1e565b50565b610be7610c6e565b6001600160a01b0316610bf86104ba565b6001600160a01b0316146104b85760405162461bcd60e51b815260040161026490611162565b600080546001600160a01b038381166001600160a01b0319831681178455604051919092169283917f8be0079c531659141344cd1fd0a4f28419497f9722a3daafe3b4186f6b6457e09190a35050565b3390565b60008083601f840112610c83578182fd5b50813567ffffffffffffffff811115610c9a578182fd5b602083019150836020828501011115610cb257600080fd5b9250929050565b600060208284031215610cca578081fd5b8135610cd5816114eb565b9392505050565b600060208284031215610ced578081fd5b8151610cd5816114eb565b60008060408385031215610d0a578081fd5b8235610d15816114eb565b946020939093013593505050565b60008060008060008060608789031215610d3b578182fd5b863567ffffffffffffffff80821115610d52578384fd5b818901915089601f830112610d65578384fd5b813581811115610d73578485fd5b8a60208083028501011115610d86578485fd5b602092830198509650908801359080821115610da0578384fd5b610dac8a838b01610c72565b90965094506040890135915080821115610dc4578384fd5b50610dd189828a01610c72565b979a9699509497509295939492505050565b600060208284031215610df4578081fd5b5035919050565b600060208284031215610e0c578081fd5b815167ffffffffffffffff80821115610e23578283fd5b818401915084601f830112610e36578283fd5b815181811115610e4857610e4861143d565b604051601f8201601f19908116603f01168101908382118183101715610e7057610e7061143d565b81604052828152876020848701011115610e88578586fd5b610e9983602083016020880161138e565b979650505050505050565b600060208284031215610eb5578081fd5b813567ffffffffffffffff811115610ecb578182fd5b820160a08185031215610cd5578182fd5b60008284528282602086013780602084860101526020601f19601f85011685010190509392505050565b60008151808452610f1e81602086016020860161138e565b601f01601f19169290920160200192915050565b60609390931b6bffffffffffffffffffffffff191683526014830191909152603482015260540190565b6001600160a01b0391909116815260200190565b6001600160a01b039384168152919092166020820152604081019190915260600190565b6001600160a01b038816815260a06020808301829052600091610fba908401898b610edc565b8381036040850152610fcc8189610f06565b90508381036060850152610fe1818789610edc565b84810360808601528551808252838701925090830190845b8181101561101557835183529284019291840191600101610ff9565b50909c9b505050505050505050505050565b600060018060a01b038716825285602083015284604083015283606083015260a06080830152610e9960a0830184610f06565b6000602080830181845280855180835260408601915060408482028701019250838701855b828110156110ad57603f1988860301845261109b858351610f06565b9450928501929085019060010161107f565b5092979650505050505050565b6020808252600790820152660504e525f4e45560cc1b604082015260600190565b60208082526026908201527f4f776e61626c653a206e6577206f776e657220697320746865207a65726f206160408201526564647265737360d01b606082015260800190565b602080825260079082015266504e525f544d4f60c81b604082015260600190565b602080825260069082015265504e525f4e5360d01b604082015260600190565b6020808252818101527f4f776e61626c653a2063616c6c6572206973206e6f7420746865206f776e6572604082015260600190565b602080825260069082015265504e525f4e4f60d01b604082015260600190565b90815260200190565b60008235609e198336030181126111d5578182fd5b9190910192915050565b60009081526020902090565b600082198211156111fe576111fe611427565b500190565b60008261121e57634e487b7160e01b81526012600452602481fd5b500490565b600081600019048311821515161561123d5761123d611427565b500290565b600062ffffff8381169083168181101561125e5761125e611427565b039392505050565b60008282101561127857611278611427565b500390565b5b81811015611292576000815560010161127e565b5050565b67ffffffffffffffff8311156112ae576112ae61143d565b6112b881546113be565b600080601f8611601f8411818117156112d7576112d4866111df565b92505b8015611306576020601f890104830160208910156112f25750825b6113046020601f88010485018261127d565b505b50806001811461133257600094508715611321578387013594505b61132b88866113f9565b8655611384565b601f198816945082845b8681101561135c578886013582556020958601956001909201910161133c565b508886101561137957878501356000196008601f8c16021c191681555b506001600289020186555b5050505050505050565b60005b838110156113a9578181015183820152602001611391565b838111156113b8576000848401525b50505050565b6002810460018216806113d257607f821691505b602082108114156113f357634e487b7160e01b600052602260045260246000fd5b50919050565b600019600883021c191660029091021790565b600060001982141561142057611420611427565b5060010190565b634e487b7160e01b600052601160045260246000fd5b634e487b7160e01b600052604160045260246000fd5b813561145e816114eb565b81546001600160a01b0319166001600160a01b0391909116178155602082013560018201556040820135600282015560608201356003820155608082013536839003601e190181126114af57600080fd5b8201803567ffffffffffffffff8111156114c857600080fd5b6020820191508036038213156114dd57600080fd5b6113b8818360048601611296565b6001600160a01b0381168114610bdc57600080fdfea26469706673582212207a7468c1b40b80a743ac27fc5498a3ac7cab9aff5fe7686012c830486649deee64736f6c63430008010033",
  "linkReferences": {},
  "deployedLinkReferences": {}
}