{
  "_format": "hh-sol-artifact-1",
  "contractName": "PolyNftRegistry",
  "sourceName": "contracts/PolyNftRegistry.sol",
  "abi": [
    {
      "anonymous": false,
      "inputs": [
        {
          "indexed": true,
          "internalType": "address",
          "name": "previousOwner",
          "type": "address"
        },
        {
          "indexed": true,
          "internalType": "address",
          "name": "newOwner",
          "type": "address"
        }
      ],
      "name": "OwnershipTransferred",
      "type": "event"
    },
    {
      "inputs": [],
      "name": "FEE_RATIO",
      "outputs": [
        {
          "internalType": "uint24",
          "name": "",
          "type": "uint24"
        }
      ],
      "stateMutability": "view",
      "type": "function"
    },
    {
      "inputs": [],
      "name": "MAX_FUSION_AMOUNT",
      "outputs": [
        {
          "internalType": "uint24",
          "name": "",
          "type": "uint24"
        }
      ],
      "stateMutability": "view",
      "type": "function"
    },
    {
      "inputs": [
        {
          "components": [
            {
              "internalType": "address",
              "name": "polyNftErc721",
              "type": "address"
            },
            {
              "internalType": "uint256",
              "name": "tokenId",
              "type": "uint256"
            }
          ],
          "internalType": "struct PolyNftRegistry.DeRegisterInputParam",
          "name": "deRegisterInputArg",
          "type": "tuple"
        }
      ],
      "name": "deregister",
      "outputs": [],
      "stateMutability": "nonpayable",
      "type": "function"
    },
    {
      "inputs": [
        {
          "components": [
            {
              "internalType": "address",
              "name": "polyNftErc721",
              "type": "address"
            },
            {
              "internalType": "uint256",
              "name": "tokenId",
              "type": "uint256"
            },
            {
              "internalType": "uint256",
              "name": "fusionCost",
              "type": "uint256"
            },
            {
              "internalType": "uint256",
              "name": "timestamp",
              "type": "uint256"
            },
            {
              "internalType": "string",
              "name": "description",
              "type": "string"
            }
          ],
          "internalType": "struct PolyNftRegistry.OrderInfo[]",
          "name": "orderInfosArg",
          "type": "tuple[]"
        },
        {
          "internalType": "string",
          "name": "tokenURI",
          "type": "string"
        },
        {
          "internalType": "string",
          "name": "description",
          "type": "string"
        }
      ],
      "name": "fuse",
      "outputs": [],
      "stateMutability": "payable",
      "type": "function"
    },
    {
      "inputs": [
        {
          "internalType": "address",
          "name": "ownerArg",
          "type": "address"
        }
      ],
      "name": "getOrdersByOwner",
      "outputs": [
        {
          "components": [
            {
              "internalType": "address",
              "name": "polyNftErc721",
              "type": "address"
            },
            {
              "internalType": "uint256",
              "name": "tokenId",
              "type": "uint256"
            },
            {
              "internalType": "uint256",
              "name": "fusionCost",
              "type": "uint256"
            },
            {
              "internalType": "uint256",
              "name": "timestamp",
              "type": "uint256"
            },
            {
              "internalType": "string",
              "name": "description",
              "type": "string"
            }
          ],
          "internalType": "struct PolyNftRegistry.OrderInfo[]",
          "name": "",
          "type": "tuple[]"
        }
      ],
      "stateMutability": "view",
      "type": "function"
    },
    {
      "inputs": [
        {
          "internalType": "address",
          "name": "erc721",
          "type": "address"
        }
      ],
      "name": "getOrdersInfoByPolyNftErc721",
      "outputs": [
        {
          "components": [
            {
              "internalType": "uint256",
              "name": "tokenId",
              "type": "uint256"
            },
            {
              "internalType": "string",
              "name": "tokenURI",
              "type": "string"
            },
            {
              "internalType": "bytes",
              "name": "attribute",
              "type": "bytes"
            },
            {
              "internalType": "string",
              "name": "description",
              "type": "string"
            },
            {
              "internalType": "uint256[]",
              "name": "fusionSourceTokenIds",
              "type": "uint256[]"
            },
            {
              "internalType": "address",
              "name": "polyNftErc721",
              "type": "address"
            },
            {
              "internalType": "uint256",
              "name": "fusionCost",
              "type": "uint256"
            },
            {
              "internalType": "uint256",
              "name": "timestamp",
              "type": "uint256"
            }
          ],
          "internalType": "struct PolyNftRegistry.GetOrderInfoReturnParam[]",
          "name": "",
          "type": "tuple[]"
        }
      ],
      "stateMutability": "view",
      "type": "function"
    },
    {
      "inputs": [
        {
          "internalType": "address",
          "name": "",
          "type": "address"
        },
        {
          "internalType": "uint256",
          "name": "",
          "type": "uint256"
        }
      ],
      "name": "orderMapByOwner",
      "outputs": [
        {
          "internalType": "address",
          "name": "polyNftErc721",
          "type": "address"
        },
        {
          "internalType": "uint256",
          "name": "tokenId",
          "type": "uint256"
        },
        {
          "internalType": "uint256",
          "name": "fusionCost",
          "type": "uint256"
        },
        {
          "internalType": "uint256",
          "name": "timestamp",
          "type": "uint256"
        },
        {
          "internalType": "string",
          "name": "description",
          "type": "string"
        }
      ],
      "stateMutability": "view",
      "type": "function"
    },
    {
      "inputs": [
        {
          "internalType": "address",
          "name": "",
          "type": "address"
        },
        {
          "internalType": "uint256",
          "name": "",
          "type": "uint256"
        }
      ],
      "name": "orderMapByPolyNftErc721",
      "outputs": [
        {
          "internalType": "address",
          "name": "polyNftErc721",
          "type": "address"
        },
        {
          "internalType": "uint256",
          "name": "tokenId",
          "type": "uint256"
        },
        {
          "internalType": "uint256",
          "name": "fusionCost",
          "type": "uint256"
        },
        {
          "internalType": "uint256",
          "name": "timestamp",
          "type": "uint256"
        },
        {
          "internalType": "string",
          "name": "description",
          "type": "string"
        }
      ],
      "stateMutability": "view",
      "type": "function"
    },
    {
      "inputs": [],
      "name": "owner",
      "outputs": [
        {
          "internalType": "address",
          "name": "",
          "type": "address"
        }
      ],
      "stateMutability": "view",
      "type": "function"
    },
    {
      "inputs": [
        {
          "internalType": "bytes32",
          "name": "",
          "type": "bytes32"
        }
      ],
      "name": "ownerMapByOrderHash",
      "outputs": [
        {
          "internalType": "address",
          "name": "",
          "type": "address"
        }
      ],
      "stateMutability": "view",
      "type": "function"
    },
    {
      "inputs": [
        {
          "components": [
            {
              "internalType": "address",
              "name": "polyNftErc721",
              "type": "address"
            },
            {
              "internalType": "uint256",
              "name": "tokenId",
              "type": "uint256"
            },
            {
              "internalType": "uint256",
              "name": "fusionCost",
              "type": "uint256"
            },
            {
              "internalType": "string",
              "name": "description",
              "type": "string"
            }
          ],
          "internalType": "struct PolyNftRegistry.RegisterInputParam",
          "name": "registerInputArg",
          "type": "tuple"
        }
      ],
      "name": "register",
      "outputs": [],
      "stateMutability": "nonpayable",
      "type": "function"
    },
    {
      "inputs": [],
      "name": "renounceOwnership",
      "outputs": [],
      "stateMutability": "nonpayable",
      "type": "function"
    },
    {
      "inputs": [
        {
          "internalType": "address",
          "name": "newOwner",
          "type": "address"
        }
      ],
      "name": "transferOwnership",
      "outputs": [],
      "stateMutability": "nonpayable",
      "type": "function"
    }
  ],
  "bytecode": "0x608060405234801561001057600080fd5b5061002161001c610026565b61002a565b61007a565b3390565b600080546001600160a01b038381166001600160a01b0319831681178455604051919092169283917f8be0079c531659141344cd1fd0a4f28419497f9722a3daafe3b4186f6b6457e09190a35050565b611d90806100896000396000f3fe6080604052600436106100c25760003560e01c80638da5cb5b1161007f578063f2fde38b11610059578063f2fde38b146101fc578063f6f109261461021c578063f99ddd731461023c578063fa447f6214610269576100c2565b80638da5cb5b14610198578063b83282da146101ad578063c3eccfe4146101cf576100c2565b806318b0b570146100c75780631a72d19b146100dc5780631fd5f06e14610116578063552e7a5d146101435780635d3a556214610163578063715018a614610183575b600080fd5b6100da6100d53660046114dd565b61027e565b005b3480156100e857600080fd5b506100fc6100f73660046114b2565b610961565b60405161010d959493929190611866565b60405180910390f35b34801561012257600080fd5b50610136610131366004611644565b610a47565b60405161010d91906117c0565b34801561014f57600080fd5b506100da61015e3660046116c1565b610a62565b34801561016f57600080fd5b506100fc61017e3660046114b2565b610cb6565b34801561018f57600080fd5b506100da610cd2565b3480156101a457600080fd5b50610136610ce6565b3480156101b957600080fd5b506101c2610cf5565b60405161010d9190611b59565b3480156101db57600080fd5b506101ef6101ea36600461147a565b610cfb565b60405161010d9190611904565b34801561020857600080fd5b506100da61021736600461147a565b6110e8565b34801561022857600080fd5b506100da6102373660046116aa565b61111f565b34801561024857600080fd5b5061025c61025736600461147a565b611122565b60405161010d91906119ef565b34801561027557600080fd5b506101c261125e565b84600a8111156102a95760405162461bcd60e51b81526004016102a090611ae3565b60405180910390fd5b6000808267ffffffffffffffff8111156102d357634e487b7160e01b600052604160045260246000fd5b60405190808252806020026020018201604052801561030657816020015b60608152602001906001900390816102f15790505b50905060008367ffffffffffffffff81111561033257634e487b7160e01b600052604160045260246000fd5b60405190808252806020026020018201604052801561035b578160200160208202803683370190505b50905060005b84811015610777578a8a8281811061038957634e487b7160e01b600052603260045260246000fd5b905060200281019061039b9190611bb7565b6103a9906040013585611c07565b93508a8a828181106103cb57634e487b7160e01b600052603260045260246000fd5b90506020028101906103dd9190611bb7565b6103eb90602081019061147a565b6001600160a01b0316631f5caafb8c8c8481811061041957634e487b7160e01b600052603260045260246000fd5b905060200281019061042b9190611bb7565b602001356040518263ffffffff1660e01b815260040161044b9190611b69565b60006040518083038186803b15801561046357600080fd5b505afa158015610477573d6000803e3d6000fd5b505050506040513d6000823e601f3d908101601f1916820160405261049f919081019061165c565b8382815181106104bf57634e487b7160e01b600052603260045260246000fd5b60200260200101819052508a8a828181106104ea57634e487b7160e01b600052603260045260246000fd5b90506020028101906104fc9190611bb7565b6020013582828151811061052057634e487b7160e01b600052603260045260246000fd5b602002602001018181525050600360008c8c8481811061055057634e487b7160e01b600052603260045260246000fd5b90506020028101906105629190611bb7565b61057090602081019061147a565b8d8d8581811061059057634e487b7160e01b600052603260045260246000fd5b90506020028101906105a29190611bb7565b602001358e8e868181106105c657634e487b7160e01b600052603260045260246000fd5b90506020028101906105d89190611bb7565b606001356040516020016105ee93929190611796565b60408051601f19818403018152918152815160209283012083529082019290925201600020546001600160a01b03166108fc620f424061063061271082611c5e565b62ffffff168e8e8681811061065557634e487b7160e01b600052603260045260246000fd5b90506020028101906106679190611bb7565b604001356106759190611c3f565b61067f9190611c1f565b6040518115909202916000818181858888f193505050501580156106a7573d6000803e3d6000fd5b508015610767578a8a6106bb600184611c82565b8181106106d857634e487b7160e01b600052603260045260246000fd5b90506020028101906106ea9190611bb7565b6106f890602081019061147a565b6001600160a01b03168b8b8381811061072157634e487b7160e01b600052603260045260246000fd5b90506020028101906107339190611bb7565b61074190602081019061147a565b6001600160a01b0316146107675760405162461bcd60e51b81526004016102a090611b04565b61077081611cfe565b9050610361565b50823410156107985760405162461bcd60e51b81526004016102a090611a7c565b60008a8a60008181106107bb57634e487b7160e01b600052603260045260246000fd5b90506020028101906107cd9190611bb7565b6107db90602081019061147a565b90506000816001600160a01b031663b5a25e586040518163ffffffff1660e01b815260040160206040518083038186803b15801561081857600080fd5b505afa15801561082c573d6000803e3d6000fd5b505050506040513d601f19601f820116820180604052508101906108509190611496565b905060606001600160a01b038216156108e857604051634604763160e11b81526001600160a01b03831690638c08ec629061088f9088906004016118a4565b600060405180830381600087803b1580156108a957600080fd5b505af11580156108bd573d6000803e3d6000fd5b505050506040513d6000823e601f3d908101601f191682016040526108e5919081019061165c565b90505b826001600160a01b0316631e9f4c09338d8d858e8e8b6040518863ffffffff1660e01b815260040161092097969594939291906117f8565b600060405180830381600087803b15801561093a57600080fd5b505af115801561094e573d6000803e3d6000fd5b5050505050505050505050505050505050565b6002602052816000526040600020818154811061097d57600080fd5b6000918252602090912060059091020180546001820154600283015460038401546004850180546001600160a01b039095169750929550909390929091906109c490611cc9565b80601f01602080910402602001604051908101604052809291908181526020018280546109f090611cc9565b8015610a3d5780601f10610a1257610100808354040283529160200191610a3d565b820191906000526020600020905b815481529060010190602001808311610a2057829003601f168201915b5050505050905085565b6003602052600090815260409020546001600160a01b031681565b6040805160a0810190915260009080610a7e602085018561147a565b6001600160a01b031681526020018360200135815260200183604001358152602001428152602001838060600190610ab69190611b72565b8080601f0160208091040260200160405190810160405280939291908181526020018383808284376000920191909152505050915250805160208201516040516323b872dd60e01b81529293506001600160a01b03909116916323b872dd91610b2591339130916004016117d4565b600060405180830381600087803b158015610b3f57600080fd5b505af1158015610b53573d6000803e3d6000fd5b505033600090815260026020818152604080842080546001808201835591865294839020885160059096020180546001600160a01b0319166001600160a01b039096169590951785558783015190850155860151918301919091556060850151600383015560808501518051869550929350610bd892600485019291909101906112f6565b505081516001600160a01b0390811660009081526001602081815260408084208054808501825590855293829020875160059095020180546001600160a01b0319169490951693909317845580860151918401919091559084015160028301556060840151600383015560808401518051859450610c5c92600485019201906112f6565b50508151602080840151606085015160405160009550610c7d949301611796565b60408051601f19818403018152918152815160209283012060009081526003909252902080546001600160a01b03191633179055505050565b6001602052816000526040600020818154811061097d57600080fd5b610cda611263565b610ce460006112a2565b565b6000546001600160a01b031690565b61271081565b6001600160a01b0381166000908152600160205260408120546060918167ffffffffffffffff811115610d3e57634e487b7160e01b600052604160045260246000fd5b604051908082528060200260200182016040528015610d7757816020015b610d6461137a565b815260200190600190039081610d5c5790505b50905060005b828110156110e0576001600160a01b0385166000908152600160205260408120805483908110610dbd57634e487b7160e01b600052603260045260246000fd5b90600052602060002090600502016040518060a00160405290816000820160009054906101000a90046001600160a01b03166001600160a01b03166001600160a01b03168152602001600182015481526020016002820154815260200160038201548152602001600482018054610e3390611cc9565b80601f0160208091040260200160405190810160405280929190818152602001828054610e5f90611cc9565b8015610eac5780601f10610e8157610100808354040283529160200191610eac565b820191906000526020600020905b815481529060010190602001808311610e8f57829003601f168201915b50505050508152505090506040518061010001604052808260200151815260200182600001516001600160a01b031663c87b56dd84602001516040518263ffffffff1660e01b8152600401610f019190611b69565b60006040518083038186803b158015610f1957600080fd5b505afa158015610f2d573d6000803e3d6000fd5b505050506040513d6000823e601f3d908101601f19168201604052610f55919081019061165c565b815260200182600001516001600160a01b0316631f5caafb84602001516040518263ffffffff1660e01b8152600401610f8e9190611b69565b60006040518083038186803b158015610fa657600080fd5b505afa158015610fba573d6000803e3d6000fd5b505050506040513d6000823e601f3d908101601f19168201604052610fe2919081019061165c565b81526020018260800151815260200182600001516001600160a01b03166369d3921984602001516040518263ffffffff1660e01b81526004016110259190611b69565b60006040518083038186803b15801561103d57600080fd5b505afa158015611051573d6000803e3d6000fd5b505050506040513d6000823e601f3d908101601f19168201604052611079919081019061159d565b815260200182600001516001600160a01b031681526020018260400151815260200182606001518152508383815181106110c357634e487b7160e01b600052603260045260246000fd5b602002602001018190525050806110d990611cfe565b9050610d7d565b509392505050565b6110f0611263565b6001600160a01b0381166111165760405162461bcd60e51b81526004016102a090611a9d565b61111f816112a2565b50565b6001600160a01b0381166000908152600260209081526040808320805482518185028101850190935280835260609492939192909184015b828210156112535760008481526020908190206040805160a0810182526005860290920180546001600160a01b03168352600181015493830193909352600283015490820152600382015460608201526004820180549192916080840191906111c290611cc9565b80601f01602080910402602001604051908101604052809291908181526020018280546111ee90611cc9565b801561123b5780601f106112105761010080835404028352916020019161123b565b820191906000526020600020905b81548152906001019060200180831161121e57829003601f168201915b5050505050815250508152602001906001019061115a565b505050509050919050565b600a81565b61126b6112f2565b6001600160a01b031661127c610ce6565b6001600160a01b031614610ce45760405162461bcd60e51b81526004016102a090611b24565b600080546001600160a01b038381166001600160a01b0319831681178455604051919092169283917f8be0079c531659141344cd1fd0a4f28419497f9722a3daafe3b4186f6b6457e09190a35050565b3390565b82805461130290611cc9565b90600052602060002090601f016020900481019282611324576000855561136a565b82601f1061133d57805160ff191683800117855561136a565b8280016001018555821561136a579182015b8281111561136a57825182559160200191906001019061134f565b506113769291506113c8565b5090565b604051806101000160405280600081526020016060815260200160608152602001606081526020016060815260200160006001600160a01b0316815260200160008152602001600081525090565b5b8082111561137657600081556001016113c9565b600067ffffffffffffffff8311156113f7576113f7611d2f565b61140a601f8401601f1916602001611bd6565b905082815283838301111561141e57600080fd5b61142c836020830184611c99565b9392505050565b60008083601f840112611444578182fd5b50813567ffffffffffffffff81111561145b578182fd5b60208301915083602082850101111561147357600080fd5b9250929050565b60006020828403121561148b578081fd5b813561142c81611d45565b6000602082840312156114a7578081fd5b815161142c81611d45565b600080604083850312156114c4578081fd5b82356114cf81611d45565b946020939093013593505050565b600080600080600080606087890312156114f5578182fd5b863567ffffffffffffffff8082111561150c578384fd5b818901915089601f83011261151f578384fd5b81358181111561152d578485fd5b8a60208083028501011115611540578485fd5b60209283019850965090880135908082111561155a578384fd5b6115668a838b01611433565b9096509450604089013591508082111561157e578384fd5b5061158b89828a01611433565b979a9699509497509295939492505050565b600060208083850312156115af578182fd5b825167ffffffffffffffff808211156115c6578384fd5b818501915085601f8301126115d9578384fd5b8151818111156115eb576115eb611d2f565b83810291506115fb848301611bd6565b8181528481019084860184860187018a1015611615578788fd5b8795505b83861015611637578051835260019590950194918601918601611619565b5098975050505050505050565b600060208284031215611655578081fd5b5035919050565b60006020828403121561166d578081fd5b815167ffffffffffffffff811115611683578182fd5b8201601f81018413611693578182fd5b6116a2848251602084016113dd565b949350505050565b6000604082840312156116bb578081fd5b50919050565b6000602082840312156116d2578081fd5b813567ffffffffffffffff8111156116e8578182fd5b82016080818503121561142c578182fd5b6001600160a01b03169052565b6000815180845260208085019450808401835b8381101561173557815187529582019590820190600101611719565b509495945050505050565b60008151808452611758816020860160208601611c99565b601f01601f19169290920160200192915050565b60008284528282602086013780602084860101526020601f19601f85011685010190509392505050565b60609390931b6bffffffffffffffffffffffff191683526014830191909152603482015260540190565b6001600160a01b0391909116815260200190565b6001600160a01b039384168152919092166020820152604081019190915260600190565b6001600160a01b038816815260a06020820181905260009061181d908301888a61176c565b828103604084015261182f8188611740565b9050828103606084015261184481868861176c565b905082810360808401526118588185611706565b9a9950505050505050505050565b600060018060a01b038716825285602083015284604083015283606083015260a0608083015261189960a0830184611740565b979650505050505050565b6000602080830181845280855180835260408601915060408482028701019250838701855b828110156118f757603f198886030184526118e5858351611740565b945092850192908501906001016118c9565b5092979650505050505050565b60208082528251828201819052600091906040908185019080840286018301878501865b838110156119e157603f1989840301855281516101008151855288820151818a87015261195782870182611740565b915050878201518582038987015261196f8282611740565b915050606080830151868303828801526119898382611740565b92505050608080830151868303828801526119a48382611706565b9250505060a0808301516119ba828801826116f9565b505060c0828101519086015260e09182015191909401529386019390860190600101611928565b509098975050505050505050565b60208082528251828201819052600091906040908185019080840286018301878501865b838110156119e157888303603f19018552815180516001600160a01b03168452878101518885015286810151878501526060808201519085015260809081015160a091850182905290611a6881860183611740565b968901969450505090860190600101611a13565b6020808252600790820152660504e525f4e45560cc1b604082015260600190565b60208082526026908201527f4f776e61626c653a206e6577206f776e657220697320746865207a65726f206160408201526564647265737360d01b606082015260800190565b602080825260079082015266504e525f544d4f60c81b604082015260600190565b602080825260069082015265504e525f4e5360d01b604082015260600190565b6020808252818101527f4f776e61626c653a2063616c6c6572206973206e6f7420746865206f776e6572604082015260600190565b62ffffff91909116815260200190565b90815260200190565b6000808335601e19843603018112611b88578283fd5b83018035915067ffffffffffffffff821115611ba2578283fd5b60200191503681900382131561147357600080fd5b60008235609e19833603018112611bcc578182fd5b9190910192915050565b604051601f8201601f1916810167ffffffffffffffff81118282101715611bff57611bff611d2f565b604052919050565b60008219821115611c1a57611c1a611d19565b500190565b600082611c3a57634e487b7160e01b81526012600452602481fd5b500490565b6000816000190483118215151615611c5957611c59611d19565b500290565b600062ffffff83811690831681811015611c7a57611c7a611d19565b039392505050565b600082821015611c9457611c94611d19565b500390565b60005b83811015611cb4578181015183820152602001611c9c565b83811115611cc3576000848401525b50505050565b600281046001821680611cdd57607f821691505b602082108114156116bb57634e487b7160e01b600052602260045260246000fd5b6000600019821415611d1257611d12611d19565b5060010190565b634e487b7160e01b600052601160045260246000fd5b634e487b7160e01b600052604160045260246000fd5b6001600160a01b038116811461111f57600080fdfea264697066735822122095d1ea62fea14507bc109ee3e5c965374e83ee0360be2831366ab3eb510be85964736f6c63430008010033",
  "linkReferences": {},
  "deployedLinkReferences": {}
}