{
  "_format": "hh-sol-artifact-1",
  "contractName": "PolyNftErc721",
  "sourceName": "contracts/PolyNftErc721.sol",
  "abi": [
    {
      "inputs": [
        {
          "internalType": "string",
          "name": "nameArg",
          "type": "string"
        },
        {
          "internalType": "string",
          "name": "symbolArg",
          "type": "string"
        },
        {
          "internalType": "string",
          "name": "baseTokenURIArg",
          "type": "string"
        },
        {
          "internalType": "address",
          "name": "fusionImplementationArg",
          "type": "address"
        }
      ],
      "stateMutability": "nonpayable",
      "type": "constructor"
    },
    {
      "anonymous": false,
      "inputs": [
        {
          "indexed": true,
          "internalType": "address",
          "name": "owner",
          "type": "address"
        },
        {
          "indexed": true,
          "internalType": "address",
          "name": "approved",
          "type": "address"
        },
        {
          "indexed": true,
          "internalType": "uint256",
          "name": "tokenId",
          "type": "uint256"
        }
      ],
      "name": "Approval",
      "type": "event"
    },
    {
      "anonymous": false,
      "inputs": [
        {
          "indexed": true,
          "internalType": "address",
          "name": "owner",
          "type": "address"
        },
        {
          "indexed": true,
          "internalType": "address",
          "name": "operator",
          "type": "address"
        },
        {
          "indexed": false,
          "internalType": "bool",
          "name": "approved",
          "type": "bool"
        }
      ],
      "name": "ApprovalForAll",
      "type": "event"
    },
    {
      "anonymous": false,
      "inputs": [
        {
          "indexed": false,
          "internalType": "address",
          "name": "account",
          "type": "address"
        }
      ],
      "name": "Paused",
      "type": "event"
    },
    {
      "anonymous": false,
      "inputs": [
        {
          "indexed": true,
          "internalType": "bytes32",
          "name": "role",
          "type": "bytes32"
        },
        {
          "indexed": true,
          "internalType": "bytes32",
          "name": "previousAdminRole",
          "type": "bytes32"
        },
        {
          "indexed": true,
          "internalType": "bytes32",
          "name": "newAdminRole",
          "type": "bytes32"
        }
      ],
      "name": "RoleAdminChanged",
      "type": "event"
    },
    {
      "anonymous": false,
      "inputs": [
        {
          "indexed": true,
          "internalType": "bytes32",
          "name": "role",
          "type": "bytes32"
        },
        {
          "indexed": true,
          "internalType": "address",
          "name": "account",
          "type": "address"
        },
        {
          "indexed": true,
          "internalType": "address",
          "name": "sender",
          "type": "address"
        }
      ],
      "name": "RoleGranted",
      "type": "event"
    },
    {
      "anonymous": false,
      "inputs": [
        {
          "indexed": true,
          "internalType": "bytes32",
          "name": "role",
          "type": "bytes32"
        },
        {
          "indexed": true,
          "internalType": "address",
          "name": "account",
          "type": "address"
        },
        {
          "indexed": true,
          "internalType": "address",
          "name": "sender",
          "type": "address"
        }
      ],
      "name": "RoleRevoked",
      "type": "event"
    },
    {
      "anonymous": false,
      "inputs": [
        {
          "indexed": true,
          "internalType": "address",
          "name": "from",
          "type": "address"
        },
        {
          "indexed": true,
          "internalType": "address",
          "name": "to",
          "type": "address"
        },
        {
          "indexed": true,
          "internalType": "uint256",
          "name": "tokenId",
          "type": "uint256"
        }
      ],
      "name": "Transfer",
      "type": "event"
    },
    {
      "anonymous": false,
      "inputs": [
        {
          "indexed": false,
          "internalType": "address",
          "name": "account",
          "type": "address"
        }
      ],
      "name": "Unpaused",
      "type": "event"
    },
    {
      "inputs": [],
      "name": "DEFAULT_ADMIN_ROLE",
      "outputs": [
        {
          "internalType": "bytes32",
          "name": "",
          "type": "bytes32"
        }
      ],
      "stateMutability": "view",
      "type": "function"
    },
    {
      "inputs": [],
      "name": "MINTER_ROLE",
      "outputs": [
        {
          "internalType": "bytes32",
          "name": "",
          "type": "bytes32"
        }
      ],
      "stateMutability": "view",
      "type": "function"
    },
    {
      "inputs": [],
      "name": "PAUSER_ROLE",
      "outputs": [
        {
          "internalType": "bytes32",
          "name": "",
          "type": "bytes32"
        }
      ],
      "stateMutability": "view",
      "type": "function"
    },
    {
      "inputs": [
        {
          "internalType": "address",
          "name": "to",
          "type": "address"
        },
        {
          "internalType": "uint256",
          "name": "tokenId",
          "type": "uint256"
        }
      ],
      "name": "approve",
      "outputs": [],
      "stateMutability": "nonpayable",
      "type": "function"
    },
    {
      "inputs": [
        {
          "internalType": "uint256",
          "name": "",
          "type": "uint256"
        }
      ],
      "name": "attributeMap",
      "outputs": [
        {
          "internalType": "bytes",
          "name": "",
          "type": "bytes"
        }
      ],
      "stateMutability": "view",
      "type": "function"
    },
    {
      "inputs": [
        {
          "internalType": "address",
          "name": "owner",
          "type": "address"
        }
      ],
      "name": "balanceOf",
      "outputs": [
        {
          "internalType": "uint256",
          "name": "",
          "type": "uint256"
        }
      ],
      "stateMutability": "view",
      "type": "function"
    },
    {
      "inputs": [
        {
          "internalType": "uint256",
          "name": "tokenId",
          "type": "uint256"
        }
      ],
      "name": "burn",
      "outputs": [],
      "stateMutability": "nonpayable",
      "type": "function"
    },
    {
      "inputs": [
        {
          "internalType": "uint256",
          "name": "",
          "type": "uint256"
        }
      ],
      "name": "descriptionMap",
      "outputs": [
        {
          "internalType": "string",
          "name": "",
          "type": "string"
        }
      ],
      "stateMutability": "view",
      "type": "function"
    },
    {
      "inputs": [],
      "name": "factory",
      "outputs": [
        {
          "internalType": "address",
          "name": "",
          "type": "address"
        }
      ],
      "stateMutability": "view",
      "type": "function"
    },
    {
      "inputs": [],
      "name": "fusionImplementation",
      "outputs": [
        {
          "internalType": "address",
          "name": "",
          "type": "address"
        }
      ],
      "stateMutability": "view",
      "type": "function"
    },
    {
      "inputs": [
        {
          "internalType": "uint256",
          "name": "",
          "type": "uint256"
        },
        {
          "internalType": "uint256",
          "name": "",
          "type": "uint256"
        }
      ],
      "name": "fusionSourceTokenIdsMap",
      "outputs": [
        {
          "internalType": "uint256",
          "name": "",
          "type": "uint256"
        }
      ],
      "stateMutability": "view",
      "type": "function"
    },
    {
      "inputs": [
        {
          "internalType": "uint256",
          "name": "tokenId",
          "type": "uint256"
        }
      ],
      "name": "getApproved",
      "outputs": [
        {
          "internalType": "address",
          "name": "",
          "type": "address"
        }
      ],
      "stateMutability": "view",
      "type": "function"
    },
    {
      "inputs": [
        {
          "internalType": "uint256",
          "name": "tokenId",
          "type": "uint256"
        }
      ],
      "name": "getFusionSourceTokenIds",
      "outputs": [
        {
          "internalType": "uint256[]",
          "name": "",
          "type": "uint256[]"
        }
      ],
      "stateMutability": "view",
      "type": "function"
    },
    {
      "inputs": [
        {
          "internalType": "bytes32",
          "name": "role",
          "type": "bytes32"
        }
      ],
      "name": "getRoleAdmin",
      "outputs": [
        {
          "internalType": "bytes32",
          "name": "",
          "type": "bytes32"
        }
      ],
      "stateMutability": "view",
      "type": "function"
    },
    {
      "inputs": [
        {
          "internalType": "bytes32",
          "name": "role",
          "type": "bytes32"
        },
        {
          "internalType": "uint256",
          "name": "index",
          "type": "uint256"
        }
      ],
      "name": "getRoleMember",
      "outputs": [
        {
          "internalType": "address",
          "name": "",
          "type": "address"
        }
      ],
      "stateMutability": "view",
      "type": "function"
    },
    {
      "inputs": [
        {
          "internalType": "bytes32",
          "name": "role",
          "type": "bytes32"
        }
      ],
      "name": "getRoleMemberCount",
      "outputs": [
        {
          "internalType": "uint256",
          "name": "",
          "type": "uint256"
        }
      ],
      "stateMutability": "view",
      "type": "function"
    },
    {
      "inputs": [
        {
          "internalType": "address",
          "name": "ownerArg",
          "type": "address"
        }
      ],
      "name": "getTokenIdsByOwner",
      "outputs": [
        {
          "internalType": "uint256[]",
          "name": "",
          "type": "uint256[]"
        }
      ],
      "stateMutability": "view",
      "type": "function"
    },
    {
      "inputs": [
        {
          "internalType": "bytes32",
          "name": "role",
          "type": "bytes32"
        },
        {
          "internalType": "address",
          "name": "account",
          "type": "address"
        }
      ],
      "name": "grantRole",
      "outputs": [],
      "stateMutability": "nonpayable",
      "type": "function"
    },
    {
      "inputs": [
        {
          "internalType": "bytes32",
          "name": "role",
          "type": "bytes32"
        },
        {
          "internalType": "address",
          "name": "account",
          "type": "address"
        }
      ],
      "name": "hasRole",
      "outputs": [
        {
          "internalType": "bool",
          "name": "",
          "type": "bool"
        }
      ],
      "stateMutability": "view",
      "type": "function"
    },
    {
      "inputs": [
        {
          "internalType": "address",
          "name": "owner",
          "type": "address"
        },
        {
          "internalType": "address",
          "name": "operator",
          "type": "address"
        }
      ],
      "name": "isApprovedForAll",
      "outputs": [
        {
          "internalType": "bool",
          "name": "",
          "type": "bool"
        }
      ],
      "stateMutability": "view",
      "type": "function"
    },
    {
      "inputs": [
        {
          "internalType": "address",
          "name": "to",
          "type": "address"
        },
        {
          "internalType": "string",
          "name": "tokenURI",
          "type": "string"
        },
        {
          "internalType": "bytes",
          "name": "attribute",
          "type": "bytes"
        },
        {
          "internalType": "string",
          "name": "description",
          "type": "string"
        },
        {
          "internalType": "uint256[]",
          "name": "fusionSourceTokenIds",
          "type": "uint256[]"
        }
      ],
      "name": "mint",
      "outputs": [],
      "stateMutability": "nonpayable",
      "type": "function"
    },
    {
      "inputs": [
        {
          "internalType": "address",
          "name": "to",
          "type": "address"
        }
      ],
      "name": "mint",
      "outputs": [
        {
          "internalType": "uint256",
          "name": "tokenId",
          "type": "uint256"
        }
      ],
      "stateMutability": "nonpayable",
      "type": "function"
    },
    {
      "inputs": [],
      "name": "name",
      "outputs": [
        {
          "internalType": "string",
          "name": "",
          "type": "string"
        }
      ],
      "stateMutability": "view",
      "type": "function"
    },
    {
      "inputs": [
        {
          "internalType": "uint256",
          "name": "tokenId",
          "type": "uint256"
        }
      ],
      "name": "ownerOf",
      "outputs": [
        {
          "internalType": "address",
          "name": "",
          "type": "address"
        }
      ],
      "stateMutability": "view",
      "type": "function"
    },
    {
      "inputs": [],
      "name": "pause",
      "outputs": [],
      "stateMutability": "nonpayable",
      "type": "function"
    },
    {
      "inputs": [],
      "name": "paused",
      "outputs": [
        {
          "internalType": "bool",
          "name": "",
          "type": "bool"
        }
      ],
      "stateMutability": "view",
      "type": "function"
    },
    {
      "inputs": [],
      "name": "registry",
      "outputs": [
        {
          "internalType": "address",
          "name": "",
          "type": "address"
        }
      ],
      "stateMutability": "view",
      "type": "function"
    },
    {
      "inputs": [
        {
          "internalType": "bytes32",
          "name": "role",
          "type": "bytes32"
        },
        {
          "internalType": "address",
          "name": "account",
          "type": "address"
        }
      ],
      "name": "renounceRole",
      "outputs": [],
      "stateMutability": "nonpayable",
      "type": "function"
    },
    {
      "inputs": [
        {
          "internalType": "bytes32",
          "name": "role",
          "type": "bytes32"
        },
        {
          "internalType": "address",
          "name": "account",
          "type": "address"
        }
      ],
      "name": "revokeRole",
      "outputs": [],
      "stateMutability": "nonpayable",
      "type": "function"
    },
    {
      "inputs": [
        {
          "internalType": "address",
          "name": "from",
          "type": "address"
        },
        {
          "internalType": "address",
          "name": "to",
          "type": "address"
        },
        {
          "internalType": "uint256",
          "name": "tokenId",
          "type": "uint256"
        }
      ],
      "name": "safeTransferFrom",
      "outputs": [],
      "stateMutability": "nonpayable",
      "type": "function"
    },
    {
      "inputs": [
        {
          "internalType": "address",
          "name": "from",
          "type": "address"
        },
        {
          "internalType": "address",
          "name": "to",
          "type": "address"
        },
        {
          "internalType": "uint256",
          "name": "tokenId",
          "type": "uint256"
        },
        {
          "internalType": "bytes",
          "name": "data",
          "type": "bytes"
        }
      ],
      "name": "safeTransferFrom",
      "outputs": [],
      "stateMutability": "nonpayable",
      "type": "function"
    },
    {
      "inputs": [
        {
          "internalType": "address",
          "name": "operator",
          "type": "address"
        },
        {
          "internalType": "bool",
          "name": "approved",
          "type": "bool"
        }
      ],
      "name": "setApprovalForAll",
      "outputs": [],
      "stateMutability": "nonpayable",
      "type": "function"
    },
    {
      "inputs": [
        {
          "internalType": "bytes4",
          "name": "interfaceId",
          "type": "bytes4"
        }
      ],
      "name": "supportsInterface",
      "outputs": [
        {
          "internalType": "bool",
          "name": "",
          "type": "bool"
        }
      ],
      "stateMutability": "view",
      "type": "function"
    },
    {
      "inputs": [],
      "name": "symbol",
      "outputs": [
        {
          "internalType": "string",
          "name": "",
          "type": "string"
        }
      ],
      "stateMutability": "view",
      "type": "function"
    },
    {
      "inputs": [
        {
          "internalType": "uint256",
          "name": "index",
          "type": "uint256"
        }
      ],
      "name": "tokenByIndex",
      "outputs": [
        {
          "internalType": "uint256",
          "name": "",
          "type": "uint256"
        }
      ],
      "stateMutability": "view",
      "type": "function"
    },
    {
      "inputs": [
        {
          "internalType": "address",
          "name": "owner",
          "type": "address"
        },
        {
          "internalType": "uint256",
          "name": "index",
          "type": "uint256"
        }
      ],
      "name": "tokenOfOwnerByIndex",
      "outputs": [
        {
          "internalType": "uint256",
          "name": "",
          "type": "uint256"
        }
      ],
      "stateMutability": "view",
      "type": "function"
    },
    {
      "inputs": [
        {
          "internalType": "uint256",
          "name": "tokenId",
          "type": "uint256"
        }
      ],
      "name": "tokenURI",
      "outputs": [
        {
          "internalType": "string",
          "name": "",
          "type": "string"
        }
      ],
      "stateMutability": "view",
      "type": "function"
    },
    {
      "inputs": [],
      "name": "totalSupply",
      "outputs": [
        {
          "internalType": "uint256",
          "name": "",
          "type": "uint256"
        }
      ],
      "stateMutability": "view",
      "type": "function"
    },
    {
      "inputs": [
        {
          "internalType": "address",
          "name": "from",
          "type": "address"
        },
        {
          "internalType": "address",
          "name": "to",
          "type": "address"
        },
        {
          "internalType": "uint256",
          "name": "tokenId",
          "type": "uint256"
        }
      ],
      "name": "transferFrom",
      "outputs": [],
      "stateMutability": "nonpayable",
      "type": "function"
    },
    {
      "inputs": [],
      "name": "unpause",
      "outputs": [],
      "stateMutability": "nonpayable",
      "type": "function"
    }
  ],
  "bytecode": "0x60806040523480156200001157600080fd5b50604051620031b2380380620031b28339810160408190526200003491620004f3565b838383828281600290805190602001906200005192919062000360565b5080516200006790600390602084019062000360565b5050600c805460ff191690555080516200008990600e90602084019062000360565b50620000a060006200009a620001cf565b620001d3565b620000cf7f9f2df0fed2c77648de5860a4cc508cd0818c85b8b8a1ab4ceeef8d981c8956a66200009a620001cf565b620000fe7f65d7a28e3265b37a6474929f336521b332c1681b933f6cb9f3376673440d862a6200009a620001cf565b5050601180546001600160a01b038085166001600160a01b031992831617909255600f805490911633179081905560408051637b10399960e01b81529051919092169250637b10399991600480820192602092909190829003018186803b1580156200016957600080fd5b505afa1580156200017e573d6000803e3d6000fd5b505050506040513d601f19601f82011682018060405250810190620001a49190620004d6565b601080546001600160a01b0319166001600160a01b039290921691909117905550620005e692505050565b3390565b620001df8282620001e3565b5050565b620001fa82826200022660201b62000e911760201c565b60008281526001602090815260409091206200022191839062000f16620002b0821b17901c565b505050565b620002328282620002d0565b620001df576000828152602081815260408083206001600160a01b03851684529091529020805460ff191660011790556200026c620001cf565b6001600160a01b0316816001600160a01b0316837f2f8788117e7eff1d82e926ec794901d17c78024a50270940304540a733656f0d60405160405180910390a45050565b6000620002c7836001600160a01b038416620002f9565b90505b92915050565b6000918252602082815260408084206001600160a01b0393909316845291905290205460ff1690565b600062000307838362000348565b6200033f57508154600181810184556000848152602080822090930184905584548482528286019093526040902091909155620002ca565b506000620002ca565b60009081526001919091016020526040902054151590565b8280546200036e9062000593565b90600052602060002090601f016020900481019282620003925760008555620003dd565b82601f10620003ad57805160ff1916838001178555620003dd565b82800160010185558215620003dd579182015b82811115620003dd578251825591602001919060010190620003c0565b50620003eb929150620003ef565b5090565b5b80821115620003eb5760008155600101620003f0565b80516001600160a01b03811681146200041e57600080fd5b919050565b600082601f83011262000434578081fd5b81516001600160401b0380821115620004515762000451620005d0565b604051601f8301601f19908116603f011681019082821181831017156200047c576200047c620005d0565b8160405283815260209250868385880101111562000498578485fd5b8491505b83821015620004bb57858201830151818301840152908201906200049c565b83821115620004cc57848385830101525b9695505050505050565b600060208284031215620004e8578081fd5b620002c78262000406565b6000806000806080858703121562000509578283fd5b84516001600160401b038082111562000520578485fd5b6200052e8883890162000423565b9550602087015191508082111562000544578485fd5b620005528883890162000423565b9450604087015191508082111562000568578384fd5b50620005778782880162000423565b925050620005886060860162000406565b905092959194509250565b600281046001821680620005a857607f821691505b60208210811415620005ca57634e487b7160e01b600052602260045260246000fd5b50919050565b634e487b7160e01b600052604160045260246000fd5b612bbc80620005f66000396000f3fe608060405234801561001057600080fd5b50600436106102485760003560e01c806369d392191161013b578063a22cb465116100b8578063ca15c8731161007c578063ca15c873146104c4578063d5391393146104d7578063d547741f146104df578063e63ab1e9146104f2578063e985e9c5146104fa57610248565b8063a22cb46514610470578063b6c0847014610483578063b88d4fde14610496578063c45a0155146104a9578063c87b56dd146104b157610248565b80638456cb59116100ff5780638456cb59146104325780639010d07c1461043a57806391d148541461044d57806395d89b4114610460578063a217fddf1461046857610248565b806369d39219146103de5780636a627842146103f157806370a08231146104045780637b103999146104175780637ce20fca1461041f57610248565b80632f2ff15d116101c957806342966c681161018d57806342966c681461037d5780634f6ccce7146103905780635c975abb146103a35780636352211e146103ab5780636970bb0a146103be57610248565b80632f2ff15d146103295780632f745c591461033c57806336568abe1461034f5780633f4ba83a1461036257806342842e0e1461036a57610248565b80631e9f4c09116102105780631e9f4c09146102d557806320361a73146102e857806323b872dd146102fb5780632450d13b1461030e578063248a9ca31461031657610248565b806301ffc9a71461024d57806306fdde0314610276578063081812fc1461028b578063095ea7b3146102ab57806318160ddd146102c0575b600080fd5b61026061025b3660046122e0565b61050d565b60405161026d919061244e565b60405180910390f35b61027e610520565b60405161026d9190612462565b61029e610299366004612285565b6105b2565b60405161026d91906123b9565b6102be6102b936600461225c565b6105d9565b005b6102c861067a565b60405161026d9190612459565b6102be6102e3366004612137565b610680565b6102c86102f63660046122bf565b610718565b6102be61030936600461205c565b610749565b61029e610781565b6102c8610324366004612285565b610790565b6102be61033736600461229d565b6107a5565b6102c861034a36600461225c565b6107c1565b6102be61035d36600461229d565b610816565b6102be61085c565b6102be61037836600461205c565b6108ae565b6102be61038b366004612285565b6108c9565b6102c861039e366004612285565b6108fc565b610260610957565b61029e6103b9366004612285565b610960565b6103d16103cc366004612010565b610994565b60405161026d919061240a565b6103d16103ec366004612285565b610a8b565b6102c86103ff366004612010565b610aed565b6102c8610412366004612010565b610b10565b61029e610b54565b61027e61042d366004612285565b610b63565b6102be610bfd565b61029e6104483660046122bf565b610c4d565b61026061045b36600461229d565b610c6c565b61027e610c95565b6102c8610ca4565b6102be61047e3660046120fd565b610ca9565b61027e610491366004612285565b610cbb565b6102be6104a4366004612097565b610cd4565b61029e610d13565b61027e6104bf366004612285565b610d22565b6102c86104d2366004612285565b610de8565b6102c8610dff565b6102be6104ed36600461229d565b610e23565b6102c8610e3f565b61026061050836600461202a565b610e63565b600061051882610f2b565b90505b919050565b60606002805461052f90612aee565b80601f016020809104026020016040519081016040528092919081815260200182805461055b90612aee565b80156105a85780601f1061057d576101008083540402835291602001916105a8565b820191906000526020600020905b81548152906001019060200180831161058b57829003601f168201915b5050505050905090565b60006105bd82610f50565b506000908152600660205260409020546001600160a01b031690565b60006105e482610960565b9050806001600160a01b0316836001600160a01b031614156106215760405162461bcd60e51b815260040161061890612840565b60405180910390fd5b806001600160a01b0316610633610f75565b6001600160a01b0316148061064f575061064f81610508610f75565b61066b5760405162461bcd60e51b815260040161061890612881565b6106758383610f79565b505050565b600a5490565b600061068b86610aed565b600081815260126020908152604090912087519293506106af929091880190611ebb565b50600081815260136020908152604090912085516106cf92870190611ebb565b50600081815260146020908152604090912084516106ef92860190611ebb565b506000818152601560209081526040909120835161070f92850190611f3f565b50505050505050565b6015602052816000526040600020818154811061073457600080fd5b90600052602060002001600091509150505481565b61075a610754610f75565b82610fe7565b6107765760405162461bcd60e51b815260040161061890612523565b610675838383611046565b6011546001600160a01b031681565b60009081526020819052604090206001015490565b6107ae82610790565b6107b781611183565b6106758383611194565b60006107cc83610b10565b82106107ea5760405162461bcd60e51b815260040161061890612570565b506001600160a01b03821660009081526008602090815260408083208484529091529020545b92915050565b61081e610f75565b6001600160a01b0316816001600160a01b03161461084e5760405162461bcd60e51b8152600401610618906129dd565b61085882826111b6565b5050565b6108887f65d7a28e3265b37a6474929f336521b332c1681b933f6cb9f3376673440d862a61045b610f75565b6108a45760405162461bcd60e51b81526004016106189061297f565b6108ac6111d8565b565b61067583838360405180602001604052806000815250610cd4565b6108d4610754610f75565b6108f05760405162461bcd60e51b815260040161061890612523565b6108f98161122a565b50565b600061090661067a565b82106109245760405162461bcd60e51b8152600401610618906128de565b600a828154811061094557634e487b7160e01b600052603260045260246000fd5b90600052602060002001549050919050565b600c5460ff1690565b60008061096c836112d7565b90506001600160a01b0381166105185760405162461bcd60e51b815260040161061890612809565b606060006109a183610b10565b905060008167ffffffffffffffff8111156109cc57634e487b7160e01b600052604160045260246000fd5b6040519080825280602002602001820160405280156109f5578160200160208202803683370190505b5090506000805b83811015610a81576000610a1087836107c1565b9050866001600160a01b0316610a2582610960565b6001600160a01b03161415610a6e5780848481518110610a5557634e487b7160e01b600052603260045260246000fd5b602090810291909101015282610a6a81612b29565b9350505b5080610a7981612b29565b9150506109fc565b5090949350505050565b600081815260156020908152604091829020805483518184028101840190945280845260609392830182828015610ae157602002820191906000526020600020905b815481526020019060010190808311610acd575b50505050509050919050565b600080610afa600d6112f2565b9050610b0683826112f6565b610518600d6113eb565b60006001600160a01b038216610b385760405162461bcd60e51b81526004016106189061278b565b506001600160a01b031660009081526005602052604090205490565b6010546001600160a01b031681565b60136020526000908152604090208054610b7c90612aee565b80601f0160208091040260200160405190810160405280929190818152602001828054610ba890612aee565b8015610bf55780601f10610bca57610100808354040283529160200191610bf5565b820191906000526020600020905b815481529060010190602001808311610bd857829003601f168201915b505050505081565b610c297f65d7a28e3265b37a6474929f336521b332c1681b933f6cb9f3376673440d862a61045b610f75565b610c455760405162461bcd60e51b815260040161061890612689565b6108ac6113f4565b6000828152600160205260408120610c659083611432565b9392505050565b6000918252602082815260408084206001600160a01b0393909316845291905290205460ff1690565b60606003805461052f90612aee565b600081565b610858610cb4610f75565b838361143e565b60146020526000908152604090208054610b7c90612aee565b610ce5610cdf610f75565b83610fe7565b610d015760405162461bcd60e51b815260040161061890612523565b610d0d848484846114e1565b50505050565b600f546001600160a01b031681565b600081815260126020526040812080546060929190610d4090612aee565b905011610d5457610d4f611514565b610518565b60008281526012602052604090208054610d6d90612aee565b80601f0160208091040260200160405190810160405280929190818152602001828054610d9990612aee565b8015610ae15780601f10610dbb57610100808354040283529160200191610ae1565b820191906000526020600020905b815481529060010190602001808311610dc95750939695505050505050565b600081815260016020526040812061051890611523565b7f9f2df0fed2c77648de5860a4cc508cd0818c85b8b8a1ab4ceeef8d981c8956a681565b610e2c82610790565b610e3581611183565b61067583836111b6565b7f65d7a28e3265b37a6474929f336521b332c1681b933f6cb9f3376673440d862a81565b6001600160a01b03918216600090815260076020908152604080832093909416825291909152205460ff1690565b610e9b8282610c6c565b610858576000828152602081815260408083206001600160a01b03851684529091529020805460ff19166001179055610ed2610f75565b6001600160a01b0316816001600160a01b0316837f2f8788117e7eff1d82e926ec794901d17c78024a50270940304540a733656f0d60405160405180910390a45050565b6000610c65836001600160a01b03841661152e565b60006001600160e01b0319821663780e9d6360e01b1480610518575061051882611578565b610f59816115b8565b6108f95760405162461bcd60e51b815260040161061890612809565b3390565b600081815260066020526040902080546001600160a01b0319166001600160a01b0384169081179091558190610fae82610960565b6001600160a01b03167f8c5be1e5ebec7d5bd14f71427d1e84f3dd0314c0f7b2291e5b200ac8c7c3b92560405160405180910390a45050565b600080610ff383610960565b9050806001600160a01b0316846001600160a01b0316148061101a575061101a8185610e63565b8061103e5750836001600160a01b0316611033846105b2565b6001600160a01b0316145b949350505050565b826001600160a01b031661105982610960565b6001600160a01b03161461107f5760405162461bcd60e51b81526004016106189061260d565b6001600160a01b0382166110a55760405162461bcd60e51b8152600401610618906126e6565b6110b283838360016115d5565b826001600160a01b03166110c582610960565b6001600160a01b0316146110eb5760405162461bcd60e51b81526004016106189061260d565b600081815260066020908152604080832080546001600160a01b03199081169091556001600160a01b0387811680865260058552838620805460001901905590871680865283862080546001019055868652600490945282852080549092168417909155905184937fddf252ad1be2c89b69c2b068fc378daa952ba7f163c4a11628f55a4df523b3ef91a46106758383836001610d0d565b6108f98161118f610f75565b6115e1565b61119e8282610e91565b60008281526001602052604090206106759082610f16565b6111c0828261163a565b600082815260016020526040902061067590826116bd565b6111e06116d2565b600c805460ff191690557f5db9ee0a495bf2e6ff9c91a7834c1ba4fdd244a5e8aa4e537bd38aeae4b073aa611213610f75565b60405161122091906123b9565b60405180910390a1565b600061123582610960565b90506112458160008460016115d5565b61124e82610960565b600083815260066020908152604080832080546001600160a01b03199081169091556001600160a01b0385168085526005845282852080546000190190558785526004909352818420805490911690555192935084927fddf252ad1be2c89b69c2b068fc378daa952ba7f163c4a11628f55a4df523b3ef908390a4610858816000846001610d0d565b6000908152600460205260409020546001600160a01b031690565b5490565b6001600160a01b03821661131c5760405162461bcd60e51b8152600401610618906127d4565b611325816115b8565b156113425760405162461bcd60e51b815260040161061890612652565b6113506000838360016115d5565b611359816115b8565b156113765760405162461bcd60e51b815260040161061890612652565b6001600160a01b038216600081815260056020908152604080832080546001019055848352600490915280822080546001600160a01b0319168417905551839291907fddf252ad1be2c89b69c2b068fc378daa952ba7f163c4a11628f55a4df523b3ef908290a4610858600083836001610d0d565b80546001019055565b6113fc6116f6565b600c805460ff191660011790557f62e78cea01bee320cd4e420270b5ea74000d11b0c9f74754ebdbfc544b05a258611213610f75565b6000610c65838361171b565b816001600160a01b0316836001600160a01b031614156114705760405162461bcd60e51b81526004016106189061272a565b6001600160a01b0383811660008181526007602090815260408083209487168084529490915290819020805460ff1916851515179055517f17307eab39ab6107e8899845ad3d59bd9653f200f220920489ca2b5937696c31906114d490859061244e565b60405180910390a3505050565b6114ec848484611046565b6114f884848484611753565b610d0d5760405162461bcd60e51b8152600401610618906125bb565b6060600e805461052f90612aee565b6000610518826112f2565b600061153a838361186e565b61157057508154600181810184556000848152602080822090930184905584548482528286019093526040902091909155610810565b506000610810565b60006001600160e01b031982166380ac58cd60e01b14806115a957506001600160e01b03198216635b5e139f60e01b145b80610518575061051882611886565b6000806115c4836112d7565b6001600160a01b0316141592915050565b610d0d848484846118ab565b6115eb8282610c6c565b610858576115f8816118dc565b6116038360206118ee565b604051602001611614929190612344565b60408051601f198184030181529082905262461bcd60e51b825261061891600401612462565b6116448282610c6c565b15610858576000828152602081815260408083206001600160a01b03851684529091529020805460ff19169055611679610f75565b6001600160a01b0316816001600160a01b0316837ff6391f5c32d9c69d2a47ea670b442974b53935d1edc7fd64eb21e047a839171b60405160405180910390a45050565b6000610c65836001600160a01b038416611aa0565b6116da610957565b6108ac5760405162461bcd60e51b8152600401610618906124f5565b6116fe610957565b156108ac5760405162461bcd60e51b815260040161061890612761565b600082600001828154811061174057634e487b7160e01b600052603260045260246000fd5b9060005260206000200154905092915050565b6000611767846001600160a01b0316611bbd565b1561186357836001600160a01b031663150b7a02611783610f75565b8786866040518563ffffffff1660e01b81526004016117a594939291906123cd565b602060405180830381600087803b1580156117bf57600080fd5b505af19250505080156117ef575060408051601f3d908101601f191682019092526117ec918101906122fc565b60015b611849573d80801561181d576040519150601f19603f3d011682016040523d82523d6000602084013e611822565b606091505b5080516118415760405162461bcd60e51b8152600401610618906125bb565b805181602001fd5b6001600160e01b031916630a85bd0160e11b14905061103e565b506001949350505050565b60009081526001919091016020526040902054151590565b60006001600160e01b03198216635a05180f60e01b1480610518575061051882611bcc565b6118b784848484611bf1565b6118bf610957565b15610d0d5760405162461bcd60e51b8152600401610618906124aa565b60606105186001600160a01b03831660145b606060006118fd836002612a75565b611908906002612a5d565b67ffffffffffffffff81111561192e57634e487b7160e01b600052604160045260246000fd5b6040519080825280601f01601f191660200182016040528015611958576020820181803683370190505b509050600360fc1b8160008151811061198157634e487b7160e01b600052603260045260246000fd5b60200101906001600160f81b031916908160001a905350600f60fb1b816001815181106119be57634e487b7160e01b600052603260045260246000fd5b60200101906001600160f81b031916908160001a90535060006119e2846002612a75565b6119ed906001612a5d565b90505b6001811115611a81576f181899199a1a9b1b9c1cb0b131b232b360811b85600f1660108110611a2f57634e487b7160e01b600052603260045260246000fd5b1a60f81b828281518110611a5357634e487b7160e01b600052603260045260246000fd5b60200101906001600160f81b031916908160001a90535060049490941c93611a7a81612ad7565b90506119f0565b508315610c655760405162461bcd60e51b815260040161061890612475565b60008181526001830160205260408120548015611bb3576000611ac4600183612a94565b8554909150600090611ad890600190612a94565b9050818114611b59576000866000018281548110611b0657634e487b7160e01b600052603260045260246000fd5b9060005260206000200154905080876000018481548110611b3757634e487b7160e01b600052603260045260246000fd5b6000918252602080832090910192909255918252600188019052604090208390555b8554869080611b7857634e487b7160e01b600052603160045260246000fd5b600190038181906000526020600020016000905590558560010160008681526020019081526020016000206000905560019350505050610810565b6000915050610810565b6001600160a01b03163b151590565b60006001600160e01b03198216637965db0b60e01b1480610518575061051882611ca4565b611bfd84848484610d0d565b6001811115611c1e5760405162461bcd60e51b81526004016106189061292a565b816001600160a01b038516611c3b57611c3681611cbd565b611c5e565b836001600160a01b0316856001600160a01b031614611c5e57611c5e8582611d01565b6001600160a01b038416611c7a57611c7581611d9e565b611c9d565b846001600160a01b0316846001600160a01b031614611c9d57611c9d8482611e77565b5050505050565b6001600160e01b031981166301ffc9a760e01b14919050565b600a80546000838152600b60205260408120829055600182018355919091527fc65a7bb8d6351c1cf70c95a316cc6a92839c986682d98bc35f958f4883f9d2a80155565b60006001611d0e84610b10565b611d189190612a94565b600083815260096020526040902054909150808214611d6b576001600160a01b03841660009081526008602090815260408083208584528252808320548484528184208190558352600990915290208190555b5060009182526009602090815260408084208490556001600160a01b039094168352600881528383209183525290812055565b600a54600090611db090600190612a94565b6000838152600b6020526040812054600a8054939450909284908110611de657634e487b7160e01b600052603260045260246000fd5b9060005260206000200154905080600a8381548110611e1557634e487b7160e01b600052603260045260246000fd5b6000918252602080832090910192909255828152600b9091526040808220849055858252812055600a805480611e5b57634e487b7160e01b600052603160045260246000fd5b6001900381819060005260206000200160009055905550505050565b6000611e8283610b10565b6001600160a01b039093166000908152600860209081526040808320868452825280832085905593825260099052919091209190915550565b828054611ec790612aee565b90600052602060002090601f016020900481019282611ee95760008555611f2f565b82601f10611f0257805160ff1916838001178555611f2f565b82800160010185558215611f2f579182015b82811115611f2f578251825591602001919060010190611f14565b50611f3b929150611f79565b5090565b828054828255906000526020600020908101928215611f2f5791602002820182811115611f2f578251825591602001919060010190611f14565b5b80821115611f3b5760008155600101611f7a565b80356001600160a01b038116811461051b57600080fd5b600082601f830112611fb5578081fd5b813567ffffffffffffffff811115611fcf57611fcf612b5a565b611fe2601f8201601f1916602001612a2c565b818152846020838601011115611ff6578283fd5b816020850160208301379081016020019190915292915050565b600060208284031215612021578081fd5b610c6582611f8e565b6000806040838503121561203c578081fd5b61204583611f8e565b915061205360208401611f8e565b90509250929050565b600080600060608486031215612070578081fd5b61207984611f8e565b925061208760208501611f8e565b9150604084013590509250925092565b600080600080608085870312156120ac578081fd5b6120b585611f8e565b93506120c360208601611f8e565b925060408501359150606085013567ffffffffffffffff8111156120e5578182fd5b6120f187828801611fa5565b91505092959194509250565b6000806040838503121561210f578182fd5b61211883611f8e565b91506020830135801515811461212c578182fd5b809150509250929050565b600080600080600060a0868803121561214e578081fd5b61215786611f8e565b945060208087013567ffffffffffffffff80821115612174578384fd5b6121808a838b01611fa5565b96506040890135915080821115612195578384fd5b6121a18a838b01611fa5565b955060608901359150808211156121b6578384fd5b6121c28a838b01611fa5565b945060808901359150808211156121d7578384fd5b818901915089601f8301126121ea578384fd5b8135818111156121fc576121fc612b5a565b838102915061220c848301612a2c565b8181528481019084860184860187018e1015612226578788fd5b8795505b8386101561224857803583526001959095019491860191860161222a565b508096505050505050509295509295909350565b6000806040838503121561226e578182fd5b61227783611f8e565b946020939093013593505050565b600060208284031215612296578081fd5b5035919050565b600080604083850312156122af578182fd5b8235915061205360208401611f8e565b600080604083850312156122d1578182fd5b50508035926020909101359150565b6000602082840312156122f1578081fd5b8135610c6581612b70565b60006020828403121561230d578081fd5b8151610c6581612b70565b60008151808452612330816020860160208601612aab565b601f01601f19169290920160200192915050565b60007f416363657373436f6e74726f6c3a206163636f756e74200000000000000000008252835161237c816017850160208801612aab565b7001034b99036b4b9b9b4b733903937b6329607d1b60179184019182015283516123ad816028840160208801612aab565b01602801949350505050565b6001600160a01b0391909116815260200190565b6001600160a01b038581168252841660208201526040810183905260806060820181905260009061240090830184612318565b9695505050505050565b6020808252825182820181905260009190848201906040850190845b8181101561244257835183529284019291840191600101612426565b50909695505050505050565b901515815260200190565b90815260200190565b600060208252610c656020830184612318565b6020808252818101527f537472696e67733a20686578206c656e67746820696e73756666696369656e74604082015260600190565b6020808252602b908201527f4552433732315061757361626c653a20746f6b656e207472616e73666572207760408201526a1a1a5b19481c185d5cd95960aa1b606082015260800190565b60208082526014908201527314185d5cd8589b194e881b9bdd081c185d5cd95960621b604082015260600190565b6020808252602d908201527f4552433732313a2063616c6c6572206973206e6f7420746f6b656e206f776e6560408201526c1c881bdc88185c1c1c9bdd9959609a1b606082015260800190565b6020808252602b908201527f455243373231456e756d657261626c653a206f776e657220696e646578206f7560408201526a74206f6620626f756e647360a81b606082015260800190565b60208082526032908201527f4552433732313a207472616e7366657220746f206e6f6e20455243373231526560408201527131b2b4bb32b91034b6b83632b6b2b73a32b960711b606082015260800190565b60208082526025908201527f4552433732313a207472616e736665722066726f6d20696e636f72726563742060408201526437bbb732b960d91b606082015260800190565b6020808252601c908201527f4552433732313a20746f6b656e20616c7265616479206d696e74656400000000604082015260600190565b6020808252603e908201527f4552433732315072657365744d696e7465725061757365724175746f49643a2060408201527f6d75737420686176652070617573657220726f6c6520746f2070617573650000606082015260800190565b60208082526024908201527f4552433732313a207472616e7366657220746f20746865207a65726f206164646040820152637265737360e01b606082015260800190565b60208082526019908201527f4552433732313a20617070726f766520746f2063616c6c657200000000000000604082015260600190565b60208082526010908201526f14185d5cd8589b194e881c185d5cd95960821b604082015260600190565b60208082526029908201527f4552433732313a2061646472657373207a65726f206973206e6f7420612076616040820152683634b21037bbb732b960b91b606082015260800190565b6020808252818101527f4552433732313a206d696e7420746f20746865207a65726f2061646472657373604082015260600190565b60208082526018908201527f4552433732313a20696e76616c696420746f6b656e2049440000000000000000604082015260600190565b60208082526021908201527f4552433732313a20617070726f76616c20746f2063757272656e74206f776e656040820152603960f91b606082015260800190565b6020808252603d908201527f4552433732313a20617070726f76652063616c6c6572206973206e6f7420746f60408201527f6b656e206f776e6572206f7220617070726f76656420666f7220616c6c000000606082015260800190565b6020808252602c908201527f455243373231456e756d657261626c653a20676c6f62616c20696e646578206f60408201526b7574206f6620626f756e647360a01b606082015260800190565b60208082526035908201527f455243373231456e756d657261626c653a20636f6e7365637574697665207472604082015274185b9cd9995c9cc81b9bdd081cdd5c1c1bdc9d1959605a1b606082015260800190565b602080825260409082018190527f4552433732315072657365744d696e7465725061757365724175746f49643a20908201527f6d75737420686176652070617573657220726f6c6520746f20756e7061757365606082015260800190565b6020808252602f908201527f416363657373436f6e74726f6c3a2063616e206f6e6c792072656e6f756e636560408201526e103937b632b9903337b91039b2b63360891b606082015260800190565b604051601f8201601f1916810167ffffffffffffffff81118282101715612a5557612a55612b5a565b604052919050565b60008219821115612a7057612a70612b44565b500190565b6000816000190483118215151615612a8f57612a8f612b44565b500290565b600082821015612aa657612aa6612b44565b500390565b60005b83811015612ac6578181015183820152602001612aae565b83811115610d0d5750506000910152565b600081612ae657612ae6612b44565b506000190190565b600281046001821680612b0257607f821691505b60208210811415612b2357634e487b7160e01b600052602260045260246000fd5b50919050565b6000600019821415612b3d57612b3d612b44565b5060010190565b634e487b7160e01b600052601160045260246000fd5b634e487b7160e01b600052604160045260246000fd5b6001600160e01b0319811681146108f957600080fdfea2646970667358221220d1c3b538b9a9247a1ead066385eeada0c123ef309fb6d48adc9a522b39c3c2cb64736f6c63430008010033",
  "linkReferences": {},
  "deployedLinkReferences": {}
}