{
  "_format": "hh-sol-artifact-1",
  "contractName": "PolyNftFactory",
  "sourceName": "contracts/PolyNftFactory.sol",
  "abi": [
    {
      "inputs": [
        {
          "internalType": "address",
          "name": "registryArg",
          "type": "address"
        }
      ],
      "stateMutability": "nonpayable",
      "type": "constructor"
    },
    {
      "anonymous": false,
      "inputs": [
        {
          "indexed": true,
          "internalType": "address",
          "name": "previousOwner",
          "type": "address"
        },
        {
          "indexed": true,
          "internalType": "address",
          "name": "newOwner",
          "type": "address"
        }
      ],
      "name": "OwnershipTransferred",
      "type": "event"
    },
    {
      "inputs": [
        {
          "internalType": "string",
          "name": "name",
          "type": "string"
        },
        {
          "internalType": "string",
          "name": "symbol",
          "type": "string"
        },
        {
          "internalType": "string",
          "name": "tokenURI",
          "type": "string"
        },
        {
          "internalType": "address",
          "name": "fusionImplementation",
          "type": "address"
        }
      ],
      "name": "create",
      "outputs": [
        {
          "internalType": "address",
          "name": "",
          "type": "address"
        }
      ],
      "stateMutability": "nonpayable",
      "type": "function"
    },
    {
      "inputs": [
        {
          "internalType": "address",
          "name": "",
          "type": "address"
        }
      ],
      "name": "erc721Owner",
      "outputs": [
        {
          "internalType": "address",
          "name": "",
          "type": "address"
        }
      ],
      "stateMutability": "view",
      "type": "function"
    },
    {
      "inputs": [],
      "name": "owner",
      "outputs": [
        {
          "internalType": "address",
          "name": "",
          "type": "address"
        }
      ],
      "stateMutability": "view",
      "type": "function"
    },
    {
      "inputs": [],
      "name": "registry",
      "outputs": [
        {
          "internalType": "address",
          "name": "",
          "type": "address"
        }
      ],
      "stateMutability": "view",
      "type": "function"
    },
    {
      "inputs": [],
      "name": "renounceOwnership",
      "outputs": [],
      "stateMutability": "nonpayable",
      "type": "function"
    },
    {
      "inputs": [
        {
          "internalType": "address",
          "name": "newOwner",
          "type": "address"
        }
      ],
      "name": "transferOwnership",
      "outputs": [],
      "stateMutability": "nonpayable",
      "type": "function"
    }
  ],
  "bytecode": "0x608060405234801561001057600080fd5b5060405161354138038061354183398101604081905261002f916100b8565b61003f61003a610064565b610068565b600180546001600160a01b0319166001600160a01b03929092169190911790556100e6565b3390565b600080546001600160a01b038381166001600160a01b0319831681178455604051919092169283917f8be0079c531659141344cd1fd0a4f28419497f9722a3daafe3b4186f6b6457e09190a35050565b6000602082840312156100c9578081fd5b81516001600160a01b03811681146100df578182fd5b9392505050565b61344c806100f56000396000f3fe60806040523480156200001157600080fd5b50600436106200006a5760003560e01c8063715018a6146200006f5780637b103999146200007b57806382cbdc0f146200009d5780638da5cb5b14620000b4578063a3c9827a14620000be578063f2fde38b14620000d5575b600080fd5b62000079620000ec565b005b6200008562000104565b60405162000094919062000415565b60405180910390f35b62000085620000ae36600462000338565b62000113565b6200008562000191565b62000085620000cf36600462000314565b620001a0565b62000079620000e636600462000314565b620001bb565b620000f662000205565b6200010260006200024b565b565b6001546001600160a01b031681565b600080888888888888886040516200012b906200029f565b6200013d979695949392919062000429565b604051809103906000f0801580156200015a573d6000803e3d6000fd5b506001600160a01b038116600090815260026020526040902080546001600160a01b03191633179055915050979650505050505050565b6000546001600160a01b031690565b6002602052600090815260409020546001600160a01b031681565b620001c562000205565b6001600160a01b038116620001f75760405162461bcd60e51b8152600401620001ee9062000488565b60405180910390fd5b62000202816200024b565b50565b6200020f6200029b565b6001600160a01b03166200022262000191565b6001600160a01b031614620001025760405162461bcd60e51b8152600401620001ee90620004ce565b600080546001600160a01b038381166001600160a01b0319831681178455604051919092169283917f8be0079c531659141344cd1fd0a4f28419497f9722a3daafe3b4186f6b6457e09190a35050565b3390565b612f13806200050483390190565b80356001600160a01b0381168114620002c557600080fd5b919050565b60008083601f840112620002dc578182fd5b50813567ffffffffffffffff811115620002f4578182fd5b6020830191508360208285010111156200030d57600080fd5b9250929050565b60006020828403121562000326578081fd5b6200033182620002ad565b9392505050565b60008060008060008060006080888a03121562000353578283fd5b873567ffffffffffffffff808211156200036b578485fd5b620003798b838c01620002ca565b909950975060208a013591508082111562000392578485fd5b620003a08b838c01620002ca565b909750955060408a0135915080821115620003b9578485fd5b50620003c88a828b01620002ca565b9094509250620003dd905060608901620002ad565b905092959891949750929550565b60008284528282602086013780602084860101526020601f19601f85011685010190509392505050565b6001600160a01b0391909116815260200190565b6000608082526200043f60808301898b620003eb565b82810360208401526200045481888a620003eb565b905082810360408401526200046b818688620003eb565b91505060018060a01b038316606083015298975050505050505050565b60208082526026908201527f4f776e61626c653a206e6577206f776e657220697320746865207a65726f206160408201526564647265737360d01b606082015260800190565b6020808252818101527f4f776e61626c653a2063616c6c6572206973206e6f7420746865206f776e657260408201526060019056fe60806040523480156200001157600080fd5b5060405162002f1338038062002f138339810160408190526200003491620004f3565b838383828281600290805190602001906200005192919062000360565b5080516200006790600390602084019062000360565b5050600c805460ff191690555080516200008990600e90602084019062000360565b50620000a060006200009a620001cf565b620001d3565b620000cf7f9f2df0fed2c77648de5860a4cc508cd0818c85b8b8a1ab4ceeef8d981c8956a66200009a620001cf565b620000fe7f65d7a28e3265b37a6474929f336521b332c1681b933f6cb9f3376673440d862a6200009a620001cf565b5050601180546001600160a01b038085166001600160a01b031992831617909255600f805490911633179081905560408051637b10399960e01b81529051919092169250637b10399991600480820192602092909190829003018186803b1580156200016957600080fd5b505afa1580156200017e573d6000803e3d6000fd5b505050506040513d601f19601f82011682018060405250810190620001a49190620004d6565b601080546001600160a01b0319166001600160a01b039290921691909117905550620005e692505050565b3390565b620001df8282620001e3565b5050565b620001fa82826200022660201b62000cdf1760201c565b60008281526001602090815260409091206200022191839062000d64620002b0821b17901c565b505050565b620002328282620002d0565b620001df576000828152602081815260408083206001600160a01b03851684529091529020805460ff191660011790556200026c620001cf565b6001600160a01b0316816001600160a01b0316837f2f8788117e7eff1d82e926ec794901d17c78024a50270940304540a733656f0d60405160405180910390a45050565b6000620002c7836001600160a01b038416620002f9565b90505b92915050565b6000918252602082815260408084206001600160a01b0393909316845291905290205460ff1690565b600062000307838362000348565b6200033f57508154600181810184556000848152602080822090930184905584548482528286019093526040902091909155620002ca565b506000620002ca565b60009081526001919091016020526040902054151590565b8280546200036e9062000593565b90600052602060002090601f016020900481019282620003925760008555620003dd565b82601f10620003ad57805160ff1916838001178555620003dd565b82800160010185558215620003dd579182015b82811115620003dd578251825591602001919060010190620003c0565b50620003eb929150620003ef565b5090565b5b80821115620003eb5760008155600101620003f0565b80516001600160a01b03811681146200041e57600080fd5b919050565b600082601f83011262000434578081fd5b81516001600160401b0380821115620004515762000451620005d0565b604051601f8301601f19908116603f011681019082821181831017156200047c576200047c620005d0565b8160405283815260209250868385880101111562000498578485fd5b8491505b83821015620004bb57858201830151818301840152908201906200049c565b83821115620004cc57848385830101525b9695505050505050565b600060208284031215620004e8578081fd5b620002c78262000406565b6000806000806080858703121562000509578283fd5b84516001600160401b038082111562000520578485fd5b6200052e8883890162000423565b9550602087015191508082111562000544578485fd5b620005528883890162000423565b9450604087015191508082111562000568578384fd5b50620005778782880162000423565b925050620005886060860162000406565b905092959194509250565b600281046001821680620005a857607f821691505b60208210811415620005ca57634e487b7160e01b600052602260045260246000fd5b50919050565b634e487b7160e01b600052604160045260246000fd5b61291d80620005f66000396000f3fe608060405234801561001057600080fd5b50600436106102275760003560e01c806370a0823111610130578063a22cb465116100b8578063ca15c8731161007c578063ca15c8731461045d578063d539139314610470578063d547741f14610478578063e63ab1e91461048b578063e985e9c51461049357610227565b8063a22cb46514610409578063b6c084701461041c578063b88d4fde1461042f578063c45a015514610442578063c87b56dd1461044a57610227565b80638e37995a116100ff5780638e37995a146103c05780639010d07c146103d357806391d14854146103e657806395d89b41146103f9578063a217fddf1461040157610227565b806370a082311461038a5780637b1039991461039d5780637ce20fca146103a55780638456cb59146103b857610227565b80632f745c59116101b357806342966c681161018257806342966c68146103365780634f6ccce7146103495780635c975abb1461035c5780636352211e146103645780636a6278421461037757610227565b80632f745c59146102f557806336568abe146103085780633f4ba83a1461031b57806342842e0e1461032357610227565b806318160ddd116101fa57806318160ddd1461029f57806323b872dd146102b45780632450d13b146102c7578063248a9ca3146102cf5780632f2ff15d146102e257610227565b806301ffc9a71461022c57806306fdde0314610255578063081812fc1461026a578063095ea7b31461028a575b600080fd5b61023f61023a366004612074565b6104a6565b60405161024c919061219e565b60405180910390f35b61025d6104b9565b60405161024c91906121b2565b61027d610278366004612019565b61054b565b60405161024c919061214d565b61029d610298366004611ff0565b610572565b005b6102a7610613565b60405161024c91906121a9565b61029d6102c2366004611e8c565b610619565b61027d610651565b6102a76102dd366004612019565b610660565b61029d6102f0366004612031565b610675565b6102a7610303366004611ff0565b610691565b61029d610316366004612031565b6106e6565b61029d61072c565b61029d610331366004611e8c565b61077e565b61029d610344366004612019565b610799565b6102a7610357366004612019565b6107cc565b61023f610827565b61027d610372366004612019565b610830565b61029d610385366004611e40565b610864565b6102a7610398366004611e40565b6108c9565b61027d61090d565b61025d6103b3366004612019565b61091c565b61029d6109b6565b61029d6103ce366004611f67565b610a06565b61027d6103e1366004612053565b610a91565b61023f6103f4366004612031565b610ab0565b61025d610ad9565b6102a7610ae8565b61029d610417366004611f2d565b610aed565b61025d61042a366004612019565b610aff565b61029d61043d366004611ec7565b610b18565b61027d610b57565b61025d610458366004612019565b610b66565b6102a761046b366004612019565b610c36565b6102a7610c4d565b61029d610486366004612031565b610c71565b6102a7610c8d565b61023f6104a1366004611e5a565b610cb1565b60006104b182610d79565b90505b919050565b6060600280546104c89061286a565b80601f01602080910402602001604051908101604052809291908181526020018280546104f49061286a565b80156105415780601f1061051657610100808354040283529160200191610541565b820191906000526020600020905b81548152906001019060200180831161052457829003601f168201915b5050505050905090565b600061055682610d9e565b506000908152600660205260409020546001600160a01b031690565b600061057d82610830565b9050806001600160a01b0316836001600160a01b031614156105ba5760405162461bcd60e51b81526004016105b190612590565b60405180910390fd5b806001600160a01b03166105cc610dc3565b6001600160a01b031614806105e857506105e8816104a1610dc3565b6106045760405162461bcd60e51b81526004016105b1906125d1565b61060e8383610dc7565b505050565b600a5490565b61062a610624610dc3565b82610e35565b6106465760405162461bcd60e51b81526004016105b190612273565b61060e838383610e94565b6011546001600160a01b031681565b60009081526020819052604090206001015490565b61067e82610660565b61068781610fd1565b61060e8383610fe2565b600061069c836108c9565b82106106ba5760405162461bcd60e51b81526004016105b1906122c0565b506001600160a01b03821660009081526008602090815260408083208484529091529020545b92915050565b6106ee610dc3565b6001600160a01b0316816001600160a01b03161461071e5760405162461bcd60e51b81526004016105b19061278a565b6107288282611004565b5050565b6107587f65d7a28e3265b37a6474929f336521b332c1681b933f6cb9f3376673440d862a6103f4610dc3565b6107745760405162461bcd60e51b81526004016105b19061272c565b61077c611026565b565b61060e83838360405180602001604052806000815250610b18565b6107a4610624610dc3565b6107c05760405162461bcd60e51b81526004016105b190612273565b6107c981611078565b50565b60006107d6610613565b82106107f45760405162461bcd60e51b81526004016105b19061262e565b600a828154811061081557634e487b7160e01b600052603260045260246000fd5b90600052602060002001549050919050565b600c5460ff1690565b60008061083c83611125565b90506001600160a01b0381166104b15760405162461bcd60e51b81526004016105b190612559565b6108907f9f2df0fed2c77648de5860a4cc508cd0818c85b8b8a1ab4ceeef8d981c8956a66103f4610dc3565b6108ac5760405162461bcd60e51b81526004016105b1906126cf565b6108bf816108ba600d611140565b611144565b6107c9600d611239565b60006001600160a01b0382166108f15760405162461bcd60e51b81526004016105b1906124db565b506001600160a01b031660009081526005602052604090205490565b6010546001600160a01b031681565b601360205260009081526040902080546109359061286a565b80601f01602080910402602001604051908101604052809291908181526020018280546109619061286a565b80156109ae5780601f10610983576101008083540402835291602001916109ae565b820191906000526020600020905b81548152906001019060200180831161099157829003601f168201915b505050505081565b6109e27f65d7a28e3265b37a6474929f336521b332c1681b933f6cb9f3376673440d862a6103f4610dc3565b6109fe5760405162461bcd60e51b81526004016105b1906123d9565b61077c611242565b610a0f84610864565b60006001610a1b610613565b610a259190612810565b60008181526012602090815260409091208651929350610a49929091870190611d09565b5060008181526013602090815260409091208451610a6992860190611d09565b5060008181526014602090815260409091208351610a8992850190611d09565b505050505050565b6000828152600160205260408120610aa99083611280565b9392505050565b6000918252602082815260408084206001600160a01b0393909316845291905290205460ff1690565b6060600380546104c89061286a565b600081565b610728610af8610dc3565b838361128c565b601460205260009081526040902080546109359061286a565b610b29610b23610dc3565b83610e35565b610b455760405162461bcd60e51b81526004016105b190612273565b610b518484848461132f565b50505050565b600f546001600160a01b031681565b600081815260126020526040812080546060929190610b849061286a565b905011610b9857610b93611362565b6104b1565b60008281526012602052604090208054610bb19061286a565b80601f0160208091040260200160405190810160405280929190818152602001828054610bdd9061286a565b8015610c2a5780601f10610bff57610100808354040283529160200191610c2a565b820191906000526020600020905b815481529060010190602001808311610c0d57829003601f168201915b50505050509050919050565b60008181526001602052604081206104b190611371565b7f9f2df0fed2c77648de5860a4cc508cd0818c85b8b8a1ab4ceeef8d981c8956a681565b610c7a82610660565b610c8381610fd1565b61060e8383611004565b7f65d7a28e3265b37a6474929f336521b332c1681b933f6cb9f3376673440d862a81565b6001600160a01b03918216600090815260076020908152604080832093909416825291909152205460ff1690565b610ce98282610ab0565b610728576000828152602081815260408083206001600160a01b03851684529091529020805460ff19166001179055610d20610dc3565b6001600160a01b0316816001600160a01b0316837f2f8788117e7eff1d82e926ec794901d17c78024a50270940304540a733656f0d60405160405180910390a45050565b6000610aa9836001600160a01b03841661137c565b60006001600160e01b0319821663780e9d6360e01b14806104b157506104b1826113c6565b610da781611406565b6107c95760405162461bcd60e51b81526004016105b190612559565b3390565b600081815260066020526040902080546001600160a01b0319166001600160a01b0384169081179091558190610dfc82610830565b6001600160a01b03167f8c5be1e5ebec7d5bd14f71427d1e84f3dd0314c0f7b2291e5b200ac8c7c3b92560405160405180910390a45050565b600080610e4183610830565b9050806001600160a01b0316846001600160a01b03161480610e685750610e688185610cb1565b80610e8c5750836001600160a01b0316610e818461054b565b6001600160a01b0316145b949350505050565b826001600160a01b0316610ea782610830565b6001600160a01b031614610ecd5760405162461bcd60e51b81526004016105b19061235d565b6001600160a01b038216610ef35760405162461bcd60e51b81526004016105b190612436565b610f008383836001611423565b826001600160a01b0316610f1382610830565b6001600160a01b031614610f395760405162461bcd60e51b81526004016105b19061235d565b600081815260066020908152604080832080546001600160a01b03199081169091556001600160a01b0387811680865260058552838620805460001901905590871680865283862080546001019055868652600490945282852080549092168417909155905184937fddf252ad1be2c89b69c2b068fc378daa952ba7f163c4a11628f55a4df523b3ef91a461060e8383836001610b51565b6107c981610fdd610dc3565b61142f565b610fec8282610cdf565b600082815260016020526040902061060e9082610d64565b61100e8282611488565b600082815260016020526040902061060e908261150b565b61102e611520565b600c805460ff191690557f5db9ee0a495bf2e6ff9c91a7834c1ba4fdd244a5e8aa4e537bd38aeae4b073aa611061610dc3565b60405161106e919061214d565b60405180910390a1565b600061108382610830565b9050611093816000846001611423565b61109c82610830565b600083815260066020908152604080832080546001600160a01b03199081169091556001600160a01b0385168085526005845282852080546000190190558785526004909352818420805490911690555192935084927fddf252ad1be2c89b69c2b068fc378daa952ba7f163c4a11628f55a4df523b3ef908390a4610728816000846001610b51565b6000908152600460205260409020546001600160a01b031690565b5490565b6001600160a01b03821661116a5760405162461bcd60e51b81526004016105b190612524565b61117381611406565b156111905760405162461bcd60e51b81526004016105b1906123a2565b61119e600083836001611423565b6111a781611406565b156111c45760405162461bcd60e51b81526004016105b1906123a2565b6001600160a01b038216600081815260056020908152604080832080546001019055848352600490915280822080546001600160a01b0319168417905551839291907fddf252ad1be2c89b69c2b068fc378daa952ba7f163c4a11628f55a4df523b3ef908290a4610728600083836001610b51565b80546001019055565b61124a611544565b600c805460ff191660011790557f62e78cea01bee320cd4e420270b5ea74000d11b0c9f74754ebdbfc544b05a258611061610dc3565b6000610aa98383611569565b816001600160a01b0316836001600160a01b031614156112be5760405162461bcd60e51b81526004016105b19061247a565b6001600160a01b0383811660008181526007602090815260408083209487168084529490915290819020805460ff1916851515179055517f17307eab39ab6107e8899845ad3d59bd9653f200f220920489ca2b5937696c319061132290859061219e565b60405180910390a3505050565b61133a848484610e94565b611346848484846115a1565b610b515760405162461bcd60e51b81526004016105b19061230b565b6060600e80546104c89061286a565b60006104b182611140565b600061138883836116bc565b6113be575081546001818101845560008481526020808220909301849055845484825282860190935260409020919091556106e0565b5060006106e0565b60006001600160e01b031982166380ac58cd60e01b14806113f757506001600160e01b03198216635b5e139f60e01b145b806104b157506104b1826116d4565b60008061141283611125565b6001600160a01b0316141592915050565b610b51848484846116f9565b6114398282610ab0565b610728576114468161172a565b61145183602061173c565b6040516020016114629291906120d8565b60408051601f198184030181529082905262461bcd60e51b82526105b1916004016121b2565b6114928282610ab0565b15610728576000828152602081815260408083206001600160a01b03851684529091529020805460ff191690556114c7610dc3565b6001600160a01b0316816001600160a01b0316837ff6391f5c32d9c69d2a47ea670b442974b53935d1edc7fd64eb21e047a839171b60405160405180910390a45050565b6000610aa9836001600160a01b0384166118ee565b611528610827565b61077c5760405162461bcd60e51b81526004016105b190612245565b61154c610827565b1561077c5760405162461bcd60e51b81526004016105b1906124b1565b600082600001828154811061158e57634e487b7160e01b600052603260045260246000fd5b9060005260206000200154905092915050565b60006115b5846001600160a01b0316611a0b565b156116b157836001600160a01b031663150b7a026115d1610dc3565b8786866040518563ffffffff1660e01b81526004016115f39493929190612161565b602060405180830381600087803b15801561160d57600080fd5b505af192505050801561163d575060408051601f3d908101601f1916820190925261163a91810190612090565b60015b611697573d80801561166b576040519150601f19603f3d011682016040523d82523d6000602084013e611670565b606091505b50805161168f5760405162461bcd60e51b81526004016105b19061230b565b805181602001fd5b6001600160e01b031916630a85bd0160e11b149050610e8c565b506001949350505050565b60009081526001919091016020526040902054151590565b60006001600160e01b03198216635a05180f60e01b14806104b157506104b182611a1a565b61170584848484611a3f565b61170d610827565b15610b515760405162461bcd60e51b81526004016105b1906121fa565b60606104b16001600160a01b03831660145b6060600061174b8360026127f1565b6117569060026127d9565b67ffffffffffffffff81111561177c57634e487b7160e01b600052604160045260246000fd5b6040519080825280601f01601f1916602001820160405280156117a6576020820181803683370190505b509050600360fc1b816000815181106117cf57634e487b7160e01b600052603260045260246000fd5b60200101906001600160f81b031916908160001a905350600f60fb1b8160018151811061180c57634e487b7160e01b600052603260045260246000fd5b60200101906001600160f81b031916908160001a90535060006118308460026127f1565b61183b9060016127d9565b90505b60018111156118cf576f181899199a1a9b1b9c1cb0b131b232b360811b85600f166010811061187d57634e487b7160e01b600052603260045260246000fd5b1a60f81b8282815181106118a157634e487b7160e01b600052603260045260246000fd5b60200101906001600160f81b031916908160001a90535060049490941c936118c881612853565b905061183e565b508315610aa95760405162461bcd60e51b81526004016105b1906121c5565b60008181526001830160205260408120548015611a01576000611912600183612810565b855490915060009061192690600190612810565b90508181146119a757600086600001828154811061195457634e487b7160e01b600052603260045260246000fd5b906000526020600020015490508087600001848154811061198557634e487b7160e01b600052603260045260246000fd5b6000918252602080832090910192909255918252600188019052604090208390555b85548690806119c657634e487b7160e01b600052603160045260246000fd5b6001900381819060005260206000200160009055905585600101600086815260200190815260200160002060009055600193505050506106e0565b60009150506106e0565b6001600160a01b03163b151590565b60006001600160e01b03198216637965db0b60e01b14806104b157506104b182611af2565b611a4b84848484610b51565b6001811115611a6c5760405162461bcd60e51b81526004016105b19061267a565b816001600160a01b038516611a8957611a8481611b0b565b611aac565b836001600160a01b0316856001600160a01b031614611aac57611aac8582611b4f565b6001600160a01b038416611ac857611ac381611bec565b611aeb565b846001600160a01b0316846001600160a01b031614611aeb57611aeb8482611cc5565b5050505050565b6001600160e01b031981166301ffc9a760e01b14919050565b600a80546000838152600b60205260408120829055600182018355919091527fc65a7bb8d6351c1cf70c95a316cc6a92839c986682d98bc35f958f4883f9d2a80155565b60006001611b5c846108c9565b611b669190612810565b600083815260096020526040902054909150808214611bb9576001600160a01b03841660009081526008602090815260408083208584528252808320548484528184208190558352600990915290208190555b5060009182526009602090815260408084208490556001600160a01b039094168352600881528383209183525290812055565b600a54600090611bfe90600190612810565b6000838152600b6020526040812054600a8054939450909284908110611c3457634e487b7160e01b600052603260045260246000fd5b9060005260206000200154905080600a8381548110611c6357634e487b7160e01b600052603260045260246000fd5b6000918252602080832090910192909255828152600b9091526040808220849055858252812055600a805480611ca957634e487b7160e01b600052603160045260246000fd5b6001900381819060005260206000200160009055905550505050565b6000611cd0836108c9565b6001600160a01b039093166000908152600860209081526040808320868452825280832085905593825260099052919091209190915550565b828054611d159061286a565b90600052602060002090601f016020900481019282611d375760008555611d7d565b82601f10611d5057805160ff1916838001178555611d7d565b82800160010185558215611d7d579182015b82811115611d7d578251825591602001919060010190611d62565b50611d89929150611d8d565b5090565b5b80821115611d895760008155600101611d8e565b80356001600160a01b03811681146104b457600080fd5b600082601f830112611dc9578081fd5b813567ffffffffffffffff80821115611de457611de46128bb565b604051601f8301601f19908116603f01168101908282118183101715611e0c57611e0c6128bb565b81604052838152866020858801011115611e24578485fd5b8360208701602083013792830160200193909352509392505050565b600060208284031215611e51578081fd5b610aa982611da2565b60008060408385031215611e6c578081fd5b611e7583611da2565b9150611e8360208401611da2565b90509250929050565b600080600060608486031215611ea0578081fd5b611ea984611da2565b9250611eb760208501611da2565b9150604084013590509250925092565b60008060008060808587031215611edc578081fd5b611ee585611da2565b9350611ef360208601611da2565b925060408501359150606085013567ffffffffffffffff811115611f15578182fd5b611f2187828801611db9565b91505092959194509250565b60008060408385031215611f3f578182fd5b611f4883611da2565b915060208301358015158114611f5c578182fd5b809150509250929050565b60008060008060808587031215611f7c578384fd5b611f8585611da2565b9350602085013567ffffffffffffffff80821115611fa1578485fd5b611fad88838901611db9565b94506040870135915080821115611fc2578384fd5b611fce88838901611db9565b93506060870135915080821115611fe3578283fd5b50611f2187828801611db9565b60008060408385031215612002578182fd5b61200b83611da2565b946020939093013593505050565b60006020828403121561202a578081fd5b5035919050565b60008060408385031215612043578182fd5b82359150611e8360208401611da2565b60008060408385031215612065578182fd5b50508035926020909101359150565b600060208284031215612085578081fd5b8135610aa9816128d1565b6000602082840312156120a1578081fd5b8151610aa9816128d1565b600081518084526120c4816020860160208601612827565b601f01601f19169290920160200192915050565b60007f416363657373436f6e74726f6c3a206163636f756e742000000000000000000082528351612110816017850160208801612827565b7001034b99036b4b9b9b4b733903937b6329607d1b6017918401918201528351612141816028840160208801612827565b01602801949350505050565b6001600160a01b0391909116815260200190565b6001600160a01b0385811682528416602082015260408101839052608060608201819052600090612194908301846120ac565b9695505050505050565b901515815260200190565b90815260200190565b600060208252610aa960208301846120ac565b6020808252818101527f537472696e67733a20686578206c656e67746820696e73756666696369656e74604082015260600190565b6020808252602b908201527f4552433732315061757361626c653a20746f6b656e207472616e73666572207760408201526a1a1a5b19481c185d5cd95960aa1b606082015260800190565b60208082526014908201527314185d5cd8589b194e881b9bdd081c185d5cd95960621b604082015260600190565b6020808252602d908201527f4552433732313a2063616c6c6572206973206e6f7420746f6b656e206f776e6560408201526c1c881bdc88185c1c1c9bdd9959609a1b606082015260800190565b6020808252602b908201527f455243373231456e756d657261626c653a206f776e657220696e646578206f7560408201526a74206f6620626f756e647360a81b606082015260800190565b60208082526032908201527f4552433732313a207472616e7366657220746f206e6f6e20455243373231526560408201527131b2b4bb32b91034b6b83632b6b2b73a32b960711b606082015260800190565b60208082526025908201527f4552433732313a207472616e736665722066726f6d20696e636f72726563742060408201526437bbb732b960d91b606082015260800190565b6020808252601c908201527f4552433732313a20746f6b656e20616c7265616479206d696e74656400000000604082015260600190565b6020808252603e908201527f4552433732315072657365744d696e7465725061757365724175746f49643a2060408201527f6d75737420686176652070617573657220726f6c6520746f2070617573650000606082015260800190565b60208082526024908201527f4552433732313a207472616e7366657220746f20746865207a65726f206164646040820152637265737360e01b606082015260800190565b60208082526019908201527f4552433732313a20617070726f766520746f2063616c6c657200000000000000604082015260600190565b60208082526010908201526f14185d5cd8589b194e881c185d5cd95960821b604082015260600190565b60208082526029908201527f4552433732313a2061646472657373207a65726f206973206e6f7420612076616040820152683634b21037bbb732b960b91b606082015260800190565b6020808252818101527f4552433732313a206d696e7420746f20746865207a65726f2061646472657373604082015260600190565b60208082526018908201527f4552433732313a20696e76616c696420746f6b656e2049440000000000000000604082015260600190565b60208082526021908201527f4552433732313a20617070726f76616c20746f2063757272656e74206f776e656040820152603960f91b606082015260800190565b6020808252603d908201527f4552433732313a20617070726f76652063616c6c6572206973206e6f7420746f60408201527f6b656e206f776e6572206f7220617070726f76656420666f7220616c6c000000606082015260800190565b6020808252602c908201527f455243373231456e756d657261626c653a20676c6f62616c20696e646578206f60408201526b7574206f6620626f756e647360a01b606082015260800190565b60208082526035908201527f455243373231456e756d657261626c653a20636f6e7365637574697665207472604082015274185b9cd9995c9cc81b9bdd081cdd5c1c1bdc9d1959605a1b606082015260800190565b6020808252603d908201527f4552433732315072657365744d696e7465725061757365724175746f49643a2060408201527f6d7573742068617665206d696e74657220726f6c6520746f206d696e74000000606082015260800190565b602080825260409082018190527f4552433732315072657365744d696e7465725061757365724175746f49643a20908201527f6d75737420686176652070617573657220726f6c6520746f20756e7061757365606082015260800190565b6020808252602f908201527f416363657373436f6e74726f6c3a2063616e206f6e6c792072656e6f756e636560408201526e103937b632b9903337b91039b2b63360891b606082015260800190565b600082198211156127ec576127ec6128a5565b500190565b600081600019048311821515161561280b5761280b6128a5565b500290565b600082821015612822576128226128a5565b500390565b60005b8381101561284257818101518382015260200161282a565b83811115610b515750506000910152565b600081612862576128626128a5565b506000190190565b60028104600182168061287e57607f821691505b6020821081141561289f57634e487b7160e01b600052602260045260246000fd5b50919050565b634e487b7160e01b600052601160045260246000fd5b634e487b7160e01b600052604160045260246000fd5b6001600160e01b0319811681146107c957600080fdfea2646970667358221220668cb45d03a087b911022fa5f3d2347a783f526cb7af86c40de97cb7c7d9b32164736f6c63430008010033a2646970667358221220b759abce76519412fcfbf2dd2e813eaf87ba5fd360c1ff16dbe4e41d80c7070e64736f6c63430008010033",
  "linkReferences": {},
  "deployedLinkReferences": {}
}