{
  "address": "0xe2BB8Fc3c2c35827FA5dc1C7b2E0c585DfB32f19",
  "abi": [
    {
      "inputs": [
        {
          "internalType": "address",
          "name": "registryArg",
          "type": "address"
        }
      ],
      "stateMutability": "nonpayable",
      "type": "constructor"
    },
    {
      "anonymous": false,
      "inputs": [
        {
          "indexed": true,
          "internalType": "address",
          "name": "previousOwner",
          "type": "address"
        },
        {
          "indexed": true,
          "internalType": "address",
          "name": "newOwner",
          "type": "address"
        }
      ],
      "name": "OwnershipTransferred",
      "type": "event"
    },
    {
      "inputs": [
        {
          "internalType": "string",
          "name": "projectName",
          "type": "string"
        },
        {
          "internalType": "string",
          "name": "name",
          "type": "string"
        },
        {
          "internalType": "string",
          "name": "symbol",
          "type": "string"
        },
        {
          "internalType": "string",
          "name": "tokenURI",
          "type": "string"
        },
        {
          "internalType": "address",
          "name": "fusionImplementation",
          "type": "address"
        }
      ],
      "name": "create",
      "outputs": [
        {
          "internalType": "address",
          "name": "",
          "type": "address"
        }
      ],
      "stateMutability": "nonpayable",
      "type": "function"
    },
    {
      "inputs": [
        {
          "internalType": "address",
          "name": "",
          "type": "address"
        }
      ],
      "name": "erc721Owner",
      "outputs": [
        {
          "internalType": "address",
          "name": "",
          "type": "address"
        }
      ],
      "stateMutability": "view",
      "type": "function"
    },
    {
      "inputs": [],
      "name": "getProjects",
      "outputs": [
        {
          "internalType": "string[]",
          "name": "",
          "type": "string[]"
        }
      ],
      "stateMutability": "view",
      "type": "function"
    },
    {
      "inputs": [],
      "name": "owner",
      "outputs": [
        {
          "internalType": "address",
          "name": "",
          "type": "address"
        }
      ],
      "stateMutability": "view",
      "type": "function"
    },
    {
      "inputs": [
        {
          "internalType": "string",
          "name": "",
          "type": "string"
        }
      ],
      "name": "projectMap",
      "outputs": [
        {
          "internalType": "address",
          "name": "",
          "type": "address"
        }
      ],
      "stateMutability": "view",
      "type": "function"
    },
    {
      "inputs": [
        {
          "internalType": "uint256",
          "name": "",
          "type": "uint256"
        }
      ],
      "name": "projects",
      "outputs": [
        {
          "internalType": "string",
          "name": "",
          "type": "string"
        }
      ],
      "stateMutability": "view",
      "type": "function"
    },
    {
      "inputs": [],
      "name": "registry",
      "outputs": [
        {
          "internalType": "address",
          "name": "",
          "type": "address"
        }
      ],
      "stateMutability": "view",
      "type": "function"
    },
    {
      "inputs": [],
      "name": "renounceOwnership",
      "outputs": [],
      "stateMutability": "nonpayable",
      "type": "function"
    },
    {
      "inputs": [
        {
          "internalType": "address",
          "name": "newOwner",
          "type": "address"
        }
      ],
      "name": "transferOwnership",
      "outputs": [],
      "stateMutability": "nonpayable",
      "type": "function"
    }
  ],
  "transactionHash": "0x99d907dd0c5157c39d4accf189a7e1f628f9986ccc428b933c74be5a402d4270",
  "args": [
    "0x62ff6b3C0179A84BA63191Be9c11fabaa6345A44"
  ],
  "numDeployments": 1,
  "solcInputHash": "0e5a72af5470603bdf257172dbe864d0",
  "bytecode": "0x608060405234801561001057600080fd5b5060405161437938038061437983398101604081905261002f916100b8565b61003f61003a610064565b610068565b600180546001600160a01b0319166001600160a01b03929092169190911790556100e6565b3390565b600080546001600160a01b038381166001600160a01b0319831681178455604051919092169283917f8be0079c531659141344cd1fd0a4f28419497f9722a3daafe3b4186f6b6457e09190a35050565b6000602082840312156100c9578081fd5b81516001600160a01b03811681146100df578182fd5b9392505050565b614284806100f56000396000f3fe60806040523480156200001157600080fd5b5060043610620000a05760003560e01c80637b103999116200006f5780637b103999146200011d5780638da5cb5b1462000127578063a3c9827a1462000131578063dcc601281462000148578063f2fde38b146200016157620000a0565b80630966375014620000a5578063107046bd14620000d45780631a8c7f3b14620000fa578063715018a61462000111575b600080fd5b620000bc620000b636600462000707565b62000178565b604051620000cb91906200093a565b60405180910390f35b620000eb620000e536600462000899565b620002de565b604051620000cb919062000a11565b620000bc6200010b366004620007e5565b62000393565b6200011b620003b9565b005b620000bc620003d1565b620000bc620003e0565b620000bc62000142366004620006e3565b620003ef565b620001526200040a565b604051620000cb91906200094e565b6200011b62000172366004620006e3565b620004ed565b6000806001600160a01b031660048b8b604051620001989291906200092a565b908152604051908190036020019020546001600160a01b031614620001da5760405162461bcd60e51b8152600401620001d19062000a6c565b60405180910390fd5b600088888888888888604051620001f190620005c8565b620002039796959493929190620009b2565b604051809103906000f08015801562000220573d6000803e3d6000fd5b506001600160a01b038116600090815260026020526040812080546001600160a01b03191633179055600380546001810182559152909150819062000289907fc2575a0e9e593c00f959f8c92f12db2869c3395a3b0502d05e2516446f71f85b018d8d620005d6565b508060048d8d6040516200029f9291906200092a565b90815260405190819003602001902080546001600160a01b03929092166001600160a01b03199092169190911790559150509998505050505050505050565b60038181548110620002ef57600080fd5b9060005260206000200160009150905080546200030c9062000ac2565b80601f01602080910402602001604051908101604052809291908181526020018280546200033a9062000ac2565b80156200038b5780601f106200035f576101008083540402835291602001916200038b565b820191906000526020600020905b8154815290600101906020018083116200036d57829003601f168201915b505050505081565b80516020818301810180516004825292820191909301209152546001600160a01b031681565b620003c36200052e565b620003cf600062000574565b565b6001546001600160a01b031681565b6000546001600160a01b031690565b6002602052600090815260409020546001600160a01b031681565b60606003805480602002602001604051908101604052809291908181526020016000905b82821015620004e4578382906000526020600020018054620004509062000ac2565b80601f01602080910402602001604051908101604052809291908181526020018280546200047e9062000ac2565b8015620004cf5780601f10620004a357610100808354040283529160200191620004cf565b820191906000526020600020905b815481529060010190602001808311620004b157829003601f168201915b5050505050815260200190600101906200042e565b50505050905090565b620004f76200052e565b6001600160a01b038116620005205760405162461bcd60e51b8152600401620001d19062000a26565b6200052b8162000574565b50565b62000538620005c4565b6001600160a01b03166200054b620003e0565b6001600160a01b031614620003cf5760405162461bcd60e51b8152600401620001d19062000a8d565b600080546001600160a01b038381166001600160a01b0319831681178455604051919092169283917f8be0079c531659141344cd1fd0a4f28419497f9722a3daafe3b4186f6b6457e09190a35050565b3390565b6137398062000b1683390190565b828054620005e49062000ac2565b90600052602060002090601f01602090048101928262000608576000855562000653565b82601f10620006235782800160ff1982351617855562000653565b8280016001018555821562000653579182015b828111156200065357823582559160200191906001019062000636565b506200066192915062000665565b5090565b5b8082111562000661576000815560010162000666565b80356001600160a01b03811681146200069457600080fd5b919050565b60008083601f840112620006ab578081fd5b50813567ffffffffffffffff811115620006c3578182fd5b602083019150836020828501011115620006dc57600080fd5b9250929050565b600060208284031215620006f5578081fd5b62000700826200067c565b9392505050565b600080600080600080600080600060a08a8c03121562000725578485fd5b893567ffffffffffffffff808211156200073d578687fd5b6200074b8d838e0162000699565b909b50995060208c013591508082111562000764578687fd5b620007728d838e0162000699565b909950975060408c01359150808211156200078b578687fd5b620007998d838e0162000699565b909750955060608c0135915080821115620007b2578485fd5b50620007c18c828d0162000699565b9094509250620007d6905060808b016200067c565b90509295985092959850929598565b600060208284031215620007f7578081fd5b813567ffffffffffffffff808211156200080f578283fd5b818401915084601f83011262000823578283fd5b81358181111562000838576200083862000aff565b604051601f8201601f19908116603f0116810190838211818310171562000863576200086362000aff565b816040528281528760208487010111156200087c578586fd5b826020860160208301379182016020019490945295945050505050565b600060208284031215620008ab578081fd5b5035919050565b60008284528282602086013780602084860101526020601f19601f85011685010190509392505050565b60008151808452815b818110156200090357602081850181015186830182015201620008e5565b81811115620009155782602083870101525b50601f01601f19169290920160200192915050565b6000828483379101908152919050565b6001600160a01b0391909116815260200190565b6000602080830181845280855180835260408601915060408482028701019250838701855b82811015620009a557603f1988860301845262000992858351620008dc565b9450928501929085019060010162000973565b5092979650505050505050565b600060808252620009c860808301898b620008b2565b8281036020840152620009dd81888a620008b2565b90508281036040840152620009f4818688620008b2565b91505060018060a01b038316606083015298975050505050505050565b600060208252620007006020830184620008dc565b60208082526026908201527f4f776e61626c653a206e6577206f776e657220697320746865207a65726f206160408201526564647265737360d01b606082015260800190565b6020808252600790820152662827232fa9a82760c91b604082015260600190565b6020808252818101527f4f776e61626c653a2063616c6c6572206973206e6f7420746865206f776e6572604082015260600190565b60028104600182168062000ad757607f821691505b6020821081141562000af957634e487b7160e01b600052602260045260246000fd5b50919050565b634e487b7160e01b600052604160045260246000fdfe60806040523480156200001157600080fd5b5060405162003739380380620037398339810160408190526200003491620004f3565b838383828281600290805190602001906200005192919062000360565b5080516200006790600390602084019062000360565b5050600c805460ff191690555080516200008990600e90602084019062000360565b50620000a060006200009a620001cf565b620001d3565b620000cf7f9f2df0fed2c77648de5860a4cc508cd0818c85b8b8a1ab4ceeef8d981c8956a66200009a620001cf565b620000fe7f65d7a28e3265b37a6474929f336521b332c1681b933f6cb9f3376673440d862a6200009a620001cf565b5050601180546001600160a01b038085166001600160a01b031992831617909255600f805490911633179081905560408051637b10399960e01b81529051919092169250637b10399991600480820192602092909190829003018186803b1580156200016957600080fd5b505afa1580156200017e573d6000803e3d6000fd5b505050506040513d601f19601f82011682018060405250810190620001a49190620004d6565b601080546001600160a01b0319166001600160a01b039290921691909117905550620005e692505050565b3390565b620001df8282620001e3565b5050565b620001fa82826200022660201b620012f81760201c565b6000828152600160209081526040909120620002219183906200137d620002b0821b17901c565b505050565b620002328282620002d0565b620001df576000828152602081815260408083206001600160a01b03851684529091529020805460ff191660011790556200026c620001cf565b6001600160a01b0316816001600160a01b0316837f2f8788117e7eff1d82e926ec794901d17c78024a50270940304540a733656f0d60405160405180910390a45050565b6000620002c7836001600160a01b038416620002f9565b90505b92915050565b6000918252602082815260408084206001600160a01b0393909316845291905290205460ff1690565b600062000307838362000348565b6200033f57508154600181810184556000848152602080822090930184905584548482528286019093526040902091909155620002ca565b506000620002ca565b60009081526001919091016020526040902054151590565b8280546200036e9062000593565b90600052602060002090601f016020900481019282620003925760008555620003dd565b82601f10620003ad57805160ff1916838001178555620003dd565b82800160010185558215620003dd579182015b82811115620003dd578251825591602001919060010190620003c0565b50620003eb929150620003ef565b5090565b5b80821115620003eb5760008155600101620003f0565b80516001600160a01b03811681146200041e57600080fd5b919050565b600082601f83011262000434578081fd5b81516001600160401b0380821115620004515762000451620005d0565b604051601f8301601f19908116603f011681019082821181831017156200047c576200047c620005d0565b8160405283815260209250868385880101111562000498578485fd5b8491505b83821015620004bb57858201830151818301840152908201906200049c565b83821115620004cc57848385830101525b9695505050505050565b600060208284031215620004e8578081fd5b620002c78262000406565b6000806000806080858703121562000509578283fd5b84516001600160401b038082111562000520578485fd5b6200052e8883890162000423565b9550602087015191508082111562000544578485fd5b620005528883890162000423565b9450604087015191508082111562000568578384fd5b50620005778782880162000423565b925050620005886060860162000406565b905092959194509250565b600281046001821680620005a857607f821691505b60208210811415620005ca57634e487b7160e01b600052602260045260246000fd5b50919050565b634e487b7160e01b600052604160045260246000fd5b61314380620005f66000396000f3fe608060405234801561001057600080fd5b506004361061027f5760003560e01c806369d392191161015c578063a217fddf116100ce578063c87b56dd11610087578063c87b56dd1461054b578063ca15c8731461055e578063d539139314610571578063d547741f14610579578063e63ab1e91461058c578063e985e9c5146105945761027f565b8063a217fddf146104fa578063a22cb46514610502578063b5a25e5814610515578063b6c084701461051d578063b88d4fde14610530578063c45a0155146105435761027f565b80638456cb59116101205780638456cb591461049c5780638c7a63ae146104a45780639010d07c146104c457806391d14854146104d757806395d89b41146104ea5780639a24a25b146104f25761027f565b806369d39219146104485780636a6278421461045b57806370a082311461046e5780637b103999146104815780637ce20fca146104895761027f565b8063248a9ca3116101f557806342842e0e116101b957806342842e0e146103d457806342966c68146103e75780634f6ccce7146103fa5780635c975abb1461040d5780636352211e146104155780636970bb0a146104285761027f565b8063248a9ca3146103805780632f2ff15d146103935780632f745c59146103a657806336568abe146103b95780633f4ba83a146103cc5761027f565b806318160ddd1161024757806318160ddd146103175780631e9f4c091461032c5780631f5caafb1461033f57806320361a731461035257806323b872dd146103655780632450d13b146103785761027f565b806301ffc9a71461028457806306fdde03146102ad578063081812fc146102c2578063095ea7b3146102e25780631407778a146102f7575b600080fd5b610297610292366004612776565b6105a7565b6040516102a491906129c2565b60405180910390f35b6102b56105ba565b6040516102a491906129d6565b6102d56102d036600461271b565b61064c565b6040516102a491906128fe565b6102f56102f03660046126f2565b610673565b005b61030a6103053660046124a6565b610714565b6040516102a4919061294f565b61031f61080b565b6040516102a491906129cd565b6102f561033a3660046125cd565b610811565b6102b561034d36600461271b565b6108a9565b61031f610360366004612755565b61094b565b6102f56103733660046124f2565b61097c565b6102d56109b4565b61031f61038e36600461271b565b6109c3565b6102f56103a1366004612733565b6109d8565b61031f6103b43660046126f2565b6109f4565b6102f56103c7366004612733565b610a49565b6102f5610a8f565b6102f56103e23660046124f2565b610ae1565b6102f56103f536600461271b565b610afc565b61031f61040836600461271b565b610b2f565b610297610b8a565b6102d561042336600461271b565b610b93565b61043b6104363660046124a6565b610bc7565b6040516102a491906129af565b61043b61045636600461271b565b610cbe565b61031f6104693660046124a6565b610d1f565b61031f61047c3660046124a6565b610d42565b6102d5610d86565b6102b561049736600461271b565b610d95565b6102f5610e2f565b6104b76104b236600461271b565b610e7f565b6040516102a49190612fa0565b6102d56104d2366004612755565b611054565b6102976104e5366004612733565b611073565b6102b561109c565b61030a6110ab565b61031f611177565b6102f5610510366004612593565b61117c565b6102d561118e565b6102b561052b36600461271b565b61119d565b6102f561053e36600461252d565b6111b6565b6102d56111f5565b6102b561055936600461271b565b611204565b61031f61056c36600461271b565b61124f565b61031f611266565b6102f5610587366004612733565b61128a565b61031f6112a6565b6102976105a23660046124c0565b6112ca565b60006105b282611392565b90505b919050565b6060600280546105c990613075565b80601f01602080910402602001604051908101604052809291908181526020018280546105f590613075565b80156106425780601f1061061757610100808354040283529160200191610642565b820191906000526020600020905b81548152906001019060200180831161062557829003601f168201915b5050505050905090565b6000610657826113b7565b506000908152600660205260409020546001600160a01b031690565b600061067e82610b93565b9050806001600160a01b0316836001600160a01b031614156106bb5760405162461bcd60e51b81526004016106b290612db4565b60405180910390fd5b806001600160a01b03166106cd6113dc565b6001600160a01b031614806106e957506106e9816105a26113dc565b6107055760405162461bcd60e51b81526004016106b290612df5565b61070f83836113e0565b505050565b6060600061072183610bc7565b90506000815167ffffffffffffffff81111561074d57634e487b7160e01b600052604160045260246000fd5b60405190808252806020026020018201604052801561078657816020015b610773612322565b81526020019060019003908161076b5790505b50905060005b8251811015610803576107c58382815181106107b857634e487b7160e01b600052603260045260246000fd5b6020026020010151610e7f565b8282815181106107e557634e487b7160e01b600052603260045260246000fd5b602002602001018190525080806107fb906130b0565b91505061078c565b509392505050565b600a5490565b600061081c86610d1f565b60008181526012602090815260409091208751929350610840929091880190612351565b506000818152601360209081526040909120855161086092870190612351565b506000818152601460209081526040909120845161088092860190612351565b50600081815260156020908152604090912083516108a0928501906123d5565b50505050505050565b60008181526013602052604090208054606091906108c690613075565b80601f01602080910402602001604051908101604052809291908181526020018280546108f290613075565b801561093f5780601f106109145761010080835404028352916020019161093f565b820191906000526020600020905b81548152906001019060200180831161092257829003601f168201915b50505050509050919050565b6015602052816000526040600020818154811061096757600080fd5b90600052602060002001600091509150505481565b61098d6109876113dc565b8261144e565b6109a95760405162461bcd60e51b81526004016106b290612a97565b61070f8383836114ad565b6011546001600160a01b031681565b60009081526020819052604090206001015490565b6109e1826109c3565b6109ea816115ea565b61070f83836115fb565b60006109ff83610d42565b8210610a1d5760405162461bcd60e51b81526004016106b290612ae4565b506001600160a01b03821660009081526008602090815260408083208484529091529020545b92915050565b610a516113dc565b6001600160a01b0316816001600160a01b031614610a815760405162461bcd60e51b81526004016106b290612f51565b610a8b828261161d565b5050565b610abb7f65d7a28e3265b37a6474929f336521b332c1681b933f6cb9f3376673440d862a6104e56113dc565b610ad75760405162461bcd60e51b81526004016106b290612ef3565b610adf61163f565b565b61070f838383604051806020016040528060008152506111b6565b610b076109876113dc565b610b235760405162461bcd60e51b81526004016106b290612a97565b610b2c81611691565b50565b6000610b3961080b565b8210610b575760405162461bcd60e51b81526004016106b290612e52565b600a8281548110610b7857634e487b7160e01b600052603260045260246000fd5b90600052602060002001549050919050565b600c5460ff1690565b600080610b9f8361173e565b90506001600160a01b0381166105b25760405162461bcd60e51b81526004016106b290612d7d565b60606000610bd483610d42565b905060008167ffffffffffffffff811115610bff57634e487b7160e01b600052604160045260246000fd5b604051908082528060200260200182016040528015610c28578160200160208202803683370190505b5090506000805b83811015610cb4576000610c4387836109f4565b9050866001600160a01b0316610c5882610b93565b6001600160a01b03161415610ca15780848481518110610c8857634e487b7160e01b600052603260045260246000fd5b602090810291909101015282610c9d816130b0565b9350505b5080610cac816130b0565b915050610c2f565b5090949350505050565b60008181526015602090815260409182902080548351818402810184019094528084526060939283018282801561093f57602002820191906000526020600020905b815481526020019060010190808311610d005750505050509050919050565b600080610d2c600d611759565b9050610d38838261175d565b6105b2600d611852565b60006001600160a01b038216610d6a5760405162461bcd60e51b81526004016106b290612cff565b506001600160a01b031660009081526005602052604090205490565b6010546001600160a01b031681565b60136020526000908152604090208054610dae90613075565b80601f0160208091040260200160405190810160405280929190818152602001828054610dda90613075565b8015610e275780601f10610dfc57610100808354040283529160200191610e27565b820191906000526020600020905b815481529060010190602001808311610e0a57829003601f168201915b505050505081565b610e5b7f65d7a28e3265b37a6474929f336521b332c1681b933f6cb9f3376673440d862a6104e56113dc565b610e775760405162461bcd60e51b81526004016106b290612bfd565b610adf61185b565b610e87612322565b6040518060a00160405280838152602001610ea184611204565b8152602001601360008581526020019081526020016000208054610ec490613075565b80601f0160208091040260200160405190810160405280929190818152602001828054610ef090613075565b8015610f3d5780601f10610f1257610100808354040283529160200191610f3d565b820191906000526020600020905b815481529060010190602001808311610f2057829003601f168201915b50505050508152602001601460008581526020019081526020016000208054610f6590613075565b80601f0160208091040260200160405190810160405280929190818152602001828054610f9190613075565b8015610fde5780601f10610fb357610100808354040283529160200191610fde565b820191906000526020600020905b815481529060010190602001808311610fc157829003601f168201915b505050505081526020016015600085815260200190815260200160002080548060200260200160405190810160405280929190818152602001828054801561104557602002820191906000526020600020905b815481526020019060010190808311611031575b50505050508152509050919050565b600082815260016020526040812061106c9083611899565b9392505050565b6000918252602082815260408084206001600160a01b0393909316845291905290205460ff1690565b6060600380546105c990613075565b606060006110b761080b565b905060008167ffffffffffffffff8111156110e257634e487b7160e01b600052604160045260246000fd5b60405190808252806020026020018201604052801561111b57816020015b611108612322565b8152602001906001900390816111005790505b50905060005b828110156111705761113281610e7f565b82828151811061115257634e487b7160e01b600052603260045260246000fd5b60200260200101819052508080611168906130b0565b915050611121565b5091505090565b600081565b610a8b6111876113dc565b83836118a5565b6011546001600160a01b031690565b60146020526000908152604090208054610dae90613075565b6111c76111c16113dc565b8361144e565b6111e35760405162461bcd60e51b81526004016106b290612a97565b6111ef84848484611948565b50505050565b600f546001600160a01b031681565b60008181526012602052604081208054606092919061122290613075565b9050116112365761123161197b565b6105b2565b600082815260126020526040902080546108c690613075565b60008181526001602052604081206105b29061198a565b7f9f2df0fed2c77648de5860a4cc508cd0818c85b8b8a1ab4ceeef8d981c8956a681565b611293826109c3565b61129c816115ea565b61070f838361161d565b7f65d7a28e3265b37a6474929f336521b332c1681b933f6cb9f3376673440d862a81565b6001600160a01b03918216600090815260076020908152604080832093909416825291909152205460ff1690565b6113028282611073565b610a8b576000828152602081815260408083206001600160a01b03851684529091529020805460ff191660011790556113396113dc565b6001600160a01b0316816001600160a01b0316837f2f8788117e7eff1d82e926ec794901d17c78024a50270940304540a733656f0d60405160405180910390a45050565b600061106c836001600160a01b038416611995565b60006001600160e01b0319821663780e9d6360e01b14806105b257506105b2826119df565b6113c081611a1f565b610b2c5760405162461bcd60e51b81526004016106b290612d7d565b3390565b600081815260066020526040902080546001600160a01b0319166001600160a01b038416908117909155819061141582610b93565b6001600160a01b03167f8c5be1e5ebec7d5bd14f71427d1e84f3dd0314c0f7b2291e5b200ac8c7c3b92560405160405180910390a45050565b60008061145a83610b93565b9050806001600160a01b0316846001600160a01b03161480611481575061148181856112ca565b806114a55750836001600160a01b031661149a8461064c565b6001600160a01b0316145b949350505050565b826001600160a01b03166114c082610b93565b6001600160a01b0316146114e65760405162461bcd60e51b81526004016106b290612b81565b6001600160a01b03821661150c5760405162461bcd60e51b81526004016106b290612c5a565b6115198383836001611a3c565b826001600160a01b031661152c82610b93565b6001600160a01b0316146115525760405162461bcd60e51b81526004016106b290612b81565b600081815260066020908152604080832080546001600160a01b03199081169091556001600160a01b0387811680865260058552838620805460001901905590871680865283862080546001019055868652600490945282852080549092168417909155905184937fddf252ad1be2c89b69c2b068fc378daa952ba7f163c4a11628f55a4df523b3ef91a461070f83838360016111ef565b610b2c816115f66113dc565b611a48565b61160582826112f8565b600082815260016020526040902061070f908261137d565b6116278282611aa1565b600082815260016020526040902061070f9082611b24565b611647611b39565b600c805460ff191690557f5db9ee0a495bf2e6ff9c91a7834c1ba4fdd244a5e8aa4e537bd38aeae4b073aa61167a6113dc565b60405161168791906128fe565b60405180910390a1565b600061169c82610b93565b90506116ac816000846001611a3c565b6116b582610b93565b600083815260066020908152604080832080546001600160a01b03199081169091556001600160a01b0385168085526005845282852080546000190190558785526004909352818420805490911690555192935084927fddf252ad1be2c89b69c2b068fc378daa952ba7f163c4a11628f55a4df523b3ef908390a4610a8b8160008460016111ef565b6000908152600460205260409020546001600160a01b031690565b5490565b6001600160a01b0382166117835760405162461bcd60e51b81526004016106b290612d48565b61178c81611a1f565b156117a95760405162461bcd60e51b81526004016106b290612bc6565b6117b7600083836001611a3c565b6117c081611a1f565b156117dd5760405162461bcd60e51b81526004016106b290612bc6565b6001600160a01b038216600081815260056020908152604080832080546001019055848352600490915280822080546001600160a01b0319168417905551839291907fddf252ad1be2c89b69c2b068fc378daa952ba7f163c4a11628f55a4df523b3ef908290a4610a8b6000838360016111ef565b80546001019055565b611863611b5d565b600c805460ff191660011790557f62e78cea01bee320cd4e420270b5ea74000d11b0c9f74754ebdbfc544b05a25861167a6113dc565b600061106c8383611b82565b816001600160a01b0316836001600160a01b031614156118d75760405162461bcd60e51b81526004016106b290612c9e565b6001600160a01b0383811660008181526007602090815260408083209487168084529490915290819020805460ff1916851515179055517f17307eab39ab6107e8899845ad3d59bd9653f200f220920489ca2b5937696c319061193b9085906129c2565b60405180910390a3505050565b6119538484846114ad565b61195f84848484611bba565b6111ef5760405162461bcd60e51b81526004016106b290612b2f565b6060600e80546105c990613075565b60006105b282611759565b60006119a18383611cd5565b6119d757508154600181810184556000848152602080822090930184905584548482528286019093526040902091909155610a43565b506000610a43565b60006001600160e01b031982166380ac58cd60e01b1480611a1057506001600160e01b03198216635b5e139f60e01b145b806105b257506105b282611ced565b600080611a2b8361173e565b6001600160a01b0316141592915050565b6111ef84848484611d12565b611a528282611073565b610a8b57611a5f81611d43565b611a6a836020611d55565b604051602001611a7b929190612889565b60408051601f198184030181529082905262461bcd60e51b82526106b2916004016129d6565b611aab8282611073565b15610a8b576000828152602081815260408083206001600160a01b03851684529091529020805460ff19169055611ae06113dc565b6001600160a01b0316816001600160a01b0316837ff6391f5c32d9c69d2a47ea670b442974b53935d1edc7fd64eb21e047a839171b60405160405180910390a45050565b600061106c836001600160a01b038416611f07565b611b41610b8a565b610adf5760405162461bcd60e51b81526004016106b290612a69565b611b65610b8a565b15610adf5760405162461bcd60e51b81526004016106b290612cd5565b6000826000018281548110611ba757634e487b7160e01b600052603260045260246000fd5b9060005260206000200154905092915050565b6000611bce846001600160a01b0316612024565b15611cca57836001600160a01b031663150b7a02611bea6113dc565b8786866040518563ffffffff1660e01b8152600401611c0c9493929190612912565b602060405180830381600087803b158015611c2657600080fd5b505af1925050508015611c56575060408051601f3d908101601f19168201909252611c5391810190612792565b60015b611cb0573d808015611c84576040519150601f19603f3d011682016040523d82523d6000602084013e611c89565b606091505b508051611ca85760405162461bcd60e51b81526004016106b290612b2f565b805181602001fd5b6001600160e01b031916630a85bd0160e11b1490506114a5565b506001949350505050565b60009081526001919091016020526040902054151590565b60006001600160e01b03198216635a05180f60e01b14806105b257506105b282612033565b611d1e84848484612058565b611d26610b8a565b156111ef5760405162461bcd60e51b81526004016106b290612a1e565b60606105b26001600160a01b03831660145b60606000611d64836002612ffc565b611d6f906002612fe4565b67ffffffffffffffff811115611d9557634e487b7160e01b600052604160045260246000fd5b6040519080825280601f01601f191660200182016040528015611dbf576020820181803683370190505b509050600360fc1b81600081518110611de857634e487b7160e01b600052603260045260246000fd5b60200101906001600160f81b031916908160001a905350600f60fb1b81600181518110611e2557634e487b7160e01b600052603260045260246000fd5b60200101906001600160f81b031916908160001a9053506000611e49846002612ffc565b611e54906001612fe4565b90505b6001811115611ee8576f181899199a1a9b1b9c1cb0b131b232b360811b85600f1660108110611e9657634e487b7160e01b600052603260045260246000fd5b1a60f81b828281518110611eba57634e487b7160e01b600052603260045260246000fd5b60200101906001600160f81b031916908160001a90535060049490941c93611ee18161305e565b9050611e57565b50831561106c5760405162461bcd60e51b81526004016106b2906129e9565b6000818152600183016020526040812054801561201a576000611f2b60018361301b565b8554909150600090611f3f9060019061301b565b9050818114611fc0576000866000018281548110611f6d57634e487b7160e01b600052603260045260246000fd5b9060005260206000200154905080876000018481548110611f9e57634e487b7160e01b600052603260045260246000fd5b6000918252602080832090910192909255918252600188019052604090208390555b8554869080611fdf57634e487b7160e01b600052603160045260246000fd5b600190038181906000526020600020016000905590558560010160008681526020019081526020016000206000905560019350505050610a43565b6000915050610a43565b6001600160a01b03163b151590565b60006001600160e01b03198216637965db0b60e01b14806105b257506105b28261210b565b612064848484846111ef565b60018111156120855760405162461bcd60e51b81526004016106b290612e9e565b816001600160a01b0385166120a25761209d81612124565b6120c5565b836001600160a01b0316856001600160a01b0316146120c5576120c58582612168565b6001600160a01b0384166120e1576120dc81612205565b612104565b846001600160a01b0316846001600160a01b0316146121045761210484826122de565b5050505050565b6001600160e01b031981166301ffc9a760e01b14919050565b600a80546000838152600b60205260408120829055600182018355919091527fc65a7bb8d6351c1cf70c95a316cc6a92839c986682d98bc35f958f4883f9d2a80155565b6000600161217584610d42565b61217f919061301b565b6000838152600960205260409020549091508082146121d2576001600160a01b03841660009081526008602090815260408083208584528252808320548484528184208190558352600990915290208190555b5060009182526009602090815260408084208490556001600160a01b039094168352600881528383209183525290812055565b600a546000906122179060019061301b565b6000838152600b6020526040812054600a805493945090928490811061224d57634e487b7160e01b600052603260045260246000fd5b9060005260206000200154905080600a838154811061227c57634e487b7160e01b600052603260045260246000fd5b6000918252602080832090910192909255828152600b9091526040808220849055858252812055600a8054806122c257634e487b7160e01b600052603160045260246000fd5b6001900381819060005260206000200160009055905550505050565b60006122e983610d42565b6001600160a01b039093166000908152600860209081526040808320868452825280832085905593825260099052919091209190915550565b6040518060a0016040528060008152602001606081526020016060815260200160608152602001606081525090565b82805461235d90613075565b90600052602060002090601f01602090048101928261237f57600085556123c5565b82601f1061239857805160ff19168380011785556123c5565b828001600101855582156123c5579182015b828111156123c55782518255916020019190600101906123aa565b506123d192915061240f565b5090565b8280548282559060005260206000209081019282156123c557916020028201828111156123c55782518255916020019190600101906123aa565b5b808211156123d15760008155600101612410565b80356001600160a01b03811681146105b557600080fd5b600082601f83011261244b578081fd5b813567ffffffffffffffff811115612465576124656130e1565b612478601f8201601f1916602001612fb3565b81815284602083860101111561248c578283fd5b816020850160208301379081016020019190915292915050565b6000602082840312156124b7578081fd5b61106c82612424565b600080604083850312156124d2578081fd5b6124db83612424565b91506124e960208401612424565b90509250929050565b600080600060608486031215612506578081fd5b61250f84612424565b925061251d60208501612424565b9150604084013590509250925092565b60008060008060808587031215612542578081fd5b61254b85612424565b935061255960208601612424565b925060408501359150606085013567ffffffffffffffff81111561257b578182fd5b6125878782880161243b565b91505092959194509250565b600080604083850312156125a5578182fd5b6125ae83612424565b9150602083013580151581146125c2578182fd5b809150509250929050565b600080600080600060a086880312156125e4578081fd5b6125ed86612424565b945060208087013567ffffffffffffffff8082111561260a578384fd5b6126168a838b0161243b565b9650604089013591508082111561262b578384fd5b6126378a838b0161243b565b9550606089013591508082111561264c578384fd5b6126588a838b0161243b565b9450608089013591508082111561266d578384fd5b818901915089601f830112612680578384fd5b813581811115612692576126926130e1565b83810291506126a2848301612fb3565b8181528481019084860184860187018e10156126bc578788fd5b8795505b838610156126de5780358352600195909501949186019186016126c0565b508096505050505050509295509295909350565b60008060408385031215612704578182fd5b61270d83612424565b946020939093013593505050565b60006020828403121561272c578081fd5b5035919050565b60008060408385031215612745578182fd5b823591506124e960208401612424565b60008060408385031215612767578182fd5b50508035926020909101359150565b600060208284031215612787578081fd5b813561106c816130f7565b6000602082840312156127a3578081fd5b815161106c816130f7565b6000815180845260208085019450808401835b838110156127dd578151875295820195908201906001016127c1565b509495945050505050565b60008151808452612800816020860160208601613032565b601f01601f19169290920160200192915050565b600081518352602082015160a0602085015261283360a08501826127e8565b90506040830151848203604086015261284c82826127e8565b9150506060830151848203606086015261286682826127e8565b9150506080830151848203608086015261288082826127ae565b95945050505050565b60007f416363657373436f6e74726f6c3a206163636f756e7420000000000000000000825283516128c1816017850160208801613032565b7001034b99036b4b9b9b4b733903937b6329607d1b60179184019182015283516128f2816028840160208801613032565b01602801949350505050565b6001600160a01b0391909116815260200190565b6001600160a01b0385811682528416602082015260408101839052608060608201819052600090612945908301846127e8565b9695505050505050565b6000602080830181845280855180835260408601915060408482028701019250838701855b828110156129a257603f19888603018452612990858351612814565b94509285019290850190600101612974565b5092979650505050505050565b60006020825261106c60208301846127ae565b901515815260200190565b90815260200190565b60006020825261106c60208301846127e8565b6020808252818101527f537472696e67733a20686578206c656e67746820696e73756666696369656e74604082015260600190565b6020808252602b908201527f4552433732315061757361626c653a20746f6b656e207472616e73666572207760408201526a1a1a5b19481c185d5cd95960aa1b606082015260800190565b60208082526014908201527314185d5cd8589b194e881b9bdd081c185d5cd95960621b604082015260600190565b6020808252602d908201527f4552433732313a2063616c6c6572206973206e6f7420746f6b656e206f776e6560408201526c1c881bdc88185c1c1c9bdd9959609a1b606082015260800190565b6020808252602b908201527f455243373231456e756d657261626c653a206f776e657220696e646578206f7560408201526a74206f6620626f756e647360a81b606082015260800190565b60208082526032908201527f4552433732313a207472616e7366657220746f206e6f6e20455243373231526560408201527131b2b4bb32b91034b6b83632b6b2b73a32b960711b606082015260800190565b60208082526025908201527f4552433732313a207472616e736665722066726f6d20696e636f72726563742060408201526437bbb732b960d91b606082015260800190565b6020808252601c908201527f4552433732313a20746f6b656e20616c7265616479206d696e74656400000000604082015260600190565b6020808252603e908201527f4552433732315072657365744d696e7465725061757365724175746f49643a2060408201527f6d75737420686176652070617573657220726f6c6520746f2070617573650000606082015260800190565b60208082526024908201527f4552433732313a207472616e7366657220746f20746865207a65726f206164646040820152637265737360e01b606082015260800190565b60208082526019908201527f4552433732313a20617070726f766520746f2063616c6c657200000000000000604082015260600190565b60208082526010908201526f14185d5cd8589b194e881c185d5cd95960821b604082015260600190565b60208082526029908201527f4552433732313a2061646472657373207a65726f206973206e6f7420612076616040820152683634b21037bbb732b960b91b606082015260800190565b6020808252818101527f4552433732313a206d696e7420746f20746865207a65726f2061646472657373604082015260600190565b60208082526018908201527f4552433732313a20696e76616c696420746f6b656e2049440000000000000000604082015260600190565b60208082526021908201527f4552433732313a20617070726f76616c20746f2063757272656e74206f776e656040820152603960f91b606082015260800190565b6020808252603d908201527f4552433732313a20617070726f76652063616c6c6572206973206e6f7420746f60408201527f6b656e206f776e6572206f7220617070726f76656420666f7220616c6c000000606082015260800190565b6020808252602c908201527f455243373231456e756d657261626c653a20676c6f62616c20696e646578206f60408201526b7574206f6620626f756e647360a01b606082015260800190565b60208082526035908201527f455243373231456e756d657261626c653a20636f6e7365637574697665207472604082015274185b9cd9995c9cc81b9bdd081cdd5c1c1bdc9d1959605a1b606082015260800190565b602080825260409082018190527f4552433732315072657365744d696e7465725061757365724175746f49643a20908201527f6d75737420686176652070617573657220726f6c6520746f20756e7061757365606082015260800190565b6020808252602f908201527f416363657373436f6e74726f6c3a2063616e206f6e6c792072656e6f756e636560408201526e103937b632b9903337b91039b2b63360891b606082015260800190565b60006020825261106c6020830184612814565b604051601f8201601f1916810167ffffffffffffffff81118282101715612fdc57612fdc6130e1565b604052919050565b60008219821115612ff757612ff76130cb565b500190565b6000816000190483118215151615613016576130166130cb565b500290565b60008282101561302d5761302d6130cb565b500390565b60005b8381101561304d578181015183820152602001613035565b838111156111ef5750506000910152565b60008161306d5761306d6130cb565b506000190190565b60028104600182168061308957607f821691505b602082108114156130aa57634e487b7160e01b600052602260045260246000fd5b50919050565b60006000198214156130c4576130c46130cb565b5060010190565b634e487b7160e01b600052601160045260246000fd5b634e487b7160e01b600052604160045260246000fd5b6001600160e01b031981168114610b2c57600080fdfea2646970667358221220c4b1e96bc3350abd52036960c31d3b2a4863655c07a7ab637da6996bad9e823a64736f6c63430008010033a264697066735822122080120a20a6888a7eec4acb6b9b2d9d1310e8583d3a548427e05592e138665bff64736f6c63430008010033",
  "devdoc": {
    "kind": "dev",
    "methods": {
      "owner()": {
        "details": "Returns the address of the current owner."
      },
      "renounceOwnership()": {
        "details": "Leaves the contract without owner. It will not be possible to call `onlyOwner` functions anymore. Can only be called by the current owner. NOTE: Renouncing ownership will leave the contract without an owner, thereby removing any functionality that is only available to the owner."
      },
      "transferOwnership(address)": {
        "details": "Transfers ownership of the contract to a new account (`newOwner`). Can only be called by the current owner."
      }
    },
    "version": 1
  },
  "userdoc": {
    "kind": "user",
    "methods": {},
    "version": 1
  },
  "storageLayout": {
    "storage": [
      {
        "astId": 546,
        "contract": "contracts/PolyNftFactory.sol:PolyNftFactory",
        "label": "_owner",
        "offset": 0,
        "slot": "0",
        "type": "t_address"
      },
      {
        "astId": 5006,
        "contract": "contracts/PolyNftFactory.sol:PolyNftFactory",
        "label": "registry",
        "offset": 0,
        "slot": "1",
        "type": "t_address"
      },
      {
        "astId": 5010,
        "contract": "contracts/PolyNftFactory.sol:PolyNftFactory",
        "label": "erc721Owner",
        "offset": 0,
        "slot": "2",
        "type": "t_mapping(t_address,t_address)"
      },
      {
        "astId": 5013,
        "contract": "contracts/PolyNftFactory.sol:PolyNftFactory",
        "label": "projects",
        "offset": 0,
        "slot": "3",
        "type": "t_array(t_string_storage)dyn_storage"
      },
      {
        "astId": 5017,
        "contract": "contracts/PolyNftFactory.sol:PolyNftFactory",
        "label": "projectMap",
        "offset": 0,
        "slot": "4",
        "type": "t_mapping(t_string_memory_ptr,t_address)"
      }
    ],
    "types": {
      "t_address": {
        "encoding": "inplace",
        "label": "address",
        "numberOfBytes": "20"
      },
      "t_array(t_string_storage)dyn_storage": {
        "base": "t_string_storage",
        "encoding": "dynamic_array",
        "label": "string[]",
        "numberOfBytes": "32"
      },
      "t_mapping(t_address,t_address)": {
        "encoding": "mapping",
        "key": "t_address",
        "label": "mapping(address => address)",
        "numberOfBytes": "32",
        "value": "t_address"
      },
      "t_mapping(t_string_memory_ptr,t_address)": {
        "encoding": "mapping",
        "key": "t_string_memory_ptr",
        "label": "mapping(string => address)",
        "numberOfBytes": "32",
        "value": "t_address"
      },
      "t_string_memory_ptr": {
        "encoding": "bytes",
        "label": "string",
        "numberOfBytes": "32"
      },
      "t_string_storage": {
        "encoding": "bytes",
        "label": "string",
        "numberOfBytes": "32"
      }
    }
  }
}