{
  "address": "0xC4253Ed69818257d7484221C821eA37e4D02d275",
  "abi": [
    {
      "inputs": [
        {
          "internalType": "address",
          "name": "registryArg",
          "type": "address"
        }
      ],
      "stateMutability": "nonpayable",
      "type": "constructor"
    },
    {
      "anonymous": false,
      "inputs": [
        {
          "indexed": true,
          "internalType": "address",
          "name": "previousOwner",
          "type": "address"
        },
        {
          "indexed": true,
          "internalType": "address",
          "name": "newOwner",
          "type": "address"
        }
      ],
      "name": "OwnershipTransferred",
      "type": "event"
    },
    {
      "inputs": [
        {
          "internalType": "string",
          "name": "projectName",
          "type": "string"
        },
        {
          "internalType": "string",
          "name": "name",
          "type": "string"
        },
        {
          "internalType": "string",
          "name": "symbol",
          "type": "string"
        },
        {
          "internalType": "string",
          "name": "tokenURI",
          "type": "string"
        },
        {
          "internalType": "address",
          "name": "fusionImplementation",
          "type": "address"
        }
      ],
      "name": "create",
      "outputs": [
        {
          "internalType": "address",
          "name": "",
          "type": "address"
        }
      ],
      "stateMutability": "nonpayable",
      "type": "function"
    },
    {
      "inputs": [
        {
          "internalType": "address",
          "name": "",
          "type": "address"
        }
      ],
      "name": "erc721Owner",
      "outputs": [
        {
          "internalType": "address",
          "name": "",
          "type": "address"
        }
      ],
      "stateMutability": "view",
      "type": "function"
    },
    {
      "inputs": [],
      "name": "getProjects",
      "outputs": [
        {
          "internalType": "string[]",
          "name": "",
          "type": "string[]"
        }
      ],
      "stateMutability": "view",
      "type": "function"
    },
    {
      "inputs": [],
      "name": "owner",
      "outputs": [
        {
          "internalType": "address",
          "name": "",
          "type": "address"
        }
      ],
      "stateMutability": "view",
      "type": "function"
    },
    {
      "inputs": [
        {
          "internalType": "string",
          "name": "",
          "type": "string"
        }
      ],
      "name": "projectMap",
      "outputs": [
        {
          "internalType": "address",
          "name": "",
          "type": "address"
        }
      ],
      "stateMutability": "view",
      "type": "function"
    },
    {
      "inputs": [
        {
          "internalType": "uint256",
          "name": "",
          "type": "uint256"
        }
      ],
      "name": "projects",
      "outputs": [
        {
          "internalType": "string",
          "name": "",
          "type": "string"
        }
      ],
      "stateMutability": "view",
      "type": "function"
    },
    {
      "inputs": [],
      "name": "registry",
      "outputs": [
        {
          "internalType": "address",
          "name": "",
          "type": "address"
        }
      ],
      "stateMutability": "view",
      "type": "function"
    },
    {
      "inputs": [],
      "name": "renounceOwnership",
      "outputs": [],
      "stateMutability": "nonpayable",
      "type": "function"
    },
    {
      "inputs": [
        {
          "internalType": "address",
          "name": "newOwner",
          "type": "address"
        }
      ],
      "name": "transferOwnership",
      "outputs": [],
      "stateMutability": "nonpayable",
      "type": "function"
    }
  ],
  "transactionHash": "0x3692c49060161ad8919f8ef0c4b8d42b541569d861b58b182bd670438781061a",
  "args": [
    "0x805cD30f1bCcC7492Eab2525Bc4Bc8CB25c9be59"
  ],
  "numDeployments": 1,
  "solcInputHash": "fcfc67cb134a631eac09ffdaa19a260a",
  "bytecode": "0x608060405234801561001057600080fd5b506040516141fe3803806141fe83398101604081905261002f916100b8565b61003f61003a610064565b610068565b600180546001600160a01b0319166001600160a01b03929092169190911790556100e6565b3390565b600080546001600160a01b038381166001600160a01b0319831681178455604051919092169283917f8be0079c531659141344cd1fd0a4f28419497f9722a3daafe3b4186f6b6457e09190a35050565b6000602082840312156100c9578081fd5b81516001600160a01b03811681146100df578182fd5b9392505050565b614109806100f56000396000f3fe60806040523480156200001157600080fd5b5060043610620000a05760003560e01c80637b103999116200006f5780637b103999146200011d5780638da5cb5b1462000127578063a3c9827a1462000131578063dcc601281462000148578063f2fde38b146200016157620000a0565b80630966375014620000a5578063107046bd14620000d45780631a8c7f3b14620000fa578063715018a61462000111575b600080fd5b620000bc620000b636600462000707565b62000178565b604051620000cb91906200093a565b60405180910390f35b620000eb620000e536600462000899565b620002de565b604051620000cb919062000a11565b620000bc6200010b366004620007e5565b62000393565b6200011b620003b9565b005b620000bc620003d1565b620000bc620003e0565b620000bc62000142366004620006e3565b620003ef565b620001526200040a565b604051620000cb91906200094e565b6200011b62000172366004620006e3565b620004ed565b6000806001600160a01b031660048b8b604051620001989291906200092a565b908152604051908190036020019020546001600160a01b031614620001da5760405162461bcd60e51b8152600401620001d19062000a6c565b60405180910390fd5b600088888888888888604051620001f190620005c8565b620002039796959493929190620009b2565b604051809103906000f08015801562000220573d6000803e3d6000fd5b506001600160a01b038116600090815260026020526040812080546001600160a01b03191633179055600380546001810182559152909150819062000289907fc2575a0e9e593c00f959f8c92f12db2869c3395a3b0502d05e2516446f71f85b018d8d620005d6565b508060048d8d6040516200029f9291906200092a565b90815260405190819003602001902080546001600160a01b03929092166001600160a01b03199092169190911790559150509998505050505050505050565b60038181548110620002ef57600080fd5b9060005260206000200160009150905080546200030c9062000ac2565b80601f01602080910402602001604051908101604052809291908181526020018280546200033a9062000ac2565b80156200038b5780601f106200035f576101008083540402835291602001916200038b565b820191906000526020600020905b8154815290600101906020018083116200036d57829003601f168201915b505050505081565b80516020818301810180516004825292820191909301209152546001600160a01b031681565b620003c36200052e565b620003cf600062000574565b565b6001546001600160a01b031681565b6000546001600160a01b031690565b6002602052600090815260409020546001600160a01b031681565b60606003805480602002602001604051908101604052809291908181526020016000905b82821015620004e4578382906000526020600020018054620004509062000ac2565b80601f01602080910402602001604051908101604052809291908181526020018280546200047e9062000ac2565b8015620004cf5780601f10620004a357610100808354040283529160200191620004cf565b820191906000526020600020905b815481529060010190602001808311620004b157829003601f168201915b5050505050815260200190600101906200042e565b50505050905090565b620004f76200052e565b6001600160a01b038116620005205760405162461bcd60e51b8152600401620001d19062000a26565b6200052b8162000574565b50565b62000538620005c4565b6001600160a01b03166200054b620003e0565b6001600160a01b031614620003cf5760405162461bcd60e51b8152600401620001d19062000a8d565b600080546001600160a01b038381166001600160a01b0319831681178455604051919092169283917f8be0079c531659141344cd1fd0a4f28419497f9722a3daafe3b4186f6b6457e09190a35050565b3390565b6135be8062000b1683390190565b828054620005e49062000ac2565b90600052602060002090601f01602090048101928262000608576000855562000653565b82601f10620006235782800160ff1982351617855562000653565b8280016001018555821562000653579182015b828111156200065357823582559160200191906001019062000636565b506200066192915062000665565b5090565b5b8082111562000661576000815560010162000666565b80356001600160a01b03811681146200069457600080fd5b919050565b60008083601f840112620006ab578081fd5b50813567ffffffffffffffff811115620006c3578182fd5b602083019150836020828501011115620006dc57600080fd5b9250929050565b600060208284031215620006f5578081fd5b62000700826200067c565b9392505050565b600080600080600080600080600060a08a8c03121562000725578485fd5b893567ffffffffffffffff808211156200073d578687fd5b6200074b8d838e0162000699565b909b50995060208c013591508082111562000764578687fd5b620007728d838e0162000699565b909950975060408c01359150808211156200078b578687fd5b620007998d838e0162000699565b909750955060608c0135915080821115620007b2578485fd5b50620007c18c828d0162000699565b9094509250620007d6905060808b016200067c565b90509295985092959850929598565b600060208284031215620007f7578081fd5b813567ffffffffffffffff808211156200080f578283fd5b818401915084601f83011262000823578283fd5b81358181111562000838576200083862000aff565b604051601f8201601f19908116603f0116810190838211818310171562000863576200086362000aff565b816040528281528760208487010111156200087c578586fd5b826020860160208301379182016020019490945295945050505050565b600060208284031215620008ab578081fd5b5035919050565b60008284528282602086013780602084860101526020601f19601f85011685010190509392505050565b60008151808452815b818110156200090357602081850181015186830182015201620008e5565b81811115620009155782602083870101525b50601f01601f19169290920160200192915050565b6000828483379101908152919050565b6001600160a01b0391909116815260200190565b6000602080830181845280855180835260408601915060408482028701019250838701855b82811015620009a557603f1988860301845262000992858351620008dc565b9450928501929085019060010162000973565b5092979650505050505050565b600060808252620009c860808301898b620008b2565b8281036020840152620009dd81888a620008b2565b90508281036040840152620009f4818688620008b2565b91505060018060a01b038316606083015298975050505050505050565b600060208252620007006020830184620008dc565b60208082526026908201527f4f776e61626c653a206e6577206f776e657220697320746865207a65726f206160408201526564647265737360d01b606082015260800190565b6020808252600790820152662827232fa9a82760c91b604082015260600190565b6020808252818101527f4f776e61626c653a2063616c6c6572206973206e6f7420746865206f776e6572604082015260600190565b60028104600182168062000ad757607f821691505b6020821081141562000af957634e487b7160e01b600052602260045260246000fd5b50919050565b634e487b7160e01b600052604160045260246000fdfe60806040523480156200001157600080fd5b50604051620035be380380620035be8339810160408190526200003491620004f3565b838383828281600290805190602001906200005192919062000360565b5080516200006790600390602084019062000360565b5050600c805460ff191690555080516200008990600e90602084019062000360565b50620000a060006200009a620001cf565b620001d3565b620000cf7f9f2df0fed2c77648de5860a4cc508cd0818c85b8b8a1ab4ceeef8d981c8956a66200009a620001cf565b620000fe7f65d7a28e3265b37a6474929f336521b332c1681b933f6cb9f3376673440d862a6200009a620001cf565b5050601180546001600160a01b038085166001600160a01b031992831617909255600f805490911633179081905560408051637b10399960e01b81529051919092169250637b10399991600480820192602092909190829003018186803b1580156200016957600080fd5b505afa1580156200017e573d6000803e3d6000fd5b505050506040513d601f19601f82011682018060405250810190620001a49190620004d6565b601080546001600160a01b0319166001600160a01b039290921691909117905550620005e692505050565b3390565b620001df8282620001e3565b5050565b620001fa82826200022660201b6200117d1760201c565b60008281526001602090815260409091206200022191839062001202620002b0821b17901c565b505050565b620002328282620002d0565b620001df576000828152602081815260408083206001600160a01b03851684529091529020805460ff191660011790556200026c620001cf565b6001600160a01b0316816001600160a01b0316837f2f8788117e7eff1d82e926ec794901d17c78024a50270940304540a733656f0d60405160405180910390a45050565b6000620002c7836001600160a01b038416620002f9565b90505b92915050565b6000918252602082815260408084206001600160a01b0393909316845291905290205460ff1690565b600062000307838362000348565b6200033f57508154600181810184556000848152602080822090930184905584548482528286019093526040902091909155620002ca565b506000620002ca565b60009081526001919091016020526040902054151590565b8280546200036e9062000593565b90600052602060002090601f016020900481019282620003925760008555620003dd565b82601f10620003ad57805160ff1916838001178555620003dd565b82800160010185558215620003dd579182015b82811115620003dd578251825591602001919060010190620003c0565b50620003eb929150620003ef565b5090565b5b80821115620003eb5760008155600101620003f0565b80516001600160a01b03811681146200041e57600080fd5b919050565b600082601f83011262000434578081fd5b81516001600160401b0380821115620004515762000451620005d0565b604051601f8301601f19908116603f011681019082821181831017156200047c576200047c620005d0565b8160405283815260209250868385880101111562000498578485fd5b8491505b83821015620004bb57858201830151818301840152908201906200049c565b83821115620004cc57848385830101525b9695505050505050565b600060208284031215620004e8578081fd5b620002c78262000406565b6000806000806080858703121562000509578283fd5b84516001600160401b038082111562000520578485fd5b6200052e8883890162000423565b9550602087015191508082111562000544578485fd5b620005528883890162000423565b9450604087015191508082111562000568578384fd5b50620005778782880162000423565b925050620005886060860162000406565b905092959194509250565b600281046001821680620005a857607f821691505b60208210811415620005ca57634e487b7160e01b600052602260045260246000fd5b50919050565b634e487b7160e01b600052604160045260246000fd5b612fc880620005f66000396000f3fe608060405234801561001057600080fd5b506004361061025e5760003560e01c806369d3921911610146578063a217fddf116100c3578063c87b56dd11610087578063c87b56dd146104fc578063ca15c8731461050f578063d539139314610522578063d547741f1461052a578063e63ab1e91461053d578063e985e9c5146105455761025e565b8063a217fddf146104b3578063a22cb465146104bb578063b6c08470146104ce578063b88d4fde146104e1578063c45a0155146104f45761025e565b80638456cb591161010a5780638456cb591461045d5780638c7a63ae146104655780639010d07c1461048557806391d148541461049857806395d89b41146104ab5761025e565b806369d39219146104095780636a6278421461041c57806370a082311461042f5780637b103999146104425780637ce20fca1461044a5761025e565b80632f2ff15d116101df57806342966c68116101a357806342966c68146103935780634f6ccce7146103a65780635c975abb146103b95780636352211e146103c1578063680bf023146103d45780636970bb0a146103e95761025e565b80632f2ff15d1461033f5780632f745c591461035257806336568abe146103655780633f4ba83a1461037857806342842e0e146103805761025e565b80631e9f4c09116102265780631e9f4c09146102eb57806320361a73146102fe57806323b872dd146103115780632450d13b14610324578063248a9ca31461032c5761025e565b806301ffc9a71461026357806306fdde031461028c578063081812fc146102a1578063095ea7b3146102c157806318160ddd146102d6575b600080fd5b6102766102713660046125fb565b610558565b6040516102839190612847565b60405180910390f35b61029461056b565b604051610283919061285b565b6102b46102af3660046125a0565b6105fd565b6040516102839190612783565b6102d46102cf366004612577565b610624565b005b6102de6106c5565b6040516102839190612852565b6102d46102f9366004612452565b6106cb565b6102de61030c3660046125da565b610763565b6102d461031f366004612377565b610794565b6102b46107cc565b6102de61033a3660046125a0565b6107db565b6102d461034d3660046125b8565b6107f0565b6102de610360366004612577565b61080c565b6102d46103733660046125b8565b610861565b6102d46108a7565b6102d461038e366004612377565b6108f9565b6102d46103a13660046125a0565b610914565b6102de6103b43660046125a0565b610947565b6102766109a2565b6102b46103cf3660046125a0565b6109ab565b6103dc6109df565b60405161028391906127d4565b6103fc6103f736600461232b565b610aab565b6040516102839190612834565b6103fc6104173660046125a0565b610ba2565b6102de61042a36600461232b565b610c04565b6102de61043d36600461232b565b610c27565b6102b4610c6b565b6102946104583660046125a0565b610c7a565b6102d4610d14565b6104786104733660046125a0565b610d64565b6040516102839190612e25565b6102b46104933660046125da565b610f39565b6102766104a63660046125b8565b610f58565b610294610f81565b6102de610f90565b6102d46104c9366004612418565b610f95565b6102946104dc3660046125a0565b610fa7565b6102d46104ef3660046123b2565b610fc0565b6102b4610fff565b61029461050a3660046125a0565b61100e565b6102de61051d3660046125a0565b6110d4565b6102de6110eb565b6102d46105383660046125b8565b61110f565b6102de61112b565b610276610553366004612345565b61114f565b600061056382611217565b90505b919050565b60606002805461057a90612efa565b80601f01602080910402602001604051908101604052809291908181526020018280546105a690612efa565b80156105f35780601f106105c8576101008083540402835291602001916105f3565b820191906000526020600020905b8154815290600101906020018083116105d657829003601f168201915b5050505050905090565b60006106088261123c565b506000908152600660205260409020546001600160a01b031690565b600061062f826109ab565b9050806001600160a01b0316836001600160a01b0316141561066c5760405162461bcd60e51b815260040161066390612c39565b60405180910390fd5b806001600160a01b031661067e611261565b6001600160a01b0316148061069a575061069a81610553611261565b6106b65760405162461bcd60e51b815260040161066390612c7a565b6106c08383611265565b505050565b600a5490565b60006106d686610c04565b600081815260126020908152604090912087519293506106fa9290918801906121a7565b506000818152601360209081526040909120855161071a928701906121a7565b506000818152601460209081526040909120845161073a928601906121a7565b506000818152601560209081526040909120835161075a9285019061222b565b50505050505050565b6015602052816000526040600020818154811061077f57600080fd5b90600052602060002001600091509150505481565b6107a561079f611261565b826112d3565b6107c15760405162461bcd60e51b81526004016106639061291c565b6106c0838383611332565b6011546001600160a01b031681565b60009081526020819052604090206001015490565b6107f9826107db565b6108028161146f565b6106c08383611480565b600061081783610c27565b82106108355760405162461bcd60e51b815260040161066390612969565b506001600160a01b03821660009081526008602090815260408083208484529091529020545b92915050565b610869611261565b6001600160a01b0316816001600160a01b0316146108995760405162461bcd60e51b815260040161066390612dd6565b6108a382826114a2565b5050565b6108d37f65d7a28e3265b37a6474929f336521b332c1681b933f6cb9f3376673440d862a6104a6611261565b6108ef5760405162461bcd60e51b815260040161066390612d78565b6108f76114c4565b565b6106c083838360405180602001604052806000815250610fc0565b61091f61079f611261565b61093b5760405162461bcd60e51b81526004016106639061291c565b61094481611516565b50565b60006109516106c5565b821061096f5760405162461bcd60e51b815260040161066390612cd7565b600a828154811061099057634e487b7160e01b600052603260045260246000fd5b90600052602060002001549050919050565b600c5460ff1690565b6000806109b7836115c3565b90506001600160a01b0381166105635760405162461bcd60e51b815260040161066390612c02565b606060006109eb6106c5565b905060008167ffffffffffffffff811115610a1657634e487b7160e01b600052604160045260246000fd5b604051908082528060200260200182016040528015610a4f57816020015b610a3c612265565b815260200190600190039081610a345790505b50905060005b82811015610aa457610a6681610d64565b828281518110610a8657634e487b7160e01b600052603260045260246000fd5b60200260200101819052508080610a9c90612f35565b915050610a55565b5091505090565b60606000610ab883610c27565b905060008167ffffffffffffffff811115610ae357634e487b7160e01b600052604160045260246000fd5b604051908082528060200260200182016040528015610b0c578160200160208202803683370190505b5090506000805b83811015610b98576000610b27878361080c565b9050866001600160a01b0316610b3c826109ab565b6001600160a01b03161415610b855780848481518110610b6c57634e487b7160e01b600052603260045260246000fd5b602090810291909101015282610b8181612f35565b9350505b5080610b9081612f35565b915050610b13565b5090949350505050565b600081815260156020908152604091829020805483518184028101840190945280845260609392830182828015610bf857602002820191906000526020600020905b815481526020019060010190808311610be4575b50505050509050919050565b600080610c11600d6115de565b9050610c1d83826115e2565b610563600d6116d7565b60006001600160a01b038216610c4f5760405162461bcd60e51b815260040161066390612b84565b506001600160a01b031660009081526005602052604090205490565b6010546001600160a01b031681565b60136020526000908152604090208054610c9390612efa565b80601f0160208091040260200160405190810160405280929190818152602001828054610cbf90612efa565b8015610d0c5780601f10610ce157610100808354040283529160200191610d0c565b820191906000526020600020905b815481529060010190602001808311610cef57829003601f168201915b505050505081565b610d407f65d7a28e3265b37a6474929f336521b332c1681b933f6cb9f3376673440d862a6104a6611261565b610d5c5760405162461bcd60e51b815260040161066390612a82565b6108f76116e0565b610d6c612265565b6040518060a00160405280838152602001610d868461100e565b8152602001601360008581526020019081526020016000208054610da990612efa565b80601f0160208091040260200160405190810160405280929190818152602001828054610dd590612efa565b8015610e225780601f10610df757610100808354040283529160200191610e22565b820191906000526020600020905b815481529060010190602001808311610e0557829003601f168201915b50505050508152602001601460008581526020019081526020016000208054610e4a90612efa565b80601f0160208091040260200160405190810160405280929190818152602001828054610e7690612efa565b8015610ec35780601f10610e9857610100808354040283529160200191610ec3565b820191906000526020600020905b815481529060010190602001808311610ea657829003601f168201915b5050505050815260200160156000858152602001908152602001600020805480602002602001604051908101604052809291908181526020018280548015610f2a57602002820191906000526020600020905b815481526020019060010190808311610f16575b50505050508152509050919050565b6000828152600160205260408120610f51908361171e565b9392505050565b6000918252602082815260408084206001600160a01b0393909316845291905290205460ff1690565b60606003805461057a90612efa565b600081565b6108a3610fa0611261565b838361172a565b60146020526000908152604090208054610c9390612efa565b610fd1610fcb611261565b836112d3565b610fed5760405162461bcd60e51b81526004016106639061291c565b610ff9848484846117cd565b50505050565b600f546001600160a01b031681565b60008181526012602052604081208054606092919061102c90612efa565b9050116110405761103b611800565b610563565b6000828152601260205260409020805461105990612efa565b80601f016020809104026020016040519081016040528092919081815260200182805461108590612efa565b8015610bf85780601f106110a757610100808354040283529160200191610bf8565b820191906000526020600020905b8154815290600101906020018083116110b55750939695505050505050565b60008181526001602052604081206105639061180f565b7f9f2df0fed2c77648de5860a4cc508cd0818c85b8b8a1ab4ceeef8d981c8956a681565b611118826107db565b6111218161146f565b6106c083836114a2565b7f65d7a28e3265b37a6474929f336521b332c1681b933f6cb9f3376673440d862a81565b6001600160a01b03918216600090815260076020908152604080832093909416825291909152205460ff1690565b6111878282610f58565b6108a3576000828152602081815260408083206001600160a01b03851684529091529020805460ff191660011790556111be611261565b6001600160a01b0316816001600160a01b0316837f2f8788117e7eff1d82e926ec794901d17c78024a50270940304540a733656f0d60405160405180910390a45050565b6000610f51836001600160a01b03841661181a565b60006001600160e01b0319821663780e9d6360e01b1480610563575061056382611864565b611245816118a4565b6109445760405162461bcd60e51b815260040161066390612c02565b3390565b600081815260066020526040902080546001600160a01b0319166001600160a01b038416908117909155819061129a826109ab565b6001600160a01b03167f8c5be1e5ebec7d5bd14f71427d1e84f3dd0314c0f7b2291e5b200ac8c7c3b92560405160405180910390a45050565b6000806112df836109ab565b9050806001600160a01b0316846001600160a01b031614806113065750611306818561114f565b8061132a5750836001600160a01b031661131f846105fd565b6001600160a01b0316145b949350505050565b826001600160a01b0316611345826109ab565b6001600160a01b03161461136b5760405162461bcd60e51b815260040161066390612a06565b6001600160a01b0382166113915760405162461bcd60e51b815260040161066390612adf565b61139e83838360016118c1565b826001600160a01b03166113b1826109ab565b6001600160a01b0316146113d75760405162461bcd60e51b815260040161066390612a06565b600081815260066020908152604080832080546001600160a01b03199081169091556001600160a01b0387811680865260058552838620805460001901905590871680865283862080546001019055868652600490945282852080549092168417909155905184937fddf252ad1be2c89b69c2b068fc378daa952ba7f163c4a11628f55a4df523b3ef91a46106c08383836001610ff9565b6109448161147b611261565b6118cd565b61148a828261117d565b60008281526001602052604090206106c09082611202565b6114ac8282611926565b60008281526001602052604090206106c090826119a9565b6114cc6119be565b600c805460ff191690557f5db9ee0a495bf2e6ff9c91a7834c1ba4fdd244a5e8aa4e537bd38aeae4b073aa6114ff611261565b60405161150c9190612783565b60405180910390a1565b6000611521826109ab565b90506115318160008460016118c1565b61153a826109ab565b600083815260066020908152604080832080546001600160a01b03199081169091556001600160a01b0385168085526005845282852080546000190190558785526004909352818420805490911690555192935084927fddf252ad1be2c89b69c2b068fc378daa952ba7f163c4a11628f55a4df523b3ef908390a46108a3816000846001610ff9565b6000908152600460205260409020546001600160a01b031690565b5490565b6001600160a01b0382166116085760405162461bcd60e51b815260040161066390612bcd565b611611816118a4565b1561162e5760405162461bcd60e51b815260040161066390612a4b565b61163c6000838360016118c1565b611645816118a4565b156116625760405162461bcd60e51b815260040161066390612a4b565b6001600160a01b038216600081815260056020908152604080832080546001019055848352600490915280822080546001600160a01b0319168417905551839291907fddf252ad1be2c89b69c2b068fc378daa952ba7f163c4a11628f55a4df523b3ef908290a46108a3600083836001610ff9565b80546001019055565b6116e86119e2565b600c805460ff191660011790557f62e78cea01bee320cd4e420270b5ea74000d11b0c9f74754ebdbfc544b05a2586114ff611261565b6000610f518383611a07565b816001600160a01b0316836001600160a01b0316141561175c5760405162461bcd60e51b815260040161066390612b23565b6001600160a01b0383811660008181526007602090815260408083209487168084529490915290819020805460ff1916851515179055517f17307eab39ab6107e8899845ad3d59bd9653f200f220920489ca2b5937696c31906117c0908590612847565b60405180910390a3505050565b6117d8848484611332565b6117e484848484611a3f565b610ff95760405162461bcd60e51b8152600401610663906129b4565b6060600e805461057a90612efa565b6000610563826115de565b60006118268383611b5a565b61185c5750815460018181018455600084815260208082209093018490558454848252828601909352604090209190915561085b565b50600061085b565b60006001600160e01b031982166380ac58cd60e01b148061189557506001600160e01b03198216635b5e139f60e01b145b80610563575061056382611b72565b6000806118b0836115c3565b6001600160a01b0316141592915050565b610ff984848484611b97565b6118d78282610f58565b6108a3576118e481611bc8565b6118ef836020611bda565b60405160200161190092919061270e565b60408051601f198184030181529082905262461bcd60e51b82526106639160040161285b565b6119308282610f58565b156108a3576000828152602081815260408083206001600160a01b03851684529091529020805460ff19169055611965611261565b6001600160a01b0316816001600160a01b0316837ff6391f5c32d9c69d2a47ea670b442974b53935d1edc7fd64eb21e047a839171b60405160405180910390a45050565b6000610f51836001600160a01b038416611d8c565b6119c66109a2565b6108f75760405162461bcd60e51b8152600401610663906128ee565b6119ea6109a2565b156108f75760405162461bcd60e51b815260040161066390612b5a565b6000826000018281548110611a2c57634e487b7160e01b600052603260045260246000fd5b9060005260206000200154905092915050565b6000611a53846001600160a01b0316611ea9565b15611b4f57836001600160a01b031663150b7a02611a6f611261565b8786866040518563ffffffff1660e01b8152600401611a919493929190612797565b602060405180830381600087803b158015611aab57600080fd5b505af1925050508015611adb575060408051601f3d908101601f19168201909252611ad891810190612617565b60015b611b35573d808015611b09576040519150601f19603f3d011682016040523d82523d6000602084013e611b0e565b606091505b508051611b2d5760405162461bcd60e51b8152600401610663906129b4565b805181602001fd5b6001600160e01b031916630a85bd0160e11b14905061132a565b506001949350505050565b60009081526001919091016020526040902054151590565b60006001600160e01b03198216635a05180f60e01b1480610563575061056382611eb8565b611ba384848484611edd565b611bab6109a2565b15610ff95760405162461bcd60e51b8152600401610663906128a3565b60606105636001600160a01b03831660145b60606000611be9836002612e81565b611bf4906002612e69565b67ffffffffffffffff811115611c1a57634e487b7160e01b600052604160045260246000fd5b6040519080825280601f01601f191660200182016040528015611c44576020820181803683370190505b509050600360fc1b81600081518110611c6d57634e487b7160e01b600052603260045260246000fd5b60200101906001600160f81b031916908160001a905350600f60fb1b81600181518110611caa57634e487b7160e01b600052603260045260246000fd5b60200101906001600160f81b031916908160001a9053506000611cce846002612e81565b611cd9906001612e69565b90505b6001811115611d6d576f181899199a1a9b1b9c1cb0b131b232b360811b85600f1660108110611d1b57634e487b7160e01b600052603260045260246000fd5b1a60f81b828281518110611d3f57634e487b7160e01b600052603260045260246000fd5b60200101906001600160f81b031916908160001a90535060049490941c93611d6681612ee3565b9050611cdc565b508315610f515760405162461bcd60e51b81526004016106639061286e565b60008181526001830160205260408120548015611e9f576000611db0600183612ea0565b8554909150600090611dc490600190612ea0565b9050818114611e45576000866000018281548110611df257634e487b7160e01b600052603260045260246000fd5b9060005260206000200154905080876000018481548110611e2357634e487b7160e01b600052603260045260246000fd5b6000918252602080832090910192909255918252600188019052604090208390555b8554869080611e6457634e487b7160e01b600052603160045260246000fd5b60019003818190600052602060002001600090559055856001016000868152602001908152602001600020600090556001935050505061085b565b600091505061085b565b6001600160a01b03163b151590565b60006001600160e01b03198216637965db0b60e01b1480610563575061056382611f90565b611ee984848484610ff9565b6001811115611f0a5760405162461bcd60e51b815260040161066390612d23565b816001600160a01b038516611f2757611f2281611fa9565b611f4a565b836001600160a01b0316856001600160a01b031614611f4a57611f4a8582611fed565b6001600160a01b038416611f6657611f618161208a565b611f89565b846001600160a01b0316846001600160a01b031614611f8957611f898482612163565b5050505050565b6001600160e01b031981166301ffc9a760e01b14919050565b600a80546000838152600b60205260408120829055600182018355919091527fc65a7bb8d6351c1cf70c95a316cc6a92839c986682d98bc35f958f4883f9d2a80155565b60006001611ffa84610c27565b6120049190612ea0565b600083815260096020526040902054909150808214612057576001600160a01b03841660009081526008602090815260408083208584528252808320548484528184208190558352600990915290208190555b5060009182526009602090815260408084208490556001600160a01b039094168352600881528383209183525290812055565b600a5460009061209c90600190612ea0565b6000838152600b6020526040812054600a80549394509092849081106120d257634e487b7160e01b600052603260045260246000fd5b9060005260206000200154905080600a838154811061210157634e487b7160e01b600052603260045260246000fd5b6000918252602080832090910192909255828152600b9091526040808220849055858252812055600a80548061214757634e487b7160e01b600052603160045260246000fd5b6001900381819060005260206000200160009055905550505050565b600061216e83610c27565b6001600160a01b039093166000908152600860209081526040808320868452825280832085905593825260099052919091209190915550565b8280546121b390612efa565b90600052602060002090601f0160209004810192826121d5576000855561221b565b82601f106121ee57805160ff191683800117855561221b565b8280016001018555821561221b579182015b8281111561221b578251825591602001919060010190612200565b50612227929150612294565b5090565b82805482825590600052602060002090810192821561221b579160200282018281111561221b578251825591602001919060010190612200565b6040518060a0016040528060008152602001606081526020016060815260200160608152602001606081525090565b5b808211156122275760008155600101612295565b80356001600160a01b038116811461056657600080fd5b600082601f8301126122d0578081fd5b813567ffffffffffffffff8111156122ea576122ea612f66565b6122fd601f8201601f1916602001612e38565b818152846020838601011115612311578283fd5b816020850160208301379081016020019190915292915050565b60006020828403121561233c578081fd5b610f51826122a9565b60008060408385031215612357578081fd5b612360836122a9565b915061236e602084016122a9565b90509250929050565b60008060006060848603121561238b578081fd5b612394846122a9565b92506123a2602085016122a9565b9150604084013590509250925092565b600080600080608085870312156123c7578081fd5b6123d0856122a9565b93506123de602086016122a9565b925060408501359150606085013567ffffffffffffffff811115612400578182fd5b61240c878288016122c0565b91505092959194509250565b6000806040838503121561242a578182fd5b612433836122a9565b915060208301358015158114612447578182fd5b809150509250929050565b600080600080600060a08688031215612469578081fd5b612472866122a9565b945060208087013567ffffffffffffffff8082111561248f578384fd5b61249b8a838b016122c0565b965060408901359150808211156124b0578384fd5b6124bc8a838b016122c0565b955060608901359150808211156124d1578384fd5b6124dd8a838b016122c0565b945060808901359150808211156124f2578384fd5b818901915089601f830112612505578384fd5b81358181111561251757612517612f66565b8381029150612527848301612e38565b8181528481019084860184860187018e1015612541578788fd5b8795505b83861015612563578035835260019590950194918601918601612545565b508096505050505050509295509295909350565b60008060408385031215612589578182fd5b612592836122a9565b946020939093013593505050565b6000602082840312156125b1578081fd5b5035919050565b600080604083850312156125ca578182fd5b8235915061236e602084016122a9565b600080604083850312156125ec578182fd5b50508035926020909101359150565b60006020828403121561260c578081fd5b8135610f5181612f7c565b600060208284031215612628578081fd5b8151610f5181612f7c565b6000815180845260208085019450808401835b8381101561266257815187529582019590820190600101612646565b509495945050505050565b60008151808452612685816020860160208601612eb7565b601f01601f19169290920160200192915050565b600081518352602082015160a060208501526126b860a085018261266d565b9050604083015184820360408601526126d1828261266d565b915050606083015184820360608601526126eb828261266d565b915050608083015184820360808601526127058282612633565b95945050505050565b60007f416363657373436f6e74726f6c3a206163636f756e742000000000000000000082528351612746816017850160208801612eb7565b7001034b99036b4b9b9b4b733903937b6329607d1b6017918401918201528351612777816028840160208801612eb7565b01602801949350505050565b6001600160a01b0391909116815260200190565b6001600160a01b03858116825284166020820152604081018390526080606082018190526000906127ca9083018461266d565b9695505050505050565b6000602080830181845280855180835260408601915060408482028701019250838701855b8281101561282757603f19888603018452612815858351612699565b945092850192908501906001016127f9565b5092979650505050505050565b600060208252610f516020830184612633565b901515815260200190565b90815260200190565b600060208252610f51602083018461266d565b6020808252818101527f537472696e67733a20686578206c656e67746820696e73756666696369656e74604082015260600190565b6020808252602b908201527f4552433732315061757361626c653a20746f6b656e207472616e73666572207760408201526a1a1a5b19481c185d5cd95960aa1b606082015260800190565b60208082526014908201527314185d5cd8589b194e881b9bdd081c185d5cd95960621b604082015260600190565b6020808252602d908201527f4552433732313a2063616c6c6572206973206e6f7420746f6b656e206f776e6560408201526c1c881bdc88185c1c1c9bdd9959609a1b606082015260800190565b6020808252602b908201527f455243373231456e756d657261626c653a206f776e657220696e646578206f7560408201526a74206f6620626f756e647360a81b606082015260800190565b60208082526032908201527f4552433732313a207472616e7366657220746f206e6f6e20455243373231526560408201527131b2b4bb32b91034b6b83632b6b2b73a32b960711b606082015260800190565b60208082526025908201527f4552433732313a207472616e736665722066726f6d20696e636f72726563742060408201526437bbb732b960d91b606082015260800190565b6020808252601c908201527f4552433732313a20746f6b656e20616c7265616479206d696e74656400000000604082015260600190565b6020808252603e908201527f4552433732315072657365744d696e7465725061757365724175746f49643a2060408201527f6d75737420686176652070617573657220726f6c6520746f2070617573650000606082015260800190565b60208082526024908201527f4552433732313a207472616e7366657220746f20746865207a65726f206164646040820152637265737360e01b606082015260800190565b60208082526019908201527f4552433732313a20617070726f766520746f2063616c6c657200000000000000604082015260600190565b60208082526010908201526f14185d5cd8589b194e881c185d5cd95960821b604082015260600190565b60208082526029908201527f4552433732313a2061646472657373207a65726f206973206e6f7420612076616040820152683634b21037bbb732b960b91b606082015260800190565b6020808252818101527f4552433732313a206d696e7420746f20746865207a65726f2061646472657373604082015260600190565b60208082526018908201527f4552433732313a20696e76616c696420746f6b656e2049440000000000000000604082015260600190565b60208082526021908201527f4552433732313a20617070726f76616c20746f2063757272656e74206f776e656040820152603960f91b606082015260800190565b6020808252603d908201527f4552433732313a20617070726f76652063616c6c6572206973206e6f7420746f60408201527f6b656e206f776e6572206f7220617070726f76656420666f7220616c6c000000606082015260800190565b6020808252602c908201527f455243373231456e756d657261626c653a20676c6f62616c20696e646578206f60408201526b7574206f6620626f756e647360a01b606082015260800190565b60208082526035908201527f455243373231456e756d657261626c653a20636f6e7365637574697665207472604082015274185b9cd9995c9cc81b9bdd081cdd5c1c1bdc9d1959605a1b606082015260800190565b602080825260409082018190527f4552433732315072657365744d696e7465725061757365724175746f49643a20908201527f6d75737420686176652070617573657220726f6c6520746f20756e7061757365606082015260800190565b6020808252602f908201527f416363657373436f6e74726f6c3a2063616e206f6e6c792072656e6f756e636560408201526e103937b632b9903337b91039b2b63360891b606082015260800190565b600060208252610f516020830184612699565b604051601f8201601f1916810167ffffffffffffffff81118282101715612e6157612e61612f66565b604052919050565b60008219821115612e7c57612e7c612f50565b500190565b6000816000190483118215151615612e9b57612e9b612f50565b500290565b600082821015612eb257612eb2612f50565b500390565b60005b83811015612ed2578181015183820152602001612eba565b83811115610ff95750506000910152565b600081612ef257612ef2612f50565b506000190190565b600281046001821680612f0e57607f821691505b60208210811415612f2f57634e487b7160e01b600052602260045260246000fd5b50919050565b6000600019821415612f4957612f49612f50565b5060010190565b634e487b7160e01b600052601160045260246000fd5b634e487b7160e01b600052604160045260246000fd5b6001600160e01b03198116811461094457600080fdfea2646970667358221220304a9bee4d73bc9ad7bb7c9490b18ab5f683d58f1891b9b5079ccd8ad48365bc64736f6c63430008010033a2646970667358221220f8f9d19b8878532473a43ac01aba7764dc7a2a53813ce122929cbc1463c3af9464736f6c63430008010033",
  "devdoc": {
    "kind": "dev",
    "methods": {
      "owner()": {
        "details": "Returns the address of the current owner."
      },
      "renounceOwnership()": {
        "details": "Leaves the contract without owner. It will not be possible to call `onlyOwner` functions anymore. Can only be called by the current owner. NOTE: Renouncing ownership will leave the contract without an owner, thereby removing any functionality that is only available to the owner."
      },
      "transferOwnership(address)": {
        "details": "Transfers ownership of the contract to a new account (`newOwner`). Can only be called by the current owner."
      }
    },
    "version": 1
  },
  "userdoc": {
    "kind": "user",
    "methods": {},
    "version": 1
  },
  "storageLayout": {
    "storage": [
      {
        "astId": 546,
        "contract": "contracts/PolyNftFactory.sol:PolyNftFactory",
        "label": "_owner",
        "offset": 0,
        "slot": "0",
        "type": "t_address"
      },
      {
        "astId": 4929,
        "contract": "contracts/PolyNftFactory.sol:PolyNftFactory",
        "label": "registry",
        "offset": 0,
        "slot": "1",
        "type": "t_address"
      },
      {
        "astId": 4933,
        "contract": "contracts/PolyNftFactory.sol:PolyNftFactory",
        "label": "erc721Owner",
        "offset": 0,
        "slot": "2",
        "type": "t_mapping(t_address,t_address)"
      },
      {
        "astId": 4936,
        "contract": "contracts/PolyNftFactory.sol:PolyNftFactory",
        "label": "projects",
        "offset": 0,
        "slot": "3",
        "type": "t_array(t_string_storage)dyn_storage"
      },
      {
        "astId": 4940,
        "contract": "contracts/PolyNftFactory.sol:PolyNftFactory",
        "label": "projectMap",
        "offset": 0,
        "slot": "4",
        "type": "t_mapping(t_string_memory_ptr,t_address)"
      }
    ],
    "types": {
      "t_address": {
        "encoding": "inplace",
        "label": "address",
        "numberOfBytes": "20"
      },
      "t_array(t_string_storage)dyn_storage": {
        "base": "t_string_storage",
        "encoding": "dynamic_array",
        "label": "string[]",
        "numberOfBytes": "32"
      },
      "t_mapping(t_address,t_address)": {
        "encoding": "mapping",
        "key": "t_address",
        "label": "mapping(address => address)",
        "numberOfBytes": "32",
        "value": "t_address"
      },
      "t_mapping(t_string_memory_ptr,t_address)": {
        "encoding": "mapping",
        "key": "t_string_memory_ptr",
        "label": "mapping(string => address)",
        "numberOfBytes": "32",
        "value": "t_address"
      },
      "t_string_memory_ptr": {
        "encoding": "bytes",
        "label": "string",
        "numberOfBytes": "32"
      },
      "t_string_storage": {
        "encoding": "bytes",
        "label": "string",
        "numberOfBytes": "32"
      }
    }
  }
}