{
  "address": "0xeA9f323a2eDab53B041fb08e3D0Aa71CCc65F172",
  "abi": [
    {
      "anonymous": false,
      "inputs": [
        {
          "indexed": true,
          "internalType": "address",
          "name": "previousOwner",
          "type": "address"
        },
        {
          "indexed": true,
          "internalType": "address",
          "name": "newOwner",
          "type": "address"
        }
      ],
      "name": "OwnershipTransferred",
      "type": "event"
    },
    {
      "inputs": [
        {
          "components": [
            {
              "internalType": "address",
              "name": "polyNftErc721",
              "type": "address"
            },
            {
              "internalType": "uint256",
              "name": "tokenId",
              "type": "uint256"
            },
            {
              "internalType": "uint256",
              "name": "fusionCost",
              "type": "uint256"
            },
            {
              "internalType": "uint256",
              "name": "timestamp",
              "type": "uint256"
            },
            {
              "internalType": "string",
              "name": "description",
              "type": "string"
            }
          ],
          "internalType": "struct PolyNftRegistry.OrderInfo",
          "name": "orderInfoArg",
          "type": "tuple"
        }
      ],
      "name": "deregister",
      "outputs": [],
      "stateMutability": "nonpayable",
      "type": "function"
    },
    {
      "inputs": [
        {
          "components": [
            {
              "internalType": "address",
              "name": "polyNftErc721",
              "type": "address"
            },
            {
              "internalType": "uint256",
              "name": "tokenId",
              "type": "uint256"
            },
            {
              "internalType": "uint256",
              "name": "fusionCost",
              "type": "uint256"
            },
            {
              "internalType": "uint256",
              "name": "timestamp",
              "type": "uint256"
            },
            {
              "internalType": "string",
              "name": "description",
              "type": "string"
            }
          ],
          "internalType": "struct PolyNftRegistry.OrderInfo[]",
          "name": "orderInfosArg",
          "type": "tuple[]"
        },
        {
          "internalType": "string",
          "name": "description",
          "type": "string"
        }
      ],
      "name": "fuse",
      "outputs": [],
      "stateMutability": "payable",
      "type": "function"
    },
    {
      "inputs": [
        {
          "internalType": "bytes32",
          "name": "",
          "type": "bytes32"
        }
      ],
      "name": "orderInfoHashMap",
      "outputs": [
        {
          "internalType": "address",
          "name": "",
          "type": "address"
        }
      ],
      "stateMutability": "view",
      "type": "function"
    },
    {
      "inputs": [
        {
          "internalType": "address",
          "name": "",
          "type": "address"
        },
        {
          "internalType": "uint256",
          "name": "",
          "type": "uint256"
        }
      ],
      "name": "orderMap",
      "outputs": [
        {
          "internalType": "address",
          "name": "polyNftErc721",
          "type": "address"
        },
        {
          "internalType": "uint256",
          "name": "tokenId",
          "type": "uint256"
        },
        {
          "internalType": "uint256",
          "name": "fusionCost",
          "type": "uint256"
        },
        {
          "internalType": "uint256",
          "name": "timestamp",
          "type": "uint256"
        },
        {
          "internalType": "string",
          "name": "description",
          "type": "string"
        }
      ],
      "stateMutability": "view",
      "type": "function"
    },
    {
      "inputs": [],
      "name": "owner",
      "outputs": [
        {
          "internalType": "address",
          "name": "",
          "type": "address"
        }
      ],
      "stateMutability": "view",
      "type": "function"
    },
    {
      "inputs": [
        {
          "internalType": "address",
          "name": "",
          "type": "address"
        },
        {
          "internalType": "uint256",
          "name": "",
          "type": "uint256"
        }
      ],
      "name": "polyNftErc721OrderMap",
      "outputs": [
        {
          "internalType": "address",
          "name": "polyNftErc721",
          "type": "address"
        },
        {
          "internalType": "uint256",
          "name": "tokenId",
          "type": "uint256"
        },
        {
          "internalType": "uint256",
          "name": "fusionCost",
          "type": "uint256"
        },
        {
          "internalType": "uint256",
          "name": "timestamp",
          "type": "uint256"
        },
        {
          "internalType": "string",
          "name": "description",
          "type": "string"
        }
      ],
      "stateMutability": "view",
      "type": "function"
    },
    {
      "inputs": [
        {
          "components": [
            {
              "internalType": "address",
              "name": "polyNftErc721",
              "type": "address"
            },
            {
              "internalType": "uint256",
              "name": "tokenId",
              "type": "uint256"
            },
            {
              "internalType": "uint256",
              "name": "fusionCost",
              "type": "uint256"
            },
            {
              "internalType": "uint256",
              "name": "timestamp",
              "type": "uint256"
            },
            {
              "internalType": "string",
              "name": "description",
              "type": "string"
            }
          ],
          "internalType": "struct PolyNftRegistry.OrderInfo",
          "name": "orderInfoArg",
          "type": "tuple"
        }
      ],
      "name": "register",
      "outputs": [],
      "stateMutability": "nonpayable",
      "type": "function"
    },
    {
      "inputs": [],
      "name": "renounceOwnership",
      "outputs": [],
      "stateMutability": "nonpayable",
      "type": "function"
    },
    {
      "inputs": [
        {
          "internalType": "address",
          "name": "newOwner",
          "type": "address"
        }
      ],
      "name": "transferOwnership",
      "outputs": [],
      "stateMutability": "nonpayable",
      "type": "function"
    }
  ],
  "transactionHash": "0x7f07574adc96469cedcc6b108cf7ac683faae87fba4971aee1ceef37c43e5da9",
  "args": [],
  "numDeployments": 1,
  "solcInputHash": "0c81b2ae73169b5e0fe991c3929f059b",
  "bytecode": "0x608060405234801561001057600080fd5b5061002161001c610026565b61002a565b61007a565b3390565b600080546001600160a01b038381166001600160a01b0319831681178455604051919092169283917f8be0079c531659141344cd1fd0a4f28419497f9722a3daafe3b4186f6b6457e09190a35050565b611338806100896000396000f3fe6080604052600436106100865760003560e01c8063954fe07611610059578063954fe0761461011e578063bf1250b314610131578063f138324f14610151578063f2fde38b14610171578063f9e3c8941461019157610086565b80631c63758d1461008b5780632df7fb92146100ad578063715018a6146100e75780638da5cb5b146100fc575b600080fd5b34801561009757600080fd5b506100ab6100a6366004610d2d565b6101b1565b005b3480156100b957600080fd5b506100cd6100c8366004610b82565b610372565b6040516100de959493929190610e4a565b60405180910390f35b3480156100f357600080fd5b506100ab610458565b34801561010857600080fd5b5061011161046c565b6040516100de9190610dbb565b6100ab61012c366004610bad565b61047b565b34801561013d57600080fd5b506100cd61014c366004610b82565b610a3f565b34801561015d57600080fd5b5061011161016c366004610c6c565b610a5b565b34801561017d57600080fd5b506100ab61018c366004610b43565b610a76565b34801561019d57600080fd5b506100ab6101ac366004610d2d565b610aad565b336101bf6020830183610b43565b6001600160a01b0316636352211e83602001356040518263ffffffff1660e01b81526004016101ee9190610fb9565b60206040518083038186803b15801561020657600080fd5b505afa15801561021a573d6000803e3d6000fd5b505050506040513d601f19601f8201168201806040525081019061023e9190610b66565b6001600160a01b03161461026d5760405162461bcd60e51b815260040161026490610f99565b60405180910390fd5b61027a6020820182610b43565b6001600160a01b03166323b872dd333084602001356040518463ffffffff1660e01b81526004016102ad93929190610dcf565b600060405180830381600087803b1580156102c757600080fd5b505af11580156102db573d6000803e3d6000fd5b505033600090815260026020908152604082208054600181018255908352912084935060059091020190506103108282611255565b50600090506103226020830183610b43565b82602001354260405160200161033a93929190610d91565b60408051601f19818403018152918152815160209283012060009081526003909252902080546001600160a01b031916331790555050565b6002602052816000526040600020818154811061038e57600080fd5b6000918252602090912060059091020180546001820154600283015460038401546004850180546001600160a01b039095169750929550909390929091906103d5906111c0565b80601f0160208091040260200160405190810160405280929190818152602001828054610401906111c0565b801561044e5780601f106104235761010080835404028352916020019161044e565b820191906000526020600020905b81548152906001019060200180831161043157829003601f168201915b5050505050905085565b610460610ab0565b61046a6000610aef565b565b6000546001600160a01b031690565b826000808267ffffffffffffffff8111156104a657634e487b7160e01b600052604160045260246000fd5b6040519080825280602002602001820160405280156104d957816020015b60608152602001906001900390816104c45790505b50905060005b8381101561085e5787878281811061050757634e487b7160e01b600052603260045260246000fd5b90506020028101906105199190610fc2565b610527906040013584610fed565b925087878281811061054957634e487b7160e01b600052603260045260246000fd5b905060200281019061055b9190610fc2565b610569906020810190610b43565b6001600160a01b0316631f5caafb89898481811061059757634e487b7160e01b600052603260045260246000fd5b90506020028101906105a99190610fc2565b602001356040518263ffffffff1660e01b81526004016105c99190610fb9565b60006040518083038186803b1580156105e157600080fd5b505afa1580156105f5573d6000803e3d6000fd5b505050506040513d6000823e601f3d908101601f1916820160405261061d9190810190610c84565b82828151811061063d57634e487b7160e01b600052603260045260246000fd5b60200260200101819052506003600089898481811061066c57634e487b7160e01b600052603260045260246000fd5b905060200281019061067e9190610fc2565b61068c906020810190610b43565b8a8a858181106106ac57634e487b7160e01b600052603260045260246000fd5b90506020028101906106be9190610fc2565b60200135426040516020016106d593929190610d91565b60408051601f19818403018152918152815160209283012083529082019290925201600020546001600160a01b03166108fc620f424061071761271082611044565b62ffffff168b8b8681811061073c57634e487b7160e01b600052603260045260246000fd5b905060200281019061074e9190610fc2565b6040013561075c9190611025565b6107669190611005565b6040518115909202916000818181858888f1935050505015801561078e573d6000803e3d6000fd5b50801561084e5787876107a2600184611068565b8181106107bf57634e487b7160e01b600052603260045260246000fd5b90506020028101906107d19190610fc2565b6107df906020810190610b43565b6001600160a01b031688888381811061080857634e487b7160e01b600052603260045260246000fd5b905060200281019061081a9190610fc2565b610828906020810190610b43565b6001600160a01b03161461084e5760405162461bcd60e51b815260040161026490610f44565b6108578161120e565b90506104df565b508134101561087f5760405162461bcd60e51b815260040161026490610edd565b6000878760008181106108a257634e487b7160e01b600052603260045260246000fd5b90506020028101906108b49190610fc2565b6108c2906020810190610b43565b90506000816001600160a01b031663b5a25e586040518163ffffffff1660e01b815260040160206040518083038186803b1580156108ff57600080fd5b505afa158015610913573d6000803e3d6000fd5b505050506040513d601f19601f820116820180604052508101906109379190610b66565b905060606001600160a01b038216156109cf57604051634604763160e11b81526001600160a01b03831690638c08ec6290610976908790600401610e7d565b600060405180830381600087803b15801561099057600080fd5b505af11580156109a4573d6000803e3d6000fd5b505050506040513d6000823e601f3d908101601f191682016040526109cc9190810190610c84565b90505b6040516315a3ce4d60e31b81526001600160a01b0384169063ad1e726890610a0190339085908d908d90600401610df3565b600060405180830381600087803b158015610a1b57600080fd5b505af1158015610a2f573d6000803e3d6000fd5b5050505050505050505050505050565b6001602052816000526040600020818154811061038e57600080fd5b6003602052600090815260409020546001600160a01b031681565b610a7e610ab0565b6001600160a01b038116610aa45760405162461bcd60e51b815260040161026490610efe565b610aad81610aef565b50565b610ab8610b3f565b6001600160a01b0316610ac961046c565b6001600160a01b03161461046a5760405162461bcd60e51b815260040161026490610f64565b600080546001600160a01b038381166001600160a01b0319831681178455604051919092169283917f8be0079c531659141344cd1fd0a4f28419497f9722a3daafe3b4186f6b6457e09190a35050565b3390565b600060208284031215610b54578081fd5b8135610b5f816112ed565b9392505050565b600060208284031215610b77578081fd5b8151610b5f816112ed565b60008060408385031215610b94578081fd5b8235610b9f816112ed565b946020939093013593505050565b60008060008060408587031215610bc2578182fd5b843567ffffffffffffffff80821115610bd9578384fd5b818701915087601f830112610bec578384fd5b813581811115610bfa578485fd5b602089818284028601011115610c0e578586fd5b808401975081965080890135935082841115610c28578586fd5b838901935089601f850112610c3b578586fd5b8335915082821115610c4b578586fd5b8981838601011115610c5b578586fd5b969995985091909501955093505050565b600060208284031215610c7d578081fd5b5035919050565b600060208284031215610c95578081fd5b815167ffffffffffffffff80821115610cac578283fd5b818401915084601f830112610cbf578283fd5b815181811115610cd157610cd161123f565b604051601f8201601f19908116603f01168101908382118183101715610cf957610cf961123f565b81604052828152876020848701011115610d11578586fd5b610d22836020830160208801611190565b979650505050505050565b600060208284031215610d3e578081fd5b813567ffffffffffffffff811115610d54578182fd5b820160a08185031215610b5f578182fd5b60008151808452610d7d816020860160208601611190565b601f01601f19169290920160200192915050565b60609390931b6bffffffffffffffffffffffff191683526014830191909152603482015260540190565b6001600160a01b0391909116815260200190565b6001600160a01b039384168152919092166020820152604081019190915260600190565b6001600160a01b0385168152606060208201819052600090610e1790830186610d65565b82810360408401528381528385602083013781602085830101526020601f19601f86011682010191505095945050505050565b600060018060a01b038716825285602083015284604083015283606083015260a06080830152610d2260a0830184610d65565b6000602080830181845280855180835260408601915060408482028701019250838701855b82811015610ed057603f19888603018452610ebe858351610d65565b94509285019290850190600101610ea2565b5092979650505050505050565b6020808252600790820152660504e525f4e45560cc1b604082015260600190565b60208082526026908201527f4f776e61626c653a206e6577206f776e657220697320746865207a65726f206160408201526564647265737360d01b606082015260800190565b602080825260069082015265504e525f4e5360d01b604082015260600190565b6020808252818101527f4f776e61626c653a2063616c6c6572206973206e6f7420746865206f776e6572604082015260600190565b602080825260069082015265504e525f4e4f60d01b604082015260600190565b90815260200190565b60008235609e19833603018112610fd7578182fd5b9190910192915050565b60009081526020902090565b6000821982111561100057611000611229565b500190565b60008261102057634e487b7160e01b81526012600452602481fd5b500490565b600081600019048311821515161561103f5761103f611229565b500290565b600062ffffff8381169083168181101561106057611060611229565b039392505050565b60008282101561107a5761107a611229565b500390565b5b818110156110945760008155600101611080565b5050565b67ffffffffffffffff8311156110b0576110b061123f565b6110ba81546111c0565b600080601f8611601f8411818117156110d9576110d686610fe1565b92505b8015611108576020601f890104830160208910156110f45750825b6111066020601f88010485018261107f565b505b50806001811461113457600094508715611123578387013594505b61112d88866111fb565b8655611186565b601f198816945082845b8681101561115e578886013582556020958601956001909201910161113e565b508886101561117b57878501356000196008601f8c16021c191681555b506001600289020186555b5050505050505050565b60005b838110156111ab578181015183820152602001611193565b838111156111ba576000848401525b50505050565b6002810460018216806111d457607f821691505b602082108114156111f557634e487b7160e01b600052602260045260246000fd5b50919050565b600019600883021c191660029091021790565b600060001982141561122257611222611229565b5060010190565b634e487b7160e01b600052601160045260246000fd5b634e487b7160e01b600052604160045260246000fd5b8135611260816112ed565b81546001600160a01b0319166001600160a01b0391909116178155602082013560018201556040820135600282015560608201356003820155608082013536839003601e190181126112b157600080fd5b8201803567ffffffffffffffff8111156112ca57600080fd5b6020820191508036038213156112df57600080fd5b6111ba818360048601611098565b6001600160a01b0381168114610aad57600080fdfea26469706673582212209011648efa3e085f729f97357bed0033ba49f84b617cf76877decfc686c58a3e64736f6c63430008010033",
  "devdoc": {
    "kind": "dev",
    "methods": {
      "owner()": {
        "details": "Returns the address of the current owner."
      },
      "renounceOwnership()": {
        "details": "Leaves the contract without owner. It will not be possible to call `onlyOwner` functions anymore. Can only be called by the current owner. NOTE: Renouncing ownership will leave the contract without an owner, thereby removing any functionality that is only available to the owner."
      },
      "transferOwnership(address)": {
        "details": "Transfers ownership of the contract to a new account (`newOwner`). Can only be called by the current owner."
      }
    },
    "version": 1
  },
  "userdoc": {
    "kind": "user",
    "methods": {},
    "version": 1
  },
  "storageLayout": {
    "storage": [
      {
        "astId": 546,
        "contract": "contracts/PolyNftRegistry.sol:PolyNftRegistry",
        "label": "_owner",
        "offset": 0,
        "slot": "0",
        "type": "t_address"
      },
      {
        "astId": 4884,
        "contract": "contracts/PolyNftRegistry.sol:PolyNftRegistry",
        "label": "polyNftErc721OrderMap",
        "offset": 0,
        "slot": "1",
        "type": "t_mapping(t_address,t_array(t_struct(OrderInfo)4875_storage)dyn_storage)"
      },
      {
        "astId": 4890,
        "contract": "contracts/PolyNftRegistry.sol:PolyNftRegistry",
        "label": "orderMap",
        "offset": 0,
        "slot": "2",
        "type": "t_mapping(t_address,t_array(t_struct(OrderInfo)4875_storage)dyn_storage)"
      },
      {
        "astId": 4894,
        "contract": "contracts/PolyNftRegistry.sol:PolyNftRegistry",
        "label": "orderInfoHashMap",
        "offset": 0,
        "slot": "3",
        "type": "t_mapping(t_bytes32,t_address)"
      }
    ],
    "types": {
      "t_address": {
        "encoding": "inplace",
        "label": "address",
        "numberOfBytes": "20"
      },
      "t_array(t_struct(OrderInfo)4875_storage)dyn_storage": {
        "base": "t_struct(OrderInfo)4875_storage",
        "encoding": "dynamic_array",
        "label": "struct PolyNftRegistry.OrderInfo[]",
        "numberOfBytes": "32"
      },
      "t_bytes32": {
        "encoding": "inplace",
        "label": "bytes32",
        "numberOfBytes": "32"
      },
      "t_mapping(t_address,t_array(t_struct(OrderInfo)4875_storage)dyn_storage)": {
        "encoding": "mapping",
        "key": "t_address",
        "label": "mapping(address => struct PolyNftRegistry.OrderInfo[])",
        "numberOfBytes": "32",
        "value": "t_array(t_struct(OrderInfo)4875_storage)dyn_storage"
      },
      "t_mapping(t_bytes32,t_address)": {
        "encoding": "mapping",
        "key": "t_bytes32",
        "label": "mapping(bytes32 => address)",
        "numberOfBytes": "32",
        "value": "t_address"
      },
      "t_string_storage": {
        "encoding": "bytes",
        "label": "string",
        "numberOfBytes": "32"
      },
      "t_struct(OrderInfo)4875_storage": {
        "encoding": "inplace",
        "label": "struct PolyNftRegistry.OrderInfo",
        "members": [
          {
            "astId": 4866,
            "contract": "contracts/PolyNftRegistry.sol:PolyNftRegistry",
            "label": "polyNftErc721",
            "offset": 0,
            "slot": "0",
            "type": "t_address"
          },
          {
            "astId": 4868,
            "contract": "contracts/PolyNftRegistry.sol:PolyNftRegistry",
            "label": "tokenId",
            "offset": 0,
            "slot": "1",
            "type": "t_uint256"
          },
          {
            "astId": 4870,
            "contract": "contracts/PolyNftRegistry.sol:PolyNftRegistry",
            "label": "fusionCost",
            "offset": 0,
            "slot": "2",
            "type": "t_uint256"
          },
          {
            "astId": 4872,
            "contract": "contracts/PolyNftRegistry.sol:PolyNftRegistry",
            "label": "timestamp",
            "offset": 0,
            "slot": "3",
            "type": "t_uint256"
          },
          {
            "astId": 4874,
            "contract": "contracts/PolyNftRegistry.sol:PolyNftRegistry",
            "label": "description",
            "offset": 0,
            "slot": "4",
            "type": "t_string_storage"
          }
        ],
        "numberOfBytes": "160"
      },
      "t_uint256": {
        "encoding": "inplace",
        "label": "uint256",
        "numberOfBytes": "32"
      }
    }
  }
}